{
  "contractName": "PatientRecords",
  "abi": [
    {
      "anonymous": false,
      "inputs": [
        {
          "indexed": true,
          "internalType": "uint256",
          "name": "patientID",
          "type": "uint256"
        },
        {
          "indexed": true,
          "internalType": "address",
          "name": "newAddress",
          "type": "address"
        }
      ],
      "name": "AccessGranted",
      "type": "event"
    },
    {
      "anonymous": false,
      "inputs": [
        {
          "indexed": false,
          "internalType": "uint256",
          "name": "patientID",
          "type": "uint256"
        },
        {
          "indexed": false,
          "internalType": "address",
          "name": "revokedAddress",
          "type": "address"
        }
      ],
      "name": "AccessRevoked",
      "type": "event"
    },
    {
      "anonymous": false,
      "inputs": [
        {
          "indexed": false,
          "internalType": "uint256",
          "name": "patientID",
          "type": "uint256"
        },
        {
          "indexed": false,
          "internalType": "string",
          "name": "cid",
          "type": "string"
        }
      ],
      "name": "PatientAdded",
      "type": "event"
    },
    {
      "inputs": [
        {
          "internalType": "uint256",
          "name": "",
          "type": "uint256"
        }
      ],
      "name": "patientIDs",
      "outputs": [
        {
          "internalType": "uint256",
          "name": "",
          "type": "uint256"
        }
      ],
      "stateMutability": "view",
      "type": "function",
      "constant": true
    },
    {
      "inputs": [
        {
          "internalType": "uint256",
          "name": "",
          "type": "uint256"
        }
      ],
      "name": "patients",
      "outputs": [
        {
          "internalType": "uint256",
          "name": "patientID",
          "type": "uint256"
        },
        {
          "internalType": "string",
          "name": "cid",
          "type": "string"
        }
      ],
      "stateMutability": "view",
      "type": "function",
      "constant": true
    },
    {
      "inputs": [
        {
          "internalType": "string",
          "name": "_cid",
          "type": "string"
        },
        {
          "internalType": "address",
          "name": "_insuranceCompanyAddress",
          "type": "address"
        }
      ],
      "name": "addPatient",
      "outputs": [],
      "stateMutability": "nonpayable",
      "type": "function"
    },
    {
      "inputs": [],
      "name": "getAllPatients",
      "outputs": [
        {
          "internalType": "uint256[]",
          "name": "patientIDsList",
          "type": "uint256[]"
        },
        {
          "internalType": "string[]",
          "name": "cids",
          "type": "string[]"
        },
        {
          "internalType": "address[][]",
          "name": "accessGrantedLists",
          "type": "address[][]"
        }
      ],
      "stateMutability": "view",
      "type": "function",
      "constant": true
    },
    {
      "inputs": [
        {
          "internalType": "uint256",
          "name": "_patientID",
          "type": "uint256"
        }
      ],
      "name": "getPatientByID",
      "outputs": [
        {
          "internalType": "uint256",
          "name": "patientID",
          "type": "uint256"
        },
        {
          "internalType": "string",
          "name": "cid",
          "type": "string"
        },
        {
          "internalType": "string",
          "name": "status",
          "type": "string"
        }
      ],
      "stateMutability": "view",
      "type": "function",
      "constant": true
    },
    {
      "inputs": [
        {
          "internalType": "uint256",
          "name": "_patientID",
          "type": "uint256"
        },
        {
          "internalType": "address",
          "name": "_addressToGrant",
          "type": "address"
        }
      ],
      "name": "grantAccess",
      "outputs": [],
      "stateMutability": "nonpayable",
      "type": "function"
    },
    {
      "inputs": [
        {
          "internalType": "uint256",
          "name": "_patientID",
          "type": "uint256"
        },
        {
          "internalType": "address",
          "name": "_addressToRevoke",
          "type": "address"
        }
      ],
      "name": "revokeAccess",
      "outputs": [],
      "stateMutability": "nonpayable",
      "type": "function"
    }
  ],
  "bytecode": "0x608060405234801561001057600080fd5b50611c26806100206000396000f3fe608060405234801561001057600080fd5b506004361061007d5760003560e01c80638bd874751161005b5780638bd87475146100ee57806393119a831461010a578063d9a5ec1b1461013b578063f1f761a9146101575761007d565b806318a231a91461008257806365dd152c146100a25780637fb8998f146100be575b600080fd5b61008a610189565b604051610099939291906116ca565b60405180910390f35b6100bc60048036038101906100b791906112d6565b61050a565b005b6100d860048036038101906100d391906112ad565b61074a565b6040516100e59190611776565b60405180910390f35b61010860048036038101906101039190611259565b61076e565b005b610124600480360381019061011f91906112ad565b610950565b6040516101329291906117ba565b60405180910390f35b610155600480360381019061015091906112d6565b6109fc565b005b610171600480360381019061016c91906112ad565b610cc8565b604051610180939291906117ea565b60405180910390f35b60608060606000600180549050905060008167ffffffffffffffff8111156101da577f4e487b7100000000000000000000000000000000000000000000000000000000600052604160045260246000fd5b60405190808252806020026020018201604052801561020d57816020015b60608152602001906001900390816101f85790505b50905060008267ffffffffffffffff811115610252577f4e487b7100000000000000000000000000000000000000000000000000000000600052604160045260246000fd5b60405190808252806020026020018201604052801561028557816020015b60608152602001906001900390816102705790505b50905060005b838110156104a5576000600182815481106102cf577f4e487b7100000000000000000000000000000000000000000000000000000000600052603260045260246000fd5b906000526020600020015490506000806000838152602001908152602001600020905080600101805461030190611aa9565b80601f016020809104026020016040519081016040528092919081815260200182805461032d90611aa9565b801561037a5780601f1061034f5761010080835404028352916020019161037a565b820191906000526020600020905b81548152906001019060200180831161035d57829003601f168201915b50505050508584815181106103b8577f4e487b7100000000000000000000000000000000000000000000000000000000600052603260045260246000fd5b60200260200101819052508060020180548060200260200160405190810160405280929190818152602001828054801561044757602002820191906000526020600020905b8160009054906101000a900473ffffffffffffffffffffffffffffffffffffffff1673ffffffffffffffffffffffffffffffffffffffff16815260200190600101908083116103fd575b5050505050848481518110610485577f4e487b7100000000000000000000000000000000000000000000000000000000600052603260045260246000fd5b60200260200101819052505050808061049d90611adb565b91505061028b565b5060018282828054806020026020016040519081016040528092919081815260200182805480156104f557602002820191906000526020600020905b8154815260200190600101908083116104e1575b50505050509250955095509550505050909192565b60008060008481526020019081526020016000209050600073ffffffffffffffffffffffffffffffffffffffff168273ffffffffffffffffffffffffffffffffffffffff161415610590576040517f08c379a000000000000000000000000000000000000000000000000000000000815260040161058790611756565b60405180910390fd5b6000805b8260020180549050811015610659578373ffffffffffffffffffffffffffffffffffffffff168360020182815481106105f6577f4e487b7100000000000000000000000000000000000000000000000000000000600052603260045260246000fd5b9060005260206000200160009054906101000a900473ffffffffffffffffffffffffffffffffffffffff1673ffffffffffffffffffffffffffffffffffffffff1614156106465760019150610659565b808061065190611adb565b915050610594565b50801561069b576040517f08c379a000000000000000000000000000000000000000000000000000000000815260040161069290611736565b60405180910390fd5b81600201839080600181540180825580915050600190039060005260206000200160009091909190916101000a81548173ffffffffffffffffffffffffffffffffffffffff021916908373ffffffffffffffffffffffffffffffffffffffff1602179055508273ffffffffffffffffffffffffffffffffffffffff16847f3c3a9147a1fc73dd51a32f4d10c43d457e8cb826eb6f35cac6349eb965ba82b460405160405180910390a350505050565b6001818154811061075a57600080fd5b906000526020600020016000915090505481565b600080600180549050116107835760016107e4565b6001806001808054905061079791906119f7565b815481106107ce577f4e487b7100000000000000000000000000000000000000000000000000000000600052603260045260246000fd5b90600052602060002001546107e391906119a1565b5b9050600080600083815260200190815260200160002090508181600001819055508381600101908051906020019061081d929190611103565b5080600201339080600181540180825580915050600190039060005260206000200160009091909190916101000a81548173ffffffffffffffffffffffffffffffffffffffff021916908373ffffffffffffffffffffffffffffffffffffffff16021790555080600201839080600181540180825580915050600190039060005260206000200160009091909190916101000a81548173ffffffffffffffffffffffffffffffffffffffff021916908373ffffffffffffffffffffffffffffffffffffffff16021790555060018290806001815401808255809150506001900390600052602060002001600090919091909150557f6b905965000bb5754f6810e4d8a383a339c59b8ffe0680d4e1af63aca2da215582856040516109429291906117ba565b60405180910390a150505050565b600060205280600052604060002060009150905080600001549080600101805461097990611aa9565b80601f01602080910402602001604051908101604052809291908181526020018280546109a590611aa9565b80156109f25780601f106109c7576101008083540402835291602001916109f2565b820191906000526020600020905b8154815290600101906020018083116109d557829003601f168201915b5050505050905082565b600080600084815260200190815260200160002090506000805b8260020180549050811015610c48578373ffffffffffffffffffffffffffffffffffffffff16836002018281548110610a78577f4e487b7100000000000000000000000000000000000000000000000000000000600052603260045260246000fd5b9060005260206000200160009054906101000a900473ffffffffffffffffffffffffffffffffffffffff1673ffffffffffffffffffffffffffffffffffffffff161415610c35578260020160018460020180549050610ad791906119f7565b81548110610b0e577f4e487b7100000000000000000000000000000000000000000000000000000000600052603260045260246000fd5b9060005260206000200160009054906101000a900473ffffffffffffffffffffffffffffffffffffffff16836002018281548110610b75577f4e487b7100000000000000000000000000000000000000000000000000000000600052603260045260246000fd5b9060005260206000200160006101000a81548173ffffffffffffffffffffffffffffffffffffffff021916908373ffffffffffffffffffffffffffffffffffffffff16021790555082600201805480610bf7577f4e487b7100000000000000000000000000000000000000000000000000000000600052603160045260246000fd5b6001900381819060005260206000200160006101000a81549073ffffffffffffffffffffffffffffffffffffffff0219169055905560019150610c48565b8080610c4090611adb565b915050610a16565b5080610c89576040517f08c379a0000000000000000000000000000000000000000000000000000000008152600401610c8090611716565b60405180910390fd5b7f125883b94692baebecad9f111ed97ffa626523bbbadc6b0ef85ee1b56b9e52d58484604051610cba929190611791565b60405180910390a150505050565b6000606080600060018054905090506000811415610d34576000604051806020016040528060008152506040518060400160405280601081526020017f4e6f207265636f72647320666f756e6400000000000000000000000000000000815250935093509350506110fc565b610d3c611189565b6000805b83811015610f52578760008060018481548110610d86577f4e487b7100000000000000000000000000000000000000000000000000000000600052603260045260246000fd5b90600052602060002001548152602001908152602001600020600001541415610f3f5760008060018381548110610de6577f4e487b7100000000000000000000000000000000000000000000000000000000600052603260045260246000fd5b9060005260206000200154815260200190815260200160002060405180606001604052908160008201548152602001600182018054610e2490611aa9565b80601f0160208091040260200160405190810160405280929190818152602001828054610e5090611aa9565b8015610e9d5780601f10610e7257610100808354040283529160200191610e9d565b820191906000526020600020905b815481529060010190602001808311610e8057829003601f168201915b5050505050815260200160028201805480602002602001604051908101604052809291908181526020018280548015610f2b57602002820191906000526020600020905b8160009054906101000a900473ffffffffffffffffffffffffffffffffffffffff1673ffffffffffffffffffffffffffffffffffffffff1681526020019060010190808311610ee1575b505050505081525050925060019150610f52565b8080610f4a90611adb565b915050610d40565b5080610fae576000604051806020016040528060008152506040518060400160405280601181526020017f50617469656e74206e6f7420666f756e640000000000000000000000000000008152509550955095505050506110fc565b6000805b836040015151811015611053573373ffffffffffffffffffffffffffffffffffffffff1684604001518281518110611013577f4e487b7100000000000000000000000000000000000000000000000000000000600052603260045260246000fd5b602002602001015173ffffffffffffffffffffffffffffffffffffffff1614156110405760019150611053565b808061104b90611adb565b915050610fb2565b5080156110a957826000015183602001516040518060400160405280600e81526020017f416363657373206772616e746564000000000000000000000000000000000000815250965096509650505050506110fc565b6000604051806020016040528060008152506040518060400160405280601381526020017f556e617574686f72697a65642061636365737300000000000000000000000000815250965096509650505050505b9193909250565b82805461110f90611aa9565b90600052602060002090601f0160209004810192826111315760008555611178565b82601f1061114a57805160ff1916838001178555611178565b82800160010185558215611178579182015b8281111561117757825182559160200191906001019061115c565b5b50905061118591906111aa565b5090565b60405180606001604052806000815260200160608152602001606081525090565b5b808211156111c35760008160009055506001016111ab565b5090565b60006111da6111d584611860565b61182f565b9050828152602081018484840111156111f257600080fd5b6111fd848285611a67565b509392505050565b60008135905061121481611bc2565b92915050565b600082601f83011261122b57600080fd5b813561123b8482602086016111c7565b91505092915050565b60008135905061125381611bd9565b92915050565b6000806040838503121561126c57600080fd5b600083013567ffffffffffffffff81111561128657600080fd5b6112928582860161121a565b92505060206112a385828601611205565b9150509250929050565b6000602082840312156112bf57600080fd5b60006112cd84828501611244565b91505092915050565b600080604083850312156112e957600080fd5b60006112f785828601611244565b925050602061130885828601611205565b9150509250929050565b600061131e838361136a565b60208301905092915050565b60006113368383611388565b905092915050565b600061134a838361152e565b905092915050565b600061135e83836116ac565b60208301905092915050565b61137381611a2b565b82525050565b61138281611a2b565b82525050565b6000611393826118d0565b61139d818561193b565b93506113a883611890565b8060005b838110156113d95781516113c08882611312565b97506113cb83611907565b9250506001810190506113ac565b5085935050505092915050565b60006113f1826118db565b6113fb818561194c565b93508360208202850161140d856118a0565b8060005b85811015611449578484038952815161142a858261132a565b945061143583611914565b925060208a01995050600181019050611411565b50829750879550505050505092915050565b6000611466826118e6565b611470818561195d565b935083602082028501611482856118b0565b8060005b858110156114be578484038952815161149f858261133e565b94506114aa83611921565b925060208a01995050600181019050611486565b50829750879550505050505092915050565b60006114db826118f1565b6114e5818561196e565b93506114f0836118c0565b8060005b838110156115215781516115088882611352565b97506115138361192e565b9250506001810190506114f4565b5085935050505092915050565b6000611539826118fc565b611543818561197f565b9350611553818560208601611a76565b61155c81611bb1565b840191505092915050565b6000611572826118fc565b61157c8185611990565b935061158c818560208601611a76565b61159581611bb1565b840191505092915050565b60006115ad602583611990565b91507f41646472657373206e6f7420666f756e6420696e20746865206163636573732060008301527f6c6973742e0000000000000000000000000000000000000000000000000000006020830152604082019050919050565b6000611613602083611990565b91507f54686973206164647265737320616c726561647920686173206163636573732e6000830152602082019050919050565b6000611653603783611990565b91507f496e76616c696420616464726573733a2043616e6e6f74206772616e7420616360008301527f6365737320746f2061207a65726f20616464726573732e0000000000000000006020830152604082019050919050565b6116b581611a5d565b82525050565b6116c481611a5d565b82525050565b600060608201905081810360008301526116e481866114d0565b905081810360208301526116f8818561145b565b9050818103604083015261170c81846113e6565b9050949350505050565b6000602082019050818103600083015261172f816115a0565b9050919050565b6000602082019050818103600083015261174f81611606565b9050919050565b6000602082019050818103600083015261176f81611646565b9050919050565b600060208201905061178b60008301846116bb565b92915050565b60006040820190506117a660008301856116bb565b6117b36020830184611379565b9392505050565b60006040820190506117cf60008301856116bb565b81810360208301526117e18184611567565b90509392505050565b60006060820190506117ff60008301866116bb565b81810360208301526118118185611567565b905081810360408301526118258184611567565b9050949350505050565b6000604051905081810181811067ffffffffffffffff8211171561185657611855611b82565b5b8060405250919050565b600067ffffffffffffffff82111561187b5761187a611b82565b5b601f19601f8301169050602081019050919050565b6000819050602082019050919050565b6000819050602082019050919050565b6000819050602082019050919050565b6000819050602082019050919050565b600081519050919050565b600081519050919050565b600081519050919050565b600081519050919050565b600081519050919050565b6000602082019050919050565b6000602082019050919050565b6000602082019050919050565b6000602082019050919050565b600082825260208201905092915050565b600082825260208201905092915050565b600082825260208201905092915050565b600082825260208201905092915050565b600082825260208201905092915050565b600082825260208201905092915050565b60006119ac82611a5d565b91506119b783611a5d565b9250827fffffffffffffffffffffffffffffffffffffffffffffffffffffffffffffffff038211156119ec576119eb611b24565b5b828201905092915050565b6000611a0282611a5d565b9150611a0d83611a5d565b925082821015611a2057611a1f611b24565b5b828203905092915050565b6000611a3682611a3d565b9050919050565b600073ffffffffffffffffffffffffffffffffffffffff82169050919050565b6000819050919050565b82818337600083830152505050565b60005b83811015611a94578082015181840152602081019050611a79565b83811115611aa3576000848401525b50505050565b60006002820490506001821680611ac157607f821691505b60208210811415611ad557611ad4611b53565b5b50919050565b6000611ae682611a5d565b91507fffffffffffffffffffffffffffffffffffffffffffffffffffffffffffffffff821415611b1957611b18611b24565b5b600182019050919050565b7f4e487b7100000000000000000000000000000000000000000000000000000000600052601160045260246000fd5b7f4e487b7100000000000000000000000000000000000000000000000000000000600052602260045260246000fd5b7f4e487b7100000000000000000000000000000000000000000000000000000000600052604160045260246000fd5b6000601f19601f8301169050919050565b611bcb81611a2b565b8114611bd657600080fd5b50565b611be281611a5d565b8114611bed57600080fd5b5056fea26469706673582212203feb8b703b094dba3a57ddb24303d6ec40b466b91e79fbafe85a3b69cb73aa9464736f6c63430008000033",
  "immutableReferences": {},
  "source": "// SPDX-License-Identifier: MIT\npragma solidity ^0.8.0;\n\ncontract PatientRecords {\n    struct Patient {\n        uint patientID;\n        string cid; // Store CID instead of detailed patient data\n        address[] accessGranted; // List of addresses that have access\n    }\n\n    mapping(uint => Patient) public patients;\n    uint[] public patientIDs;\n\n    event PatientAdded(uint patientID, string cid);\n    event AccessGranted(uint indexed patientID, address indexed newAddress);\n    event AccessRevoked(uint patientID, address revokedAddress);\n\n\n    // Add patient data with CID and manage access rights\n    function addPatient(\n        string memory _cid,\n        address _insuranceCompanyAddress\n    ) public {\n\n        uint newPatientID = patientIDs.length > 0 ? patientIDs[patientIDs.length - 1] + 1 : 1;\n        \n        Patient storage newPatient = patients[newPatientID];\n\n        // Initialize the Patient fields\n        newPatient.patientID = newPatientID;\n        newPatient.cid = _cid;\n        \n        // Create and populate the accessGranted array in storage\n        newPatient.accessGranted.push(msg.sender);               // Add the sender's address\n        newPatient.accessGranted.push(_insuranceCompanyAddress); // Add the insurance company's address\n\n        // Add patientID to the list of IDs\n        patientIDs.push(newPatientID);\n\n        emit PatientAdded(newPatientID, _cid);\n\n        \n    }\n\n    function getAllPatients()\n        public\n        view\n        returns (\n            uint[] memory patientIDsList,\n            string[] memory cids,\n            address[][] memory accessGrantedLists\n        )\n    {   \n        uint length = patientIDs.length;\n\n        // Create memory arrays for each patient property\n        string[] memory _cids = new string[](length);\n        address[][] memory _accessGrantedLists = new address[][](length);  // Array of arrays\n\n        for (uint i = 0; i < length; i++) {\n            uint patientID = patientIDs[i];\n            Patient storage patient = patients[patientID];\n\n            // Populate memory arrays with patient data\n            _cids[i] = patient.cid;\n            _accessGrantedLists[i] = patient.accessGranted;  // Store dynamic access list\n        }\n        \n        // Return patient IDs, CIDs, and accessGranted lists\n        return (\n            patientIDs,\n            _cids,\n            _accessGrantedLists\n        );\n    }\n\n\n    function getPatientByID(uint _patientID)\n        public\n        view\n        returns (\n            uint patientID,\n            string memory cid,\n            string memory status\n        )\n    {\n        uint length = patientIDs.length;\n\n        // Check if there are no patient records\n        if (length == 0) {\n            return (0, \"\", \"No records found\");\n        }\n\n        Patient memory patient;\n        bool found = false;\n\n        // Find the patient by the provided patientID\n        for (uint i = 0; i < length; i++) {\n            if (patients[patientIDs[i]].patientID == _patientID) {\n                patient = patients[patientIDs[i]];\n                found = true;\n                break;\n            }\n        }\n\n        // Check if the patient was found\n        if (!found) {\n            return (0, \"\", \"Patient not found\");\n        }\n\n        // Check if msg.sender is in the accessGranted array\n        bool accessGranted = false;\n        for (uint j = 0; j < patient.accessGranted.length; j++) {\n            if (patient.accessGranted[j] == msg.sender) {\n                accessGranted = true;\n                break;\n            }\n        }\n\n        // If access is granted, return the patientID and CID\n        if (accessGranted) {\n            return (\n                patient.patientID,\n                patient.cid,\n                \"Access granted\"\n            );\n        } else {\n            return (0, \"\", \"Unauthorized access\");\n        }\n    }\n\n    function grantAccess(uint _patientID, address _addressToGrant) public {\n        // Get the patient record for the patient granting access\n        Patient storage patient = patients[_patientID];\n\n        // Only the patient can grant access\n        // require(\n        //     msg.sender == patient.patientAddress,\n        //     \"Unauthorized: Only the patient can grant access.\"\n        // );\n        \n        // Check if the address to grant access is valid\n        require(\n            _addressToGrant != address(0),\n            \"Invalid address: Cannot grant access to a zero address.\"\n        );\n\n        // Check if the address is already in the accessGranted list\n        bool alreadyHasAccess = false;\n        for (uint i = 0; i < patient.accessGranted.length; i++){\n            if (patient.accessGranted[i] == _addressToGrant){\n                alreadyHasAccess = true;\n                break;\n            }\n        }\n\n        require(\n            !alreadyHasAccess,\n            \"This address already has access.\"\n        );\n\n        // Add the new address to the accessGranted list\n        patient.accessGranted.push(_addressToGrant);\n\n        // Emit event for granted access\n        emit AccessGranted(_patientID, _addressToGrant);\n    }\n  \n\n    function revokeAccess(uint _patientID, address _addressToRevoke) public {\n        // Get the patient record for the patient revoking access\n        Patient storage patient = patients[_patientID];\n\n        // Only the patient can revoke access\n        // require(\n        //     msg.sender == patient.patientAddress,\n        //     \"Unauthorized: Only the patient can revoke access.\"\n        // );\n\n        // Check if the address to revoke exists in the accessGranted list\n        bool addressFound = false;\n        for (uint i = 0; i < patient.accessGranted.length; i++) {\n            if (patient.accessGranted[i] == _addressToRevoke) {\n                // Remove the address by shifting the last element to the current position and reducing the array size\n                patient.accessGranted[i] = patient.accessGranted[patient.accessGranted.length - 1];\n                patient.accessGranted.pop();\n                addressFound = true;\n                break;\n            }\n        }\n\n        // If the address was not found in the list\n        require(addressFound, \"Address not found in the access list.\");\n\n        // Emit an event for revoking access\n        emit AccessRevoked(_patientID, _addressToRevoke);\n    }\n\n}\n\n//     function updateInsuranceCompany(\n//         uint _patientID,\n//         string memory _newInsuranceCompany,\n//         address _newInsuranceCompanyAddress\n//     ) public {\n//         Patient storage patient = patients[_patientID];\n\n//         // Allow update only if the caller is the patient\n//         require(\n//             msg.sender == patient.patientAddress,\n//             \"Unauthorized: Only the patient can update this record.\"\n//         );\n\n//         string memory oldInsuranceCompany = patient.insuranceCompany;\n//         address oldInsuranceCompanyAddress = patient.insuranceCompanyAddress;\n\n//         // Update the insurance company details\n//         patient.insuranceCompany = _newInsuranceCompany;\n//         patient.insuranceCompanyAddress = _newInsuranceCompanyAddress;\n\n//         // Replace old insurance company address in the accessGranted array with the new address\n//         bool replaced = false;\n//         for (uint i = 0; i < patient.accessGranted.length; i++) {\n//             if (patient.accessGranted[i] == oldInsuranceCompanyAddress) {\n//                 patient.accessGranted[i] = _newInsuranceCompanyAddress;\n//                 replaced = true;\n//                 break;\n//             }\n//         }\n\n//         // If the old insurance company address was not found in the array, add the new address\n//         if (!replaced) {\n//             patient.accessGranted.push(_newInsuranceCompanyAddress);\n//         }\n\n//         emit InsuranceCompanyUpdated(\n//             _patientID,\n//             oldInsuranceCompany,\n//             oldInsuranceCompanyAddress,\n//             _newInsuranceCompany,\n//             _newInsuranceCompanyAddress\n//         );\n//     }\n\n//     function deleteInsuranceCompany(uint _patientID) public {\n//         Patient storage patient = patients[_patientID];\n\n//         // Allow deletion only if the caller is the patient\n//         require(\n//             msg.sender == patient.patientAddress,\n//             \"Unauthorized: Only the patient can delete the insurance company.\"\n//         );\n\n//         string memory oldInsuranceCompany = patient.insuranceCompany;\n//         address oldInsuranceCompanyAddress = patient.insuranceCompanyAddress;\n\n//         // Reset the insurance company details\n//         patient.insuranceCompany = \"\";\n//         patient.insuranceCompanyAddress = address(0);\n\n//         // Revoke access by removing the old insurance company address from the accessGranted array\n//         for (uint i = 0; i < patient.accessGranted.length; i++) {\n//             if (patient.accessGranted[i] == oldInsuranceCompanyAddress) {\n//                 // Remove the address by shifting the elements in the array\n//                 for (uint j = i; j < patient.accessGranted.length - 1; j++) {\n//                     patient.accessGranted[j] = patient.accessGranted[j + 1];\n//                 }\n//                 patient.accessGranted.pop(); // Reduce the array length\n//                 break; // Exit the loop once the insurance company address is found and removed\n//             }\n//         }\n\n//         emit InsuranceCompanyDeleted(_patientID, oldInsuranceCompany, oldInsuranceCompanyAddress);\n//     }\n\n//     function getPatientsByInsuranceCompany()\n//         public\n//         view\n//         returns (\n//             uint[] memory patientIDsList,\n//             Patient[] memory patientList\n//         )\n//     {\n//         address insuranceCompanyAddress = msg.sender;\n//         uint length = patientIDs.length;\n//         uint count = 0;\n\n//         // First, count how many patients have granted access to the caller (insurance company)\n//         for (uint i = 0; i < length; i++) {\n//             Patient memory patient = patients[patientIDs[i]];\n//             for (uint j = 0; j < patient.accessGranted.length; j++) {\n//                 if (patient.accessGranted[j] == insuranceCompanyAddress) {\n//                     count++;\n//                     break; // Break once the address is found\n//                 }\n//             }\n//         }\n\n//         // Create arrays to hold the results\n//         uint[] memory ids = new uint[](count);\n//         Patient[] memory patientsList = new Patient[](count);\n\n//         uint index = 0;\n//         for (uint i = 0; i < length; i++) {\n//             Patient memory patient = patients[patientIDs[i]];\n//             for (uint j = 0; j < patient.accessGranted.length; j++) {\n//                 if (patient.accessGranted[j] == insuranceCompanyAddress) {\n//                     ids[index] = patientIDs[i];\n//                     patientsList[index] = patient;\n//                     index++;\n//                     break; // Break once the address is found\n//                 }\n//             }\n//         }\n\n//         return (ids, patientsList);\n//     }\n\n",
  "sourcePath": "C:\\Users\\Sarthak\\Desktop\\BlockchainProjects\\EHR_Management\\v.0.1_PatientRecords\\contracts\\PatientRecords.sol",
  "compiler": {
    "name": "solc",
    "version": "0.8.0+commit.c7dfd78e.Emscripten.clang"
  },
  "schemaVersion": "3.4.16",
  "updatedAt": "2024-09-15T09:55:32.575Z",
  "networkType": "ethereum",
  "devdoc": {
    "kind": "dev",
    "methods": {},
    "version": 1
  },
  "userdoc": {
    "kind": "user",
    "methods": {},
    "version": 1
  }
}