{
  "contractName": "PatientRecords",
  "abi": [
    {
      "anonymous": false,
      "inputs": [
        {
          "indexed": true,
          "internalType": "uint256",
          "name": "patientID",
          "type": "uint256"
        },
        {
          "indexed": true,
          "internalType": "address",
          "name": "newAddress",
          "type": "address"
        }
      ],
      "name": "AccessGranted",
      "type": "event"
    },
    {
      "anonymous": false,
      "inputs": [
        {
          "indexed": false,
          "internalType": "uint256",
          "name": "patientID",
          "type": "uint256"
        },
        {
          "indexed": false,
          "internalType": "address",
          "name": "revokedAddress",
          "type": "address"
        }
      ],
      "name": "AccessRevoked",
      "type": "event"
    },
    {
      "anonymous": false,
      "inputs": [
        {
          "indexed": true,
          "internalType": "uint256",
          "name": "patientID",
          "type": "uint256"
        },
        {
          "indexed": true,
          "internalType": "address",
          "name": "oldInsuranceCompanyAddress",
          "type": "address"
        },
        {
          "indexed": true,
          "internalType": "address",
          "name": "newInsuranceCompanyAddress",
          "type": "address"
        },
        {
          "indexed": false,
          "internalType": "string",
          "name": "cid",
          "type": "string"
        }
      ],
      "name": "InsuranceCompanyUpdated",
      "type": "event"
    },
    {
      "anonymous": false,
      "inputs": [
        {
          "indexed": false,
          "internalType": "uint256",
          "name": "patientID",
          "type": "uint256"
        },
        {
          "indexed": false,
          "internalType": "string",
          "name": "cid",
          "type": "string"
        }
      ],
      "name": "PatientAdded",
      "type": "event"
    },
    {
      "inputs": [
        {
          "internalType": "uint256",
          "name": "",
          "type": "uint256"
        }
      ],
      "name": "patientIDs",
      "outputs": [
        {
          "internalType": "uint256",
          "name": "",
          "type": "uint256"
        }
      ],
      "stateMutability": "view",
      "type": "function",
      "constant": true
    },
    {
      "inputs": [
        {
          "internalType": "uint256",
          "name": "",
          "type": "uint256"
        }
      ],
      "name": "patients",
      "outputs": [
        {
          "internalType": "uint256",
          "name": "patientID",
          "type": "uint256"
        },
        {
          "internalType": "string",
          "name": "cid",
          "type": "string"
        }
      ],
      "stateMutability": "view",
      "type": "function",
      "constant": true
    },
    {
      "inputs": [
        {
          "internalType": "string",
          "name": "_cid",
          "type": "string"
        },
        {
          "internalType": "address",
          "name": "_insuranceCompanyAddress",
          "type": "address"
        }
      ],
      "name": "addPatient",
      "outputs": [],
      "stateMutability": "nonpayable",
      "type": "function"
    },
    {
      "inputs": [],
      "name": "getAllPatients",
      "outputs": [
        {
          "internalType": "uint256[]",
          "name": "patientIDsList",
          "type": "uint256[]"
        },
        {
          "internalType": "string[]",
          "name": "cids",
          "type": "string[]"
        },
        {
          "internalType": "address[][]",
          "name": "accessGrantedLists",
          "type": "address[][]"
        }
      ],
      "stateMutability": "view",
      "type": "function",
      "constant": true
    },
    {
      "inputs": [
        {
          "internalType": "uint256",
          "name": "_patientID",
          "type": "uint256"
        }
      ],
      "name": "getPatientByID",
      "outputs": [
        {
          "internalType": "uint256",
          "name": "patientID",
          "type": "uint256"
        },
        {
          "internalType": "string",
          "name": "cid",
          "type": "string"
        },
        {
          "internalType": "string",
          "name": "status",
          "type": "string"
        }
      ],
      "stateMutability": "view",
      "type": "function",
      "constant": true
    },
    {
      "inputs": [
        {
          "internalType": "uint256",
          "name": "_patientID",
          "type": "uint256"
        },
        {
          "internalType": "address",
          "name": "_addressToGrant",
          "type": "address"
        }
      ],
      "name": "grantAccess",
      "outputs": [],
      "stateMutability": "nonpayable",
      "type": "function"
    },
    {
      "inputs": [
        {
          "internalType": "uint256",
          "name": "_patientID",
          "type": "uint256"
        },
        {
          "internalType": "address",
          "name": "_addressToRevoke",
          "type": "address"
        }
      ],
      "name": "revokeAccess",
      "outputs": [],
      "stateMutability": "nonpayable",
      "type": "function"
    },
    {
      "inputs": [
        {
          "internalType": "uint256",
          "name": "_patientID",
          "type": "uint256"
        },
        {
          "internalType": "address",
          "name": "_newInsuranceCompanyAddress",
          "type": "address"
        },
        {
          "internalType": "address",
          "name": "_oldInsuranceCompanyAddress",
          "type": "address"
        },
        {
          "internalType": "string",
          "name": "_cid",
          "type": "string"
        }
      ],
      "name": "updateInsuranceCompany",
      "outputs": [],
      "stateMutability": "nonpayable",
      "type": "function"
    }
  ],
  "bytecode": "0x608060405234801561001057600080fd5b50611f28806100206000396000f3fe608060405234801561001057600080fd5b50600436106100885760003560e01c806393119a831161005b57806393119a8314610115578063d9a5ec1b14610146578063deb6979214610162578063f1f761a91461017e57610088565b806318a231a91461008d57806365dd152c146100ad5780637fb8998f146100c95780638bd87475146100f9575b600080fd5b6100956101b0565b6040516100a4939291906119aa565b60405180910390f35b6100c760048036038101906100c2919061153b565b610531565b005b6100e360048036038101906100de9190611512565b610771565b6040516100f09190611a78565b60405180910390f35b610113600480360381019061010e91906114be565b610795565b005b61012f600480360381019061012a9190611512565b610977565b60405161013d929190611abc565b60405180910390f35b610160600480360381019061015b919061153b565b610a23565b005b61017c60048036038101906101779190611577565b610cef565b005b61019860048036038101906101939190611512565b610f2d565b6040516101a793929190611aec565b60405180910390f35b60608060606000600180549050905060008167ffffffffffffffff811115610201577f4e487b7100000000000000000000000000000000000000000000000000000000600052604160045260246000fd5b60405190808252806020026020018201604052801561023457816020015b606081526020019060019003908161021f5790505b50905060008267ffffffffffffffff811115610279577f4e487b7100000000000000000000000000000000000000000000000000000000600052604160045260246000fd5b6040519080825280602002602001820160405280156102ac57816020015b60608152602001906001900390816102975790505b50905060005b838110156104cc576000600182815481106102f6577f4e487b7100000000000000000000000000000000000000000000000000000000600052603260045260246000fd5b906000526020600020015490506000806000838152602001908152602001600020905080600101805461032890611dab565b80601f016020809104026020016040519081016040528092919081815260200182805461035490611dab565b80156103a15780601f10610376576101008083540402835291602001916103a1565b820191906000526020600020905b81548152906001019060200180831161038457829003601f168201915b50505050508584815181106103df577f4e487b7100000000000000000000000000000000000000000000000000000000600052603260045260246000fd5b60200260200101819052508060020180548060200260200160405190810160405280929190818152602001828054801561046e57602002820191906000526020600020905b8160009054906101000a900473ffffffffffffffffffffffffffffffffffffffff1673ffffffffffffffffffffffffffffffffffffffff1681526020019060010190808311610424575b50505050508484815181106104ac577f4e487b7100000000000000000000000000000000000000000000000000000000600052603260045260246000fd5b6020026020010181905250505080806104c490611ddd565b9150506102b2565b50600182828280548060200260200160405190810160405280929190818152602001828054801561051c57602002820191906000526020600020905b815481526020019060010190808311610508575b50505050509250955095509550505050909192565b60008060008481526020019081526020016000209050600073ffffffffffffffffffffffffffffffffffffffff168273ffffffffffffffffffffffffffffffffffffffff1614156105b7576040517f08c379a00000000000000000000000000000000000000000000000000000000081526004016105ae90611a58565b60405180910390fd5b6000805b8260020180549050811015610680578373ffffffffffffffffffffffffffffffffffffffff1683600201828154811061061d577f4e487b7100000000000000000000000000000000000000000000000000000000600052603260045260246000fd5b9060005260206000200160009054906101000a900473ffffffffffffffffffffffffffffffffffffffff1673ffffffffffffffffffffffffffffffffffffffff16141561066d5760019150610680565b808061067890611ddd565b9150506105bb565b5080156106c2576040517f08c379a00000000000000000000000000000000000000000000000000000000081526004016106b990611a38565b60405180910390fd5b81600201839080600181540180825580915050600190039060005260206000200160009091909190916101000a81548173ffffffffffffffffffffffffffffffffffffffff021916908373ffffffffffffffffffffffffffffffffffffffff1602179055508273ffffffffffffffffffffffffffffffffffffffff16847f3c3a9147a1fc73dd51a32f4d10c43d457e8cb826eb6f35cac6349eb965ba82b460405160405180910390a350505050565b6001818154811061078157600080fd5b906000526020600020016000915090505481565b600080600180549050116107aa57600161080b565b600180600180805490506107be9190611cf9565b815481106107f5577f4e487b7100000000000000000000000000000000000000000000000000000000600052603260045260246000fd5b906000526020600020015461080a9190611ca3565b5b90506000806000838152602001908152602001600020905081816000018190555083816001019080519060200190610844929190611368565b5080600201339080600181540180825580915050600190039060005260206000200160009091909190916101000a81548173ffffffffffffffffffffffffffffffffffffffff021916908373ffffffffffffffffffffffffffffffffffffffff16021790555080600201839080600181540180825580915050600190039060005260206000200160009091909190916101000a81548173ffffffffffffffffffffffffffffffffffffffff021916908373ffffffffffffffffffffffffffffffffffffffff16021790555060018290806001815401808255809150506001900390600052602060002001600090919091909150557f6b905965000bb5754f6810e4d8a383a339c59b8ffe0680d4e1af63aca2da21558285604051610969929190611abc565b60405180910390a150505050565b60006020528060005260406000206000915090508060000154908060010180546109a090611dab565b80601f01602080910402602001604051908101604052809291908181526020018280546109cc90611dab565b8015610a195780601f106109ee57610100808354040283529160200191610a19565b820191906000526020600020905b8154815290600101906020018083116109fc57829003601f168201915b5050505050905082565b600080600084815260200190815260200160002090506000805b8260020180549050811015610c6f578373ffffffffffffffffffffffffffffffffffffffff16836002018281548110610a9f577f4e487b7100000000000000000000000000000000000000000000000000000000600052603260045260246000fd5b9060005260206000200160009054906101000a900473ffffffffffffffffffffffffffffffffffffffff1673ffffffffffffffffffffffffffffffffffffffff161415610c5c578260020160018460020180549050610afe9190611cf9565b81548110610b35577f4e487b7100000000000000000000000000000000000000000000000000000000600052603260045260246000fd5b9060005260206000200160009054906101000a900473ffffffffffffffffffffffffffffffffffffffff16836002018281548110610b9c577f4e487b7100000000000000000000000000000000000000000000000000000000600052603260045260246000fd5b9060005260206000200160006101000a81548173ffffffffffffffffffffffffffffffffffffffff021916908373ffffffffffffffffffffffffffffffffffffffff16021790555082600201805480610c1e577f4e487b7100000000000000000000000000000000000000000000000000000000600052603160045260246000fd5b6001900381819060005260206000200160006101000a81549073ffffffffffffffffffffffffffffffffffffffff0219169055905560019150610c6f565b8080610c6790611ddd565b915050610a3d565b5080610cb0576040517f08c379a0000000000000000000000000000000000000000000000000000000008152600401610ca790611a18565b60405180910390fd5b7f125883b94692baebecad9f111ed97ffa626523bbbadc6b0ef85ee1b56b9e52d58484604051610ce1929190611a93565b60405180910390a150505050565b600080600086815260200190815260200160002090506000805b8260020180549050811015610e53578473ffffffffffffffffffffffffffffffffffffffff16836002018281548110610d6b577f4e487b7100000000000000000000000000000000000000000000000000000000600052603260045260246000fd5b9060005260206000200160009054906101000a900473ffffffffffffffffffffffffffffffffffffffff1673ffffffffffffffffffffffffffffffffffffffff161415610e405785836002018281548110610def577f4e487b7100000000000000000000000000000000000000000000000000000000600052603260045260246000fd5b9060005260206000200160006101000a81548173ffffffffffffffffffffffffffffffffffffffff021916908373ffffffffffffffffffffffffffffffffffffffff16021790555060019150610e53565b8080610e4b90611ddd565b915050610d09565b5080610ebf5781600201859080600181540180825580915050600190039060005260206000200160009091909190916101000a81548173ffffffffffffffffffffffffffffffffffffffff021916908373ffffffffffffffffffffffffffffffffffffffff1602179055505b8473ffffffffffffffffffffffffffffffffffffffff168473ffffffffffffffffffffffffffffffffffffffff16877f7ebc5e5944d414b490b106861d61ca8fc5749ef62f6432c3f0c37581dbb7f15e86604051610f1d91906119f6565b60405180910390a4505050505050565b6000606080600060018054905090506000811415610f99576000604051806020016040528060008152506040518060400160405280601081526020017f4e6f207265636f72647320666f756e640000000000000000000000000000000081525093509350935050611361565b610fa16113ee565b6000805b838110156111b7578760008060018481548110610feb577f4e487b7100000000000000000000000000000000000000000000000000000000600052603260045260246000fd5b906000526020600020015481526020019081526020016000206000015414156111a4576000806001838154811061104b577f4e487b7100000000000000000000000000000000000000000000000000000000600052603260045260246000fd5b906000526020600020015481526020019081526020016000206040518060600160405290816000820154815260200160018201805461108990611dab565b80601f01602080910402602001604051908101604052809291908181526020018280546110b590611dab565b80156111025780601f106110d757610100808354040283529160200191611102565b820191906000526020600020905b8154815290600101906020018083116110e557829003601f168201915b505050505081526020016002820180548060200260200160405190810160405280929190818152602001828054801561119057602002820191906000526020600020905b8160009054906101000a900473ffffffffffffffffffffffffffffffffffffffff1673ffffffffffffffffffffffffffffffffffffffff1681526020019060010190808311611146575b5050505050815250509250600191506111b7565b80806111af90611ddd565b915050610fa5565b5080611213576000604051806020016040528060008152506040518060400160405280601181526020017f50617469656e74206e6f7420666f756e64000000000000000000000000000000815250955095509550505050611361565b6000805b8360400151518110156112b8573373ffffffffffffffffffffffffffffffffffffffff1684604001518281518110611278577f4e487b7100000000000000000000000000000000000000000000000000000000600052603260045260246000fd5b602002602001015173ffffffffffffffffffffffffffffffffffffffff1614156112a557600191506112b8565b80806112b090611ddd565b915050611217565b50801561130e57826000015183602001516040518060400160405280600e81526020017f416363657373206772616e74656400000000000000000000000000000000000081525096509650965050505050611361565b6000604051806020016040528060008152506040518060400160405280601381526020017f556e617574686f72697a65642061636365737300000000000000000000000000815250965096509650505050505b9193909250565b82805461137490611dab565b90600052602060002090601f01602090048101928261139657600085556113dd565b82601f106113af57805160ff19168380011785556113dd565b828001600101855582156113dd579182015b828111156113dc5782518255916020019190600101906113c1565b5b5090506113ea919061140f565b5090565b60405180606001604052806000815260200160608152602001606081525090565b5b80821115611428576000816000905550600101611410565b5090565b600061143f61143a84611b62565b611b31565b90508281526020810184848401111561145757600080fd5b611462848285611d69565b509392505050565b60008135905061147981611ec4565b92915050565b600082601f83011261149057600080fd5b81356114a084826020860161142c565b91505092915050565b6000813590506114b881611edb565b92915050565b600080604083850312156114d157600080fd5b600083013567ffffffffffffffff8111156114eb57600080fd5b6114f78582860161147f565b92505060206115088582860161146a565b9150509250929050565b60006020828403121561152457600080fd5b6000611532848285016114a9565b91505092915050565b6000806040838503121561154e57600080fd5b600061155c858286016114a9565b925050602061156d8582860161146a565b9150509250929050565b6000806000806080858703121561158d57600080fd5b600061159b878288016114a9565b94505060206115ac8782880161146a565b93505060406115bd8782880161146a565b925050606085013567ffffffffffffffff8111156115da57600080fd5b6115e68782880161147f565b91505092959194509250565b60006115fe838361164a565b60208301905092915050565b60006116168383611668565b905092915050565b600061162a838361180e565b905092915050565b600061163e838361198c565b60208301905092915050565b61165381611d2d565b82525050565b61166281611d2d565b82525050565b600061167382611bd2565b61167d8185611c3d565b935061168883611b92565b8060005b838110156116b95781516116a088826115f2565b97506116ab83611c09565b92505060018101905061168c565b5085935050505092915050565b60006116d182611bdd565b6116db8185611c4e565b9350836020820285016116ed85611ba2565b8060005b85811015611729578484038952815161170a858261160a565b945061171583611c16565b925060208a019950506001810190506116f1565b50829750879550505050505092915050565b600061174682611be8565b6117508185611c5f565b93508360208202850161176285611bb2565b8060005b8581101561179e578484038952815161177f858261161e565b945061178a83611c23565b925060208a01995050600181019050611766565b50829750879550505050505092915050565b60006117bb82611bf3565b6117c58185611c70565b93506117d083611bc2565b8060005b838110156118015781516117e88882611632565b97506117f383611c30565b9250506001810190506117d4565b5085935050505092915050565b600061181982611bfe565b6118238185611c81565b9350611833818560208601611d78565b61183c81611eb3565b840191505092915050565b600061185282611bfe565b61185c8185611c92565b935061186c818560208601611d78565b61187581611eb3565b840191505092915050565b600061188d602583611c92565b91507f41646472657373206e6f7420666f756e6420696e20746865206163636573732060008301527f6c6973742e0000000000000000000000000000000000000000000000000000006020830152604082019050919050565b60006118f3602083611c92565b91507f54686973206164647265737320616c726561647920686173206163636573732e6000830152602082019050919050565b6000611933603783611c92565b91507f496e76616c696420616464726573733a2043616e6e6f74206772616e7420616360008301527f6365737320746f2061207a65726f20616464726573732e0000000000000000006020830152604082019050919050565b61199581611d5f565b82525050565b6119a481611d5f565b82525050565b600060608201905081810360008301526119c481866117b0565b905081810360208301526119d8818561173b565b905081810360408301526119ec81846116c6565b9050949350505050565b60006020820190508181036000830152611a108184611847565b905092915050565b60006020820190508181036000830152611a3181611880565b9050919050565b60006020820190508181036000830152611a51816118e6565b9050919050565b60006020820190508181036000830152611a7181611926565b9050919050565b6000602082019050611a8d600083018461199b565b92915050565b6000604082019050611aa8600083018561199b565b611ab56020830184611659565b9392505050565b6000604082019050611ad1600083018561199b565b8181036020830152611ae38184611847565b90509392505050565b6000606082019050611b01600083018661199b565b8181036020830152611b138185611847565b90508181036040830152611b278184611847565b9050949350505050565b6000604051905081810181811067ffffffffffffffff82111715611b5857611b57611e84565b5b8060405250919050565b600067ffffffffffffffff821115611b7d57611b7c611e84565b5b601f19601f8301169050602081019050919050565b6000819050602082019050919050565b6000819050602082019050919050565b6000819050602082019050919050565b6000819050602082019050919050565b600081519050919050565b600081519050919050565b600081519050919050565b600081519050919050565b600081519050919050565b6000602082019050919050565b6000602082019050919050565b6000602082019050919050565b6000602082019050919050565b600082825260208201905092915050565b600082825260208201905092915050565b600082825260208201905092915050565b600082825260208201905092915050565b600082825260208201905092915050565b600082825260208201905092915050565b6000611cae82611d5f565b9150611cb983611d5f565b9250827fffffffffffffffffffffffffffffffffffffffffffffffffffffffffffffffff03821115611cee57611ced611e26565b5b828201905092915050565b6000611d0482611d5f565b9150611d0f83611d5f565b925082821015611d2257611d21611e26565b5b828203905092915050565b6000611d3882611d3f565b9050919050565b600073ffffffffffffffffffffffffffffffffffffffff82169050919050565b6000819050919050565b82818337600083830152505050565b60005b83811015611d96578082015181840152602081019050611d7b565b83811115611da5576000848401525b50505050565b60006002820490506001821680611dc357607f821691505b60208210811415611dd757611dd6611e55565b5b50919050565b6000611de882611d5f565b91507fffffffffffffffffffffffffffffffffffffffffffffffffffffffffffffffff821415611e1b57611e1a611e26565b5b600182019050919050565b7f4e487b7100000000000000000000000000000000000000000000000000000000600052601160045260246000fd5b7f4e487b7100000000000000000000000000000000000000000000000000000000600052602260045260246000fd5b7f4e487b7100000000000000000000000000000000000000000000000000000000600052604160045260246000fd5b6000601f19601f8301169050919050565b611ecd81611d2d565b8114611ed857600080fd5b50565b611ee481611d5f565b8114611eef57600080fd5b5056fea2646970667358221220910bf2fe0e4e108d3f49ca6622c3c8b49a893770c4a5a5a294afd3953bedbf6f64736f6c63430008000033",
  "immutableReferences": {},
  "source": "// SPDX-License-Identifier: MIT\npragma solidity ^0.8.0;\n\ncontract PatientRecords {\n    struct Patient {\n        uint patientID;\n        string cid; // Store CID instead of detailed patient data\n        address[] accessGranted; // List of addresses that have access\n    }\n\n    mapping(uint => Patient) public patients;\n    uint[] public patientIDs;\n\n    event PatientAdded(uint patientID, string cid);\n    event AccessGranted(uint indexed patientID, address indexed newAddress);\n    event AccessRevoked(uint patientID, address revokedAddress);\n    event InsuranceCompanyUpdated(\n        uint indexed patientID,\n        address indexed oldInsuranceCompanyAddress,\n        address indexed newInsuranceCompanyAddress,\n        string cid // Updated CID\n    );\n\n\n\n    // Add patient data with CID and manage access rights\n    function addPatient(\n        string memory _cid,\n        address _insuranceCompanyAddress\n    ) public {\n\n        uint newPatientID = patientIDs.length > 0 ? patientIDs[patientIDs.length - 1] + 1 : 1;\n        \n        Patient storage newPatient = patients[newPatientID];\n\n        // Initialize the Patient fields\n        newPatient.patientID = newPatientID;\n        newPatient.cid = _cid;\n        \n        // Create and populate the accessGranted array in storage\n        newPatient.accessGranted.push(msg.sender);               // Add the sender's address\n        newPatient.accessGranted.push(_insuranceCompanyAddress); // Add the insurance company's address\n\n        // Add patientID to the list of IDs\n        patientIDs.push(newPatientID);\n\n        emit PatientAdded(newPatientID, _cid);\n\n        \n    }\n\n    function getAllPatients()\n        public\n        view\n        returns (\n            uint[] memory patientIDsList,\n            string[] memory cids,\n            address[][] memory accessGrantedLists\n        )\n    {   \n        uint length = patientIDs.length;\n\n        // Create memory arrays for each patient property\n        string[] memory _cids = new string[](length);\n        address[][] memory _accessGrantedLists = new address[][](length);  // Array of arrays\n\n        for (uint i = 0; i < length; i++) {\n            uint patientID = patientIDs[i];\n            Patient storage patient = patients[patientID];\n\n            // Populate memory arrays with patient data\n            _cids[i] = patient.cid;\n            _accessGrantedLists[i] = patient.accessGranted;  // Store dynamic access list\n        }\n        \n        // Return patient IDs, CIDs, and accessGranted lists\n        return (\n            patientIDs,\n            _cids,\n            _accessGrantedLists\n        );\n    }\n\n\n    function getPatientByID(uint _patientID)\n        public\n        view\n        returns (\n            uint patientID,\n            string memory cid,\n            string memory status\n        )\n    {\n        uint length = patientIDs.length;\n\n        // Check if there are no patient records\n        if (length == 0) {\n            return (0, \"\", \"No records found\");\n        }\n\n        Patient memory patient;\n        bool found = false;\n\n        // Find the patient by the provided patientID\n        for (uint i = 0; i < length; i++) {\n            if (patients[patientIDs[i]].patientID == _patientID) {\n                patient = patients[patientIDs[i]];\n                found = true;\n                break;\n            }\n        }\n\n        // Check if the patient was found\n        if (!found) {\n            return (0, \"\", \"Patient not found\");\n        }\n\n        // Check if msg.sender is in the accessGranted array\n        bool accessGranted = false;\n        for (uint j = 0; j < patient.accessGranted.length; j++) {\n            if (patient.accessGranted[j] == msg.sender) {\n                accessGranted = true;\n                break;\n            }\n        }\n\n        // If access is granted, return the patientID and CID\n        if (accessGranted) {\n            return (\n                patient.patientID,\n                patient.cid,\n                \"Access granted\"\n            );\n        } else {\n            return (0, \"\", \"Unauthorized access\");\n        }\n    }\n\n    function grantAccess(uint _patientID, address _addressToGrant) public {\n        // Get the patient record for the patient granting access\n        Patient storage patient = patients[_patientID];\n\n        // Only the patient can grant access\n        // require(\n        //     msg.sender == patient.patientAddress,\n        //     \"Unauthorized: Only the patient can grant access.\"\n        // );\n        \n        // Check if the address to grant access is valid\n        require(\n            _addressToGrant != address(0),\n            \"Invalid address: Cannot grant access to a zero address.\"\n        );\n\n        // Check if the address is already in the accessGranted list\n        bool alreadyHasAccess = false;\n        for (uint i = 0; i < patient.accessGranted.length; i++){\n            if (patient.accessGranted[i] == _addressToGrant){\n                alreadyHasAccess = true;\n                break;\n            }\n        }\n\n        require(\n            !alreadyHasAccess,\n            \"This address already has access.\"\n        );\n\n        // Add the new address to the accessGranted list\n        patient.accessGranted.push(_addressToGrant);\n\n        // Emit event for granted access\n        emit AccessGranted(_patientID, _addressToGrant);\n    }\n  \n\n    function revokeAccess(uint _patientID, address _addressToRevoke) public {\n        // Get the patient record for the patient revoking access\n        Patient storage patient = patients[_patientID];\n\n        // Only the patient can revoke access\n        // require(\n        //     msg.sender == patient.patientAddress,\n        //     \"Unauthorized: Only the patient can revoke access.\"\n        // );\n\n        // Check if the address to revoke exists in the accessGranted list\n        bool addressFound = false;\n        for (uint i = 0; i < patient.accessGranted.length; i++) {\n            if (patient.accessGranted[i] == _addressToRevoke) {\n                // Remove the address by shifting the last element to the current position and reducing the array size\n                patient.accessGranted[i] = patient.accessGranted[patient.accessGranted.length - 1];\n                patient.accessGranted.pop();\n                addressFound = true;\n                break;\n            }\n        }\n\n        // If the address was not found in the list\n        require(addressFound, \"Address not found in the access list.\");\n\n        // Emit an event for revoking access\n        emit AccessRevoked(_patientID, _addressToRevoke);\n    }\n\n    function updateInsuranceCompany(\n        uint _patientID,\n        address _newInsuranceCompanyAddress,\n        address _oldInsuranceCompanyAddress,\n        string memory _cid // Pass CID as a parameter\n    ) public {\n        Patient storage patient = patients[_patientID];\n\n        // Allow update only if the caller is the patient\n        // require(\n        //     msg.sender == patient.patientAddress,\n        //     \"Unauthorized: Only the patient can update this record.\"\n        // );\n\n        // Modify the accessGranted array to update the insurance company's access\n        bool replaced = false;\n        for (uint i = 0; i < patient.accessGranted.length; i++) {\n            if (patient.accessGranted[i] == _oldInsuranceCompanyAddress) {\n                patient.accessGranted[i] = _newInsuranceCompanyAddress; // Replace with new company address\n                replaced = true;\n                break;\n            }\n        }\n\n        // If the old insurance company address was not found, add the new address\n        if (!replaced) {\n            patient.accessGranted.push(_newInsuranceCompanyAddress);\n        }\n\n        // Emit event to notify that the insurance company access details were updated\n        emit InsuranceCompanyUpdated(\n            _patientID,\n            _oldInsuranceCompanyAddress,\n            _newInsuranceCompanyAddress,\n            _cid // Emit the updated CID for reference\n        );\n    }\n}\n    // function deleteInsuranceCompany(uint _patientID) public {\n    //     Patient storage patient = patients[_patientID];\n\n    //     // Allow deletion only if the caller is the patient\n    //     require(\n    //         msg.sender == patient.patientAddress,\n    //         \"Unauthorized: Only the patient can delete the insurance company.\"\n    //     );\n\n    //     string memory oldInsuranceCompany = patient.insuranceCompany;\n    //     address oldInsuranceCompanyAddress = patient.insuranceCompanyAddress;\n\n    //     // Reset the insurance company details\n    //     patient.insuranceCompany = \"\";\n    //     patient.insuranceCompanyAddress = address(0);\n\n    //     // Revoke access by removing the old insurance company address from the accessGranted array\n    //     for (uint i = 0; i < patient.accessGranted.length; i++) {\n    //         if (patient.accessGranted[i] == oldInsuranceCompanyAddress) {\n    //             // Remove the address by shifting the elements in the array\n    //             for (uint j = i; j < patient.accessGranted.length - 1; j++) {\n    //                 patient.accessGranted[j] = patient.accessGranted[j + 1];\n    //             }\n    //             patient.accessGranted.pop(); // Reduce the array length\n    //             break; // Exit the loop once the insurance company address is found and removed\n    //         }\n    //     }\n\n    //     emit InsuranceCompanyDeleted(_patientID, oldInsuranceCompany, oldInsuranceCompanyAddress);\n    // }\n\n//     function getPatientsByInsuranceCompany()\n//         public\n//         view\n//         returns (\n//             uint[] memory patientIDsList,\n//             Patient[] memory patientList\n//         )\n//     {\n//         address insuranceCompanyAddress = msg.sender;\n//         uint length = patientIDs.length;\n//         uint count = 0;\n\n//         // First, count how many patients have granted access to the caller (insurance company)\n//         for (uint i = 0; i < length; i++) {\n//             Patient memory patient = patients[patientIDs[i]];\n//             for (uint j = 0; j < patient.accessGranted.length; j++) {\n//                 if (patient.accessGranted[j] == insuranceCompanyAddress) {\n//                     count++;\n//                     break; // Break once the address is found\n//                 }\n//             }\n//         }\n\n//         // Create arrays to hold the results\n//         uint[] memory ids = new uint[](count);\n//         Patient[] memory patientsList = new Patient[](count);\n\n//         uint index = 0;\n//         for (uint i = 0; i < length; i++) {\n//             Patient memory patient = patients[patientIDs[i]];\n//             for (uint j = 0; j < patient.accessGranted.length; j++) {\n//                 if (patient.accessGranted[j] == insuranceCompanyAddress) {\n//                     ids[index] = patientIDs[i];\n//                     patientsList[index] = patient;\n//                     index++;\n//                     break; // Break once the address is found\n//                 }\n//             }\n//         }\n\n//         return (ids, patientsList);\n//     }\n\n",
  "sourcePath": "C:\\Users\\Sarthak\\Desktop\\BlockchainProjects\\EHR_Management\\v.0.1_PatientRecords\\contracts\\PatientRecords.sol",
  "compiler": {
    "name": "solc",
    "version": "0.8.0+commit.c7dfd78e.Emscripten.clang"
  },
  "schemaVersion": "3.4.16",
  "updatedAt": "2024-09-15T10:55:29.149Z",
  "networkType": "ethereum",
  "devdoc": {
    "kind": "dev",
    "methods": {},
    "version": 1
  },
  "userdoc": {
    "kind": "user",
    "methods": {},
    "version": 1
  }
}