{
  "contractName": "PatientRecords",
  "abi": [
    {
      "inputs": [],
      "stateMutability": "nonpayable",
      "type": "constructor"
    },
    {
      "anonymous": false,
      "inputs": [
        {
          "indexed": false,
          "internalType": "uint256",
          "name": "patientID",
          "type": "uint256"
        },
        {
          "indexed": false,
          "internalType": "string",
          "name": "oldInsuranceCompany",
          "type": "string"
        },
        {
          "indexed": false,
          "internalType": "address",
          "name": "oldInsuranceCompanyAddress",
          "type": "address"
        }
      ],
      "name": "InsuranceCompanyDeleted",
      "type": "event"
    },
    {
      "anonymous": false,
      "inputs": [
        {
          "indexed": false,
          "internalType": "uint256",
          "name": "patientID",
          "type": "uint256"
        },
        {
          "indexed": false,
          "internalType": "string",
          "name": "oldInsuranceCompany",
          "type": "string"
        },
        {
          "indexed": false,
          "internalType": "address",
          "name": "oldInsuranceCompanyAddress",
          "type": "address"
        },
        {
          "indexed": false,
          "internalType": "string",
          "name": "newInsuranceCompany",
          "type": "string"
        },
        {
          "indexed": false,
          "internalType": "address",
          "name": "newInsuranceCompanyAddress",
          "type": "address"
        }
      ],
      "name": "InsuranceCompanyUpdated",
      "type": "event"
    },
    {
      "anonymous": false,
      "inputs": [
        {
          "indexed": false,
          "internalType": "uint256",
          "name": "patientID",
          "type": "uint256"
        },
        {
          "indexed": false,
          "internalType": "string",
          "name": "name",
          "type": "string"
        }
      ],
      "name": "PatientAdded",
      "type": "event"
    },
    {
      "anonymous": false,
      "inputs": [
        {
          "indexed": false,
          "internalType": "address",
          "name": "insuranceCompanyAddress",
          "type": "address"
        },
        {
          "indexed": false,
          "internalType": "uint256[]",
          "name": "patientIDs",
          "type": "uint256[]"
        }
      ],
      "name": "PatientsByInsuranceCompany",
      "type": "event"
    },
    {
      "inputs": [
        {
          "internalType": "uint256",
          "name": "",
          "type": "uint256"
        }
      ],
      "name": "patientIDs",
      "outputs": [
        {
          "internalType": "uint256",
          "name": "",
          "type": "uint256"
        }
      ],
      "stateMutability": "view",
      "type": "function",
      "constant": true
    },
    {
      "inputs": [
        {
          "internalType": "uint256",
          "name": "",
          "type": "uint256"
        }
      ],
      "name": "patients",
      "outputs": [
        {
          "internalType": "uint256",
          "name": "patientID",
          "type": "uint256"
        },
        {
          "internalType": "string",
          "name": "name",
          "type": "string"
        },
        {
          "internalType": "uint256",
          "name": "age",
          "type": "uint256"
        },
        {
          "internalType": "string",
          "name": "gender",
          "type": "string"
        },
        {
          "internalType": "string",
          "name": "insuranceCompany",
          "type": "string"
        },
        {
          "internalType": "address",
          "name": "insuranceCompanyAddress",
          "type": "address"
        }
      ],
      "stateMutability": "view",
      "type": "function",
      "constant": true
    },
    {
      "inputs": [
        {
          "internalType": "uint256",
          "name": "_patientID",
          "type": "uint256"
        },
        {
          "internalType": "string",
          "name": "_name",
          "type": "string"
        },
        {
          "internalType": "uint256",
          "name": "_age",
          "type": "uint256"
        },
        {
          "internalType": "string",
          "name": "_gender",
          "type": "string"
        },
        {
          "internalType": "string",
          "name": "_insuranceCompany",
          "type": "string"
        },
        {
          "internalType": "address",
          "name": "_insuranceCompanyAddress",
          "type": "address"
        }
      ],
      "name": "addPatient",
      "outputs": [],
      "stateMutability": "nonpayable",
      "type": "function"
    },
    {
      "inputs": [
        {
          "internalType": "uint256",
          "name": "_patientID",
          "type": "uint256"
        }
      ],
      "name": "getPatient",
      "outputs": [
        {
          "internalType": "uint256",
          "name": "patientID",
          "type": "uint256"
        },
        {
          "internalType": "string",
          "name": "name",
          "type": "string"
        },
        {
          "internalType": "uint256",
          "name": "age",
          "type": "uint256"
        },
        {
          "internalType": "string",
          "name": "gender",
          "type": "string"
        },
        {
          "internalType": "string",
          "name": "insuranceCompany",
          "type": "string"
        },
        {
          "internalType": "address",
          "name": "insuranceCompanyAddress",
          "type": "address"
        },
        {
          "internalType": "string",
          "name": "status",
          "type": "string"
        }
      ],
      "stateMutability": "view",
      "type": "function",
      "constant": true
    },
    {
      "inputs": [],
      "name": "getAllPatients",
      "outputs": [
        {
          "internalType": "uint256[]",
          "name": "patientIDsList",
          "type": "uint256[]"
        },
        {
          "components": [
            {
              "internalType": "uint256",
              "name": "patientID",
              "type": "uint256"
            },
            {
              "internalType": "string",
              "name": "name",
              "type": "string"
            },
            {
              "internalType": "uint256",
              "name": "age",
              "type": "uint256"
            },
            {
              "internalType": "string",
              "name": "gender",
              "type": "string"
            },
            {
              "internalType": "string",
              "name": "insuranceCompany",
              "type": "string"
            },
            {
              "internalType": "address",
              "name": "insuranceCompanyAddress",
              "type": "address"
            }
          ],
          "internalType": "struct PatientRecords.Patient[]",
          "name": "patientList",
          "type": "tuple[]"
        }
      ],
      "stateMutability": "view",
      "type": "function",
      "constant": true
    },
    {
      "inputs": [
        {
          "internalType": "uint256",
          "name": "_patientID",
          "type": "uint256"
        },
        {
          "internalType": "string",
          "name": "_newInsuranceCompany",
          "type": "string"
        },
        {
          "internalType": "address",
          "name": "_newInsuranceCompanyAddress",
          "type": "address"
        }
      ],
      "name": "updateInsuranceCompany",
      "outputs": [],
      "stateMutability": "nonpayable",
      "type": "function"
    },
    {
      "inputs": [
        {
          "internalType": "uint256",
          "name": "_patientID",
          "type": "uint256"
        }
      ],
      "name": "deleteInsuranceCompany",
      "outputs": [],
      "stateMutability": "nonpayable",
      "type": "function"
    },
    {
      "inputs": [],
      "name": "getPatientsByInsuranceCompany",
      "outputs": [
        {
          "internalType": "uint256[]",
          "name": "patientIDsList",
          "type": "uint256[]"
        },
        {
          "components": [
            {
              "internalType": "uint256",
              "name": "patientID",
              "type": "uint256"
            },
            {
              "internalType": "string",
              "name": "name",
              "type": "string"
            },
            {
              "internalType": "uint256",
              "name": "age",
              "type": "uint256"
            },
            {
              "internalType": "string",
              "name": "gender",
              "type": "string"
            },
            {
              "internalType": "string",
              "name": "insuranceCompany",
              "type": "string"
            },
            {
              "internalType": "address",
              "name": "insuranceCompanyAddress",
              "type": "address"
            }
          ],
          "internalType": "struct PatientRecords.Patient[]",
          "name": "patientList",
          "type": "tuple[]"
        }
      ],
      "stateMutability": "view",
      "type": "function",
      "constant": true
    }
  ],
  "bytecode": "0x60806040523480156200001157600080fd5b50620000dd60016040518060400160405280600881526020017f4a6f686e20446f65000000000000000000000000000000000000000000000000815250601e6040518060400160405280600481526020017f4d616c65000000000000000000000000000000000000000000000000000000008152506040518060400160405280600d81526020017f41424320496e737572616e63650000000000000000000000000000000000000081525073396cfe0b17cc696776f75ad7a37b5990427a8df8620002e560201b60201c565b620001a860026040518060400160405280600b81526020017f416c69636520536d697468000000000000000000000000000000000000000000815250601c6040518060400160405280600681526020017f46656d616c6500000000000000000000000000000000000000000000000000008152506040518060400160405280600f81526020017f58595a2d3220496e737572616e6365000000000000000000000000000000000081525073332154debac87021221df60d0bfba745594a4315620002e560201b60201c565b6200024d60036040518060400160405280600581526020017f44617669640000000000000000000000000000000000000000000000000000008152506038604051806020016040528060008152506040518060400160405280600f81526020017f58595a2d3220496e737572616e6365000000000000000000000000000000000081525073332154debac87021221df60d0bfba745594a4315620002e560201b60201c565b620002df60046040518060400160405280600b81526020017f426f62204a6f686e736f6e000000000000000000000000000000000000000000815250602d6040518060400160405280600481526020017f4d616c6500000000000000000000000000000000000000000000000000000000815250604051806020016040528060008152506000620002e560201b60201c565b620007d2565b6040518060c00160405280878152602001600087511162000316576040518060200160405280600081525062000318565b865b8152602001858152602001600085511162000343576040518060200160405280600081525062000345565b845b815260200160008451116200036a57604051806020016040528060008152506200036c565b835b81526020018273ffffffffffffffffffffffffffffffffffffffff16815250600080888152602001908152602001600020600082015181600001556020820151816001019080519060200190620003c59291906200054d565b50604082015181600201556060820151816003019080519060200190620003ee9291906200054d565b5060808201518160040190805190602001906200040d9291906200054d565b5060a08201518160050160006101000a81548173ffffffffffffffffffffffffffffffffffffffff021916908373ffffffffffffffffffffffffffffffffffffffff1602179055509050506000805b600180549050811015620004d8578760018281548110620004a6577f4e487b7100000000000000000000000000000000000000000000000000000000600052603260045260246000fd5b90600052602060002001541415620004c25760019150620004d8565b8080620004cf9062000715565b9150506200045c565b5080620005095760018790806001815401808255809150506001900390600052602060002001600090919091909150555b7f6b905965000bb5754f6810e4d8a383a339c59b8ffe0680d4e1af63aca2da215587876040516200053c9291906200064f565b60405180910390a150505050505050565b8280546200055b90620006df565b90600052602060002090601f0160209004810192826200057f5760008555620005cb565b82601f106200059a57805160ff1916838001178555620005cb565b82800160010185558215620005cb579182015b82811115620005ca578251825591602001919060010190620005ad565b5b509050620005da9190620005de565b5090565b5b80821115620005f9576000816000905550600101620005df565b5090565b60006200060a8262000683565b6200061681856200068e565b935062000628818560208601620006a9565b6200063381620007c1565b840191505092915050565b62000649816200069f565b82525050565b60006040820190506200066660008301856200063e565b81810360208301526200067a8184620005fd565b90509392505050565b600081519050919050565b600082825260208201905092915050565b6000819050919050565b60005b83811015620006c9578082015181840152602081019050620006ac565b83811115620006d9576000848401525b50505050565b60006002820490506001821680620006f857607f821691505b602082108114156200070f576200070e62000792565b5b50919050565b600062000722826200069f565b91507fffffffffffffffffffffffffffffffffffffffffffffffffffffffffffffffff82141562000758576200075762000763565b5b600182019050919050565b7f4e487b7100000000000000000000000000000000000000000000000000000000600052601160045260246000fd5b7f4e487b7100000000000000000000000000000000000000000000000000000000600052602260045260246000fd5b6000601f19601f8301169050919050565b61248f80620007e26000396000f3fe608060405234801561001057600080fd5b50600436106100885760003560e01c80637d3a67961161005b5780637d3a6796146101035780637fb8998f1461013957806393119a8314610169578063a1f59ff81461019e57610088565b806318a231a91461008d578063299049df146100ac578063345f33cd146100c85780633e4d8780146100e7575b600080fd5b6100956101ba565b6040516100a3929190611f32565b60405180910390f35b6100c660048036038101906100c19190611b05565b61058e565b005b6100d06107e0565b6040516100de929190611f32565b60405180910390f35b61010160048036038101906100fc9190611a75565b610dfa565b005b61011d60048036038101906101189190611a75565b611064565b6040516101309796959493929190612109565b60405180910390f35b610153600480360381019061014e9190611a75565b61147c565b6040516101609190611fa9565b60405180910390f35b610183600480360381019061017e9190611a75565b6114a0565b60405161019596959493929190612093565b60405180910390f35b6101b860048036038101906101b39190611a9e565b611694565b005b6060806000600180549050905060008167ffffffffffffffff811115610209577f4e487b7100000000000000000000000000000000000000000000000000000000600052604160045260246000fd5b60405190808252806020026020018201604052801561024257816020015b61022f6118f4565b8152602001906001900390816102275790505b50905060005b8281101561052e5760006001828154811061028c577f4e487b7100000000000000000000000000000000000000000000000000000000600052603260045260246000fd5b906000526020600020015490506000808281526020019081526020016000206040518060c0016040529081600082015481526020016001820180546102d090612312565b80601f01602080910402602001604051908101604052809291908181526020018280546102fc90612312565b80156103495780601f1061031e57610100808354040283529160200191610349565b820191906000526020600020905b81548152906001019060200180831161032c57829003601f168201915b505050505081526020016002820154815260200160038201805461036c90612312565b80601f016020809104026020016040519081016040528092919081815260200182805461039890612312565b80156103e55780601f106103ba576101008083540402835291602001916103e5565b820191906000526020600020905b8154815290600101906020018083116103c857829003601f168201915b505050505081526020016004820180546103fe90612312565b80601f016020809104026020016040519081016040528092919081815260200182805461042a90612312565b80156104775780601f1061044c57610100808354040283529160200191610477565b820191906000526020600020905b81548152906001019060200180831161045a57829003601f168201915b505050505081526020016005820160009054906101000a900473ffffffffffffffffffffffffffffffffffffffff1673ffffffffffffffffffffffffffffffffffffffff1673ffffffffffffffffffffffffffffffffffffffff168152505083838151811061050f577f4e487b7100000000000000000000000000000000000000000000000000000000600052603260045260246000fd5b602002602001018190525050808061052690612344565b915050610248565b506001818180548060200260200160405190810160405280929190818152602001828054801561057d57602002820191906000526020600020905b815481526020019060010190808311610569575b505050505091509350935050509091565b6040518060c0016040528087815260200160008751116105bd57604051806020016040528060008152506105bf565b865b815260200185815260200160008551116105e857604051806020016040528060008152506105ea565b845b8152602001600084511161060d576040518060200160405280600081525061060f565b835b81526020018273ffffffffffffffffffffffffffffffffffffffff16815250600080888152602001908152602001600020600082015181600001556020820151816001019080519060200190610666929190611940565b5060408201518160020155606082015181600301908051906020019061068d929190611940565b5060808201518160040190805190602001906106aa929190611940565b5060a08201518160050160006101000a81548173ffffffffffffffffffffffffffffffffffffffff021916908373ffffffffffffffffffffffffffffffffffffffff1602179055509050506000805b60018054905081101561076e578760018281548110610741577f4e487b7100000000000000000000000000000000000000000000000000000000600052603260045260246000fd5b9060005260206000200154141561075b576001915061076e565b808061076690612344565b9150506106f9565b508061079e5760018790806001815401808255809150506001900390600052602060002001600090919091909150555b7f6b905965000bb5754f6810e4d8a383a339c59b8ffe0680d4e1af63aca2da215587876040516107cf929190611fc4565b60405180910390a150505050505050565b6060806000339050600060018054905090506000805b828110156108cd578373ffffffffffffffffffffffffffffffffffffffff1660008060018481548110610852577f4e487b7100000000000000000000000000000000000000000000000000000000600052603260045260246000fd5b9060005260206000200154815260200190815260200160002060050160009054906101000a900473ffffffffffffffffffffffffffffffffffffffff1673ffffffffffffffffffffffffffffffffffffffff1614156108ba5781806108b690612344565b9250505b80806108c590612344565b9150506107f6565b5060008167ffffffffffffffff811115610910577f4e487b7100000000000000000000000000000000000000000000000000000000600052604160045260246000fd5b60405190808252806020026020018201604052801561093e5781602001602082028036833780820191505090505b50905060008267ffffffffffffffff811115610983577f4e487b7100000000000000000000000000000000000000000000000000000000600052604160045260246000fd5b6040519080825280602002602001820160405280156109bc57816020015b6109a96118f4565b8152602001906001900390816109a15790505b5090506000805b85811015610de9578673ffffffffffffffffffffffffffffffffffffffff1660008060018481548110610a1f577f4e487b7100000000000000000000000000000000000000000000000000000000600052603260045260246000fd5b9060005260206000200154815260200190815260200160002060050160009054906101000a900473ffffffffffffffffffffffffffffffffffffffff1673ffffffffffffffffffffffffffffffffffffffff161415610dd65760018181548110610ab2577f4e487b7100000000000000000000000000000000000000000000000000000000600052603260045260246000fd5b9060005260206000200154848381518110610af6577f4e487b7100000000000000000000000000000000000000000000000000000000600052603260045260246000fd5b60200260200101818152505060008060018381548110610b3f577f4e487b7100000000000000000000000000000000000000000000000000000000600052603260045260246000fd5b906000526020600020015481526020019081526020016000206040518060c001604052908160008201548152602001600182018054610b7d90612312565b80601f0160208091040260200160405190810160405280929190818152602001828054610ba990612312565b8015610bf65780601f10610bcb57610100808354040283529160200191610bf6565b820191906000526020600020905b815481529060010190602001808311610bd957829003601f168201915b5050505050815260200160028201548152602001600382018054610c1990612312565b80601f0160208091040260200160405190810160405280929190818152602001828054610c4590612312565b8015610c925780601f10610c6757610100808354040283529160200191610c92565b820191906000526020600020905b815481529060010190602001808311610c7557829003601f168201915b50505050508152602001600482018054610cab90612312565b80601f0160208091040260200160405190810160405280929190818152602001828054610cd790612312565b8015610d245780601f10610cf957610100808354040283529160200191610d24565b820191906000526020600020905b815481529060010190602001808311610d0757829003601f168201915b505050505081526020016005820160009054906101000a900473ffffffffffffffffffffffffffffffffffffffff1673ffffffffffffffffffffffffffffffffffffffff1673ffffffffffffffffffffffffffffffffffffffff1681525050838381518110610dbc577f4e487b7100000000000000000000000000000000000000000000000000000000600052603260045260246000fd5b60200260200101819052508180610dd290612344565b9250505b8080610de190612344565b9150506109c3565b508282975097505050505050509091565b600080600083815260200190815260200160002090508060050160009054906101000a900473ffffffffffffffffffffffffffffffffffffffff1673ffffffffffffffffffffffffffffffffffffffff163373ffffffffffffffffffffffffffffffffffffffff161480610ebe5750600073ffffffffffffffffffffffffffffffffffffffff168160050160009054906101000a900473ffffffffffffffffffffffffffffffffffffffff1673ffffffffffffffffffffffffffffffffffffffff16145b610efd576040517f08c379a0000000000000000000000000000000000000000000000000000000008152600401610ef490611f69565b60405180910390fd5b6000816004018054610f0e90612312565b80601f0160208091040260200160405190810160405280929190818152602001828054610f3a90612312565b8015610f875780601f10610f5c57610100808354040283529160200191610f87565b820191906000526020600020905b815481529060010190602001808311610f6a57829003601f168201915b5050505050905060008260050160009054906101000a900473ffffffffffffffffffffffffffffffffffffffff16905060405180602001604052806000815250836004019080519060200190610fde929190611940565b5060008360050160006101000a81548173ffffffffffffffffffffffffffffffffffffffff021916908373ffffffffffffffffffffffffffffffffffffffff1602179055507f3a6fed798606dae69ddd393ae34c111111dd2738a7c69e241dba16a4858e0e1084838360405161105693929190611ff4565b60405180910390a150505050565b6000606060006060806000606060008060008a81526020019081526020016000206040518060c0016040529081600082015481526020016001820180546110aa90612312565b80601f01602080910402602001604051908101604052809291908181526020018280546110d690612312565b80156111235780601f106110f857610100808354040283529160200191611123565b820191906000526020600020905b81548152906001019060200180831161110657829003601f168201915b505050505081526020016002820154815260200160038201805461114690612312565b80601f016020809104026020016040519081016040528092919081815260200182805461117290612312565b80156111bf5780601f10611194576101008083540402835291602001916111bf565b820191906000526020600020905b8154815290600101906020018083116111a257829003601f168201915b505050505081526020016004820180546111d890612312565b80601f016020809104026020016040519081016040528092919081815260200182805461120490612312565b80156112515780601f1061122657610100808354040283529160200191611251565b820191906000526020600020905b81548152906001019060200180831161123457829003601f168201915b505050505081526020016005820160009054906101000a900473ffffffffffffffffffffffffffffffffffffffff1673ffffffffffffffffffffffffffffffffffffffff1673ffffffffffffffffffffffffffffffffffffffff16815250509050600073ffffffffffffffffffffffffffffffffffffffff168160a0015173ffffffffffffffffffffffffffffffffffffffff16141561135357806000015181602001518260400151836060015184608001518560a001516040518060400160405280600e81526020017f416363657373206772616e746564000000000000000000000000000000000000815250975097509750975097509750975050611471565b8060a0015173ffffffffffffffffffffffffffffffffffffffff163373ffffffffffffffffffffffffffffffffffffffff161461140d576000806000604051806020016040528060008152509190604051806020016040528060008152509060405180602001604052806000815250906040518060400160405280601381526020017f556e617574686f72697a65642061636365737300000000000000000000000000815250975097509750975097509750975050611471565b806000015181602001518260400151836060015184608001518560a001516040518060400160405280600e81526020017f416363657373206772616e7465640000000000000000000000000000000000008152509750975097509750975097509750505b919395979092949650565b6001818154811061148c57600080fd5b906000526020600020016000915090505481565b60006020528060005260406000206000915090508060000154908060010180546114c990612312565b80601f01602080910402602001604051908101604052809291908181526020018280546114f590612312565b80156115425780601f1061151757610100808354040283529160200191611542565b820191906000526020600020905b81548152906001019060200180831161152557829003601f168201915b50505050509080600201549080600301805461155d90612312565b80601f016020809104026020016040519081016040528092919081815260200182805461158990612312565b80156115d65780601f106115ab576101008083540402835291602001916115d6565b820191906000526020600020905b8154815290600101906020018083116115b957829003601f168201915b5050505050908060040180546115eb90612312565b80601f016020809104026020016040519081016040528092919081815260200182805461161790612312565b80156116645780601f1061163957610100808354040283529160200191611664565b820191906000526020600020905b81548152906001019060200180831161164757829003601f168201915b5050505050908060050160009054906101000a900473ffffffffffffffffffffffffffffffffffffffff16905086565b600080600085815260200190815260200160002090508060050160009054906101000a900473ffffffffffffffffffffffffffffffffffffffff1673ffffffffffffffffffffffffffffffffffffffff163373ffffffffffffffffffffffffffffffffffffffff1614806117585750600073ffffffffffffffffffffffffffffffffffffffff168160050160009054906101000a900473ffffffffffffffffffffffffffffffffffffffff1673ffffffffffffffffffffffffffffffffffffffff16145b611797576040517f08c379a000000000000000000000000000000000000000000000000000000000815260040161178e90611f89565b60405180910390fd5b60008160040180546117a890612312565b80601f01602080910402602001604051908101604052809291908181526020018280546117d490612312565b80156118215780601f106117f657610100808354040283529160200191611821565b820191906000526020600020905b81548152906001019060200180831161180457829003601f168201915b5050505050905060008260050160009054906101000a900473ffffffffffffffffffffffffffffffffffffffff16905084836004019080519060200190611869929190611940565b50838360050160006101000a81548173ffffffffffffffffffffffffffffffffffffffff021916908373ffffffffffffffffffffffffffffffffffffffff1602179055507fff9d8f76558ce6b05db593351a8dc296c1340c8fe972d4bd4e014477c5e7f5fa86838388886040516118e4959493929190612032565b60405180910390a1505050505050565b6040518060c001604052806000815260200160608152602001600081526020016060815260200160608152602001600073ffffffffffffffffffffffffffffffffffffffff1681525090565b82805461194c90612312565b90600052602060002090601f01602090048101928261196e57600085556119b5565b82601f1061198757805160ff19168380011785556119b5565b828001600101855582156119b5579182015b828111156119b4578251825591602001919060010190611999565b5b5090506119c291906119c6565b5090565b5b808211156119df5760008160009055506001016119c7565b5090565b60006119f66119f1846121c5565b612194565b905082815260208101848484011115611a0e57600080fd5b611a198482856122d0565b509392505050565b600081359050611a308161242b565b92915050565b600082601f830112611a4757600080fd5b8135611a578482602086016119e3565b91505092915050565b600081359050611a6f81612442565b92915050565b600060208284031215611a8757600080fd5b6000611a9584828501611a60565b91505092915050565b600080600060608486031215611ab357600080fd5b6000611ac186828701611a60565b935050602084013567ffffffffffffffff811115611ade57600080fd5b611aea86828701611a36565b9250506040611afb86828701611a21565b9150509250925092565b60008060008060008060c08789031215611b1e57600080fd5b6000611b2c89828a01611a60565b965050602087013567ffffffffffffffff811115611b4957600080fd5b611b5589828a01611a36565b9550506040611b6689828a01611a60565b945050606087013567ffffffffffffffff811115611b8357600080fd5b611b8f89828a01611a36565b935050608087013567ffffffffffffffff811115611bac57600080fd5b611bb889828a01611a36565b92505060a0611bc989828a01611a21565b9150509295509295509295565b6000611be28383611e7d565b905092915050565b6000611bf68383611f14565b60208301905092915050565b611c0b81612294565b82525050565b611c1a81612294565b82525050565b6000611c2b82612215565b611c358185612250565b935083602082028501611c47856121f5565b8060005b85811015611c835784840389528151611c648582611bd6565b9450611c6f83612236565b925060208a01995050600181019050611c4b565b50829750879550505050505092915050565b6000611ca082612220565b611caa8185612261565b9350611cb583612205565b8060005b83811015611ce6578151611ccd8882611bea565b9750611cd883612243565b925050600181019050611cb9565b5085935050505092915050565b6000611cfe8261222b565b611d088185612272565b9350611d188185602086016122df565b611d218161241a565b840191505092915050565b6000611d378261222b565b611d418185612283565b9350611d518185602086016122df565b611d5a8161241a565b840191505092915050565b6000611d72605c83612283565b91507f556e617574686f72697a65643a204f6e6c79207468652063757272656e74206960008301527f6e737572616e636520636f6d70616e79206f7220616e20656d70747920636f6d60208301527f70616e792063616e2064656c6574652074686973207265636f72642e000000006040830152606082019050919050565b6000611dfe605c83612283565b91507f556e617574686f72697a65643a204f6e6c79207468652063757272656e74206960008301527f6e737572616e636520636f6d70616e79206f7220616e20656d70747920636f6d60208301527f70616e792063616e207570646174652074686973207265636f72642e000000006040830152606082019050919050565b600060c083016000830151611e956000860182611f14565b5060208301518482036020860152611ead8282611cf3565b9150506040830151611ec26040860182611f14565b5060608301518482036060860152611eda8282611cf3565b91505060808301518482036080860152611ef48282611cf3565b91505060a0830151611f0960a0860182611c02565b508091505092915050565b611f1d816122c6565b82525050565b611f2c816122c6565b82525050565b60006040820190508181036000830152611f4c8185611c95565b90508181036020830152611f608184611c20565b90509392505050565b60006020820190508181036000830152611f8281611d65565b9050919050565b60006020820190508181036000830152611fa281611df1565b9050919050565b6000602082019050611fbe6000830184611f23565b92915050565b6000604082019050611fd96000830185611f23565b8181036020830152611feb8184611d2c565b90509392505050565b60006060820190506120096000830186611f23565b818103602083015261201b8185611d2c565b905061202a6040830184611c11565b949350505050565b600060a0820190506120476000830188611f23565b81810360208301526120598187611d2c565b90506120686040830186611c11565b818103606083015261207a8185611d2c565b90506120896080830184611c11565b9695505050505050565b600060c0820190506120a86000830189611f23565b81810360208301526120ba8188611d2c565b90506120c96040830187611f23565b81810360608301526120db8186611d2c565b905081810360808301526120ef8185611d2c565b90506120fe60a0830184611c11565b979650505050505050565b600060e08201905061211e600083018a611f23565b81810360208301526121308189611d2c565b905061213f6040830188611f23565b81810360608301526121518187611d2c565b905081810360808301526121658186611d2c565b905061217460a0830185611c11565b81810360c08301526121868184611d2c565b905098975050505050505050565b6000604051905081810181811067ffffffffffffffff821117156121bb576121ba6123eb565b5b8060405250919050565b600067ffffffffffffffff8211156121e0576121df6123eb565b5b601f19601f8301169050602081019050919050565b6000819050602082019050919050565b6000819050602082019050919050565b600081519050919050565b600081519050919050565b600081519050919050565b6000602082019050919050565b6000602082019050919050565b600082825260208201905092915050565b600082825260208201905092915050565b600082825260208201905092915050565b600082825260208201905092915050565b600061229f826122a6565b9050919050565b600073ffffffffffffffffffffffffffffffffffffffff82169050919050565b6000819050919050565b82818337600083830152505050565b60005b838110156122fd5780820151818401526020810190506122e2565b8381111561230c576000848401525b50505050565b6000600282049050600182168061232a57607f821691505b6020821081141561233e5761233d6123bc565b5b50919050565b600061234f826122c6565b91507fffffffffffffffffffffffffffffffffffffffffffffffffffffffffffffffff8214156123825761238161238d565b5b600182019050919050565b7f4e487b7100000000000000000000000000000000000000000000000000000000600052601160045260246000fd5b7f4e487b7100000000000000000000000000000000000000000000000000000000600052602260045260246000fd5b7f4e487b7100000000000000000000000000000000000000000000000000000000600052604160045260246000fd5b6000601f19601f8301169050919050565b61243481612294565b811461243f57600080fd5b50565b61244b816122c6565b811461245657600080fd5b5056fea26469706673582212200221e879975773199dd067d8e4afe32040d85d37ab5d1e330656943e14dd84aa64736f6c63430008000033",
  "immutableReferences": {},
  "source": "// SPDX-License-Identifier: MIT\r\npragma solidity ^0.8.0;\r\n\r\ncontract PatientRecords {\r\n    struct Patient {\r\n        uint patientID;\r\n        string name;\r\n        uint age;\r\n        string gender;\r\n        string insuranceCompany;\r\n        address insuranceCompanyAddress;\r\n    }\r\n\r\n    mapping(uint => Patient) public patients;\r\n    uint[] public patientIDs;\r\n\r\n    event PatientAdded(uint patientID, string name);\r\n    event InsuranceCompanyUpdated(uint patientID, string oldInsuranceCompany, address oldInsuranceCompanyAddress, string newInsuranceCompany, address newInsuranceCompanyAddress);\r\n    event InsuranceCompanyDeleted(uint patientID, string oldInsuranceCompany, address oldInsuranceCompanyAddress);\r\n    event PatientsByInsuranceCompany(address insuranceCompanyAddress, uint[] patientIDs);\r\n\r\n    constructor() {\r\n        // Adding dummy records with valid checksummed addresses\r\n        addPatient(\r\n            1, \r\n            \"John Doe\", \r\n            30, \r\n            \"Male\", \r\n            \"ABC Insurance\", \r\n            0x396cfe0B17cC696776f75AD7A37b5990427A8Df8\r\n        );\r\n        \r\n        addPatient(\r\n            2, \r\n            \"Alice Smith\", \r\n            28, \r\n            \"Female\", \r\n            \"XYZ-2 Insurance\", \r\n            0x332154DEBAC87021221DF60D0BFba745594A4315\r\n        );\r\n\r\n        addPatient(\r\n            3, \r\n            \"David\", \r\n            56, \r\n            \"\", \r\n            \"XYZ-2 Insurance\", \r\n            0x332154DEBAC87021221DF60D0BFba745594A4315\r\n        );  \r\n\r\n        addPatient(\r\n            4, \r\n            \"Bob Johnson\", \r\n            45, \r\n            \"Male\", \r\n            \"\", \r\n            0x0000000000000000000000000000000000000000\r\n        );\r\n    }\r\n\r\n    function addPatient(\r\n        uint _patientID,\r\n        string memory _name,\r\n        uint _age,\r\n        string memory _gender,\r\n        string memory _insuranceCompany,\r\n        address _insuranceCompanyAddress\r\n    ) public {\r\n        patients[_patientID] = Patient(\r\n            _patientID,\r\n            bytes(_name).length > 0 ? _name : \"\",\r\n            _age,\r\n            bytes(_gender).length > 0 ? _gender : \"\",\r\n            bytes(_insuranceCompany).length > 0 ? _insuranceCompany : \"\",\r\n            _insuranceCompanyAddress\r\n        );\r\n\r\n        // Check if patientID already exists, if not, add to the array\r\n        bool exists = false;\r\n        for (uint i = 0; i < patientIDs.length; i++) {\r\n            if (patientIDs[i] == _patientID) {\r\n                exists = true;\r\n                break;\r\n            }\r\n        }\r\n        if (!exists) {\r\n            patientIDs.push(_patientID);\r\n        }\r\n\r\n        emit PatientAdded(_patientID, _name);\r\n    }\r\n\r\n    function getPatient(uint _patientID)\r\n        public\r\n        view\r\n        returns (\r\n            uint patientID,\r\n            string memory name,\r\n            uint age,\r\n            string memory gender,\r\n            string memory insuranceCompany,\r\n            address insuranceCompanyAddress,\r\n            string memory status\r\n        )\r\n    {\r\n        Patient memory patient = patients[_patientID];\r\n        \r\n        // Allow access if no insurance company is associated\r\n        if (patient.insuranceCompanyAddress == address(0)) {\r\n            return (\r\n                patient.patientID,\r\n                patient.name,\r\n                patient.age,\r\n                patient.gender,\r\n                patient.insuranceCompany,\r\n                patient.insuranceCompanyAddress,\r\n                \"Access granted\"\r\n            );\r\n        }\r\n\r\n        // Check if the caller is the insurance company\r\n        if (msg.sender != patient.insuranceCompanyAddress) {\r\n            return (0, \"\", 0, \"\", \"\", address(0), \"Unauthorized access\");\r\n        }\r\n\r\n        return (\r\n            patient.patientID,\r\n            patient.name,\r\n            patient.age,\r\n            patient.gender,\r\n            patient.insuranceCompany,\r\n            patient.insuranceCompanyAddress,\r\n            \"Access granted\"\r\n        );\r\n    }\r\n\r\n    function getAllPatients()\r\n        public\r\n        view\r\n        returns (\r\n            uint[] memory patientIDsList,\r\n            Patient[] memory patientList\r\n        )\r\n    {\r\n        uint length = patientIDs.length;\r\n        Patient[] memory allPatients = new Patient[](length);\r\n\r\n        for (uint i = 0; i < length; i++) {\r\n            uint patientID = patientIDs[i];\r\n            allPatients[i] = patients[patientID];\r\n        }\r\n\r\n        return (patientIDs, allPatients);\r\n    }\r\n\r\n    function updateInsuranceCompany(\r\n        uint _patientID,\r\n        string memory _newInsuranceCompany,\r\n        address _newInsuranceCompanyAddress\r\n    ) public {\r\n        Patient storage patient = patients[_patientID];\r\n\r\n        // Allow update if the current insuranceCompanyAddress is either the caller or if it is the zero address (no insurance company)\r\n        require(\r\n            msg.sender == patient.insuranceCompanyAddress || patient.insuranceCompanyAddress == address(0),\r\n            \"Unauthorized: Only the current insurance company or an empty company can update this record.\"\r\n        );\r\n\r\n        string memory oldInsuranceCompany = patient.insuranceCompany;\r\n        address oldInsuranceCompanyAddress = patient.insuranceCompanyAddress;\r\n\r\n        patient.insuranceCompany = _newInsuranceCompany;\r\n        patient.insuranceCompanyAddress = _newInsuranceCompanyAddress;\r\n\r\n        emit InsuranceCompanyUpdated(_patientID, oldInsuranceCompany, oldInsuranceCompanyAddress, _newInsuranceCompany, _newInsuranceCompanyAddress);\r\n    }\r\n\r\n    function deleteInsuranceCompany(uint _patientID) public {\r\n        Patient storage patient = patients[_patientID];\r\n\r\n        // Allow deletion if the current insuranceCompanyAddress is either the caller or if it is the zero address (no insurance company)\r\n        require(\r\n            msg.sender == patient.insuranceCompanyAddress || patient.insuranceCompanyAddress == address(0),\r\n            \"Unauthorized: Only the current insurance company or an empty company can delete this record.\"\r\n        );\r\n\r\n        string memory oldInsuranceCompany = patient.insuranceCompany;\r\n        address oldInsuranceCompanyAddress = patient.insuranceCompanyAddress;\r\n\r\n        patient.insuranceCompany = \"\";\r\n        patient.insuranceCompanyAddress = address(0);\r\n\r\n        emit InsuranceCompanyDeleted(_patientID, oldInsuranceCompany, oldInsuranceCompanyAddress);\r\n    }\r\n\r\n    function getPatientsByInsuranceCompany()\r\n        public\r\n        view\r\n        returns (\r\n            uint[] memory patientIDsList,\r\n            Patient[] memory patientList\r\n        )\r\n    {\r\n        address insuranceCompanyAddress = msg.sender;\r\n        uint length = patientIDs.length;\r\n        uint count = 0;\r\n\r\n        // First, count how many patients have the given insurance company address\r\n        for (uint i = 0; i < length; i++) {\r\n            if (patients[patientIDs[i]].insuranceCompanyAddress == insuranceCompanyAddress) {\r\n                count++;\r\n            }\r\n        }\r\n\r\n        // Create arrays to hold the results\r\n        uint[] memory ids = new uint[](count);\r\n        Patient[] memory patientsList = new Patient[](count);\r\n\r\n        uint index = 0;\r\n        for (uint i = 0; i < length; i++) {\r\n            if (patients[patientIDs[i]].insuranceCompanyAddress == insuranceCompanyAddress) {\r\n                ids[index] = patientIDs[i];\r\n                patientsList[index] = patients[patientIDs[i]];\r\n                index++;\r\n            }\r\n        }\r\n\r\n        return (ids, patientsList);\r\n    }\r\n}\r\n",
  "sourcePath": "C:\\Users\\Sarthak\\Desktop\\BlockchainProjects\\EHR_Management\\v.0.1_PatientRecords\\contracts\\PatientRecords.sol",
  "compiler": {
    "name": "solc",
    "version": "0.8.0+commit.c7dfd78e.Emscripten.clang"
  },
  "schemaVersion": "3.4.16",
  "updatedAt": "2024-09-03T07:47:41.939Z",
  "networkType": "ethereum",
  "devdoc": {
    "kind": "dev",
    "methods": {},
    "version": 1
  },
  "userdoc": {
    "kind": "user",
    "methods": {},
    "version": 1
  }
}