{
  "contractName": "PatientRecords",
  "abi": [
    {
      "anonymous": false,
      "inputs": [
        {
          "indexed": true,
          "internalType": "uint256",
          "name": "patientID",
          "type": "uint256"
        },
        {
          "indexed": true,
          "internalType": "address",
          "name": "newAddress",
          "type": "address"
        }
      ],
      "name": "AccessGranted",
      "type": "event"
    },
    {
      "anonymous": false,
      "inputs": [
        {
          "indexed": false,
          "internalType": "uint256",
          "name": "patientID",
          "type": "uint256"
        },
        {
          "indexed": false,
          "internalType": "address",
          "name": "revokedAddress",
          "type": "address"
        }
      ],
      "name": "AccessRevoked",
      "type": "event"
    },
    {
      "anonymous": false,
      "inputs": [
        {
          "indexed": false,
          "internalType": "uint256",
          "name": "patientID",
          "type": "uint256"
        },
        {
          "indexed": false,
          "internalType": "string",
          "name": "oldInsuranceCompany",
          "type": "string"
        },
        {
          "indexed": false,
          "internalType": "address",
          "name": "oldInsuranceCompanyAddress",
          "type": "address"
        }
      ],
      "name": "InsuranceCompanyDeleted",
      "type": "event"
    },
    {
      "anonymous": false,
      "inputs": [
        {
          "indexed": false,
          "internalType": "uint256",
          "name": "patientID",
          "type": "uint256"
        },
        {
          "indexed": false,
          "internalType": "string",
          "name": "oldInsuranceCompany",
          "type": "string"
        },
        {
          "indexed": false,
          "internalType": "address",
          "name": "oldInsuranceCompanyAddress",
          "type": "address"
        },
        {
          "indexed": false,
          "internalType": "string",
          "name": "newInsuranceCompany",
          "type": "string"
        },
        {
          "indexed": false,
          "internalType": "address",
          "name": "newInsuranceCompanyAddress",
          "type": "address"
        }
      ],
      "name": "InsuranceCompanyUpdated",
      "type": "event"
    },
    {
      "anonymous": false,
      "inputs": [
        {
          "indexed": false,
          "internalType": "uint256",
          "name": "patientID",
          "type": "uint256"
        },
        {
          "indexed": false,
          "internalType": "string",
          "name": "name",
          "type": "string"
        }
      ],
      "name": "PatientAdded",
      "type": "event"
    },
    {
      "inputs": [
        {
          "internalType": "uint256",
          "name": "",
          "type": "uint256"
        }
      ],
      "name": "patientIDs",
      "outputs": [
        {
          "internalType": "uint256",
          "name": "",
          "type": "uint256"
        }
      ],
      "stateMutability": "view",
      "type": "function",
      "constant": true
    },
    {
      "inputs": [
        {
          "internalType": "uint256",
          "name": "",
          "type": "uint256"
        }
      ],
      "name": "patients",
      "outputs": [
        {
          "internalType": "uint256",
          "name": "patientID",
          "type": "uint256"
        },
        {
          "internalType": "address",
          "name": "patientAddress",
          "type": "address"
        },
        {
          "internalType": "string",
          "name": "name",
          "type": "string"
        },
        {
          "internalType": "uint256",
          "name": "age",
          "type": "uint256"
        },
        {
          "internalType": "string",
          "name": "gender",
          "type": "string"
        },
        {
          "internalType": "string",
          "name": "insuranceCompany",
          "type": "string"
        },
        {
          "internalType": "address",
          "name": "insuranceCompanyAddress",
          "type": "address"
        }
      ],
      "stateMutability": "view",
      "type": "function",
      "constant": true
    },
    {
      "inputs": [
        {
          "internalType": "string",
          "name": "_name",
          "type": "string"
        },
        {
          "internalType": "uint256",
          "name": "_age",
          "type": "uint256"
        },
        {
          "internalType": "string",
          "name": "_gender",
          "type": "string"
        },
        {
          "internalType": "string",
          "name": "_insuranceCompany",
          "type": "string"
        },
        {
          "internalType": "address",
          "name": "_insuranceCompanyAddress",
          "type": "address"
        }
      ],
      "name": "addPatient",
      "outputs": [],
      "stateMutability": "nonpayable",
      "type": "function"
    },
    {
      "inputs": [
        {
          "internalType": "uint256",
          "name": "_patientID",
          "type": "uint256"
        }
      ],
      "name": "getPatientByID",
      "outputs": [
        {
          "internalType": "uint256",
          "name": "patientID",
          "type": "uint256"
        },
        {
          "internalType": "address",
          "name": "patientAddress",
          "type": "address"
        },
        {
          "internalType": "string",
          "name": "name",
          "type": "string"
        },
        {
          "internalType": "uint256",
          "name": "age",
          "type": "uint256"
        },
        {
          "internalType": "string",
          "name": "gender",
          "type": "string"
        },
        {
          "internalType": "string",
          "name": "insuranceCompany",
          "type": "string"
        },
        {
          "internalType": "address",
          "name": "insuranceCompanyAddress",
          "type": "address"
        },
        {
          "internalType": "string",
          "name": "status",
          "type": "string"
        }
      ],
      "stateMutability": "view",
      "type": "function",
      "constant": true
    },
    {
      "inputs": [],
      "name": "getAllPatients",
      "outputs": [
        {
          "internalType": "uint256[]",
          "name": "patientIDsList",
          "type": "uint256[]"
        },
        {
          "internalType": "address[]",
          "name": "patientAddresses",
          "type": "address[]"
        },
        {
          "internalType": "string[]",
          "name": "names",
          "type": "string[]"
        },
        {
          "internalType": "uint256[]",
          "name": "ages",
          "type": "uint256[]"
        },
        {
          "internalType": "string[]",
          "name": "genders",
          "type": "string[]"
        },
        {
          "internalType": "string[]",
          "name": "insuranceCompanies",
          "type": "string[]"
        },
        {
          "internalType": "address[]",
          "name": "insuranceCompanyAddresses",
          "type": "address[]"
        },
        {
          "internalType": "address[][]",
          "name": "accessProvidedLists",
          "type": "address[][]"
        }
      ],
      "stateMutability": "view",
      "type": "function",
      "constant": true
    },
    {
      "inputs": [
        {
          "internalType": "uint256",
          "name": "_patientID",
          "type": "uint256"
        },
        {
          "internalType": "string",
          "name": "_newInsuranceCompany",
          "type": "string"
        },
        {
          "internalType": "address",
          "name": "_newInsuranceCompanyAddress",
          "type": "address"
        }
      ],
      "name": "updateInsuranceCompany",
      "outputs": [],
      "stateMutability": "nonpayable",
      "type": "function"
    },
    {
      "inputs": [
        {
          "internalType": "uint256",
          "name": "_patientID",
          "type": "uint256"
        }
      ],
      "name": "deleteInsuranceCompany",
      "outputs": [],
      "stateMutability": "nonpayable",
      "type": "function"
    },
    {
      "inputs": [],
      "name": "getPatientsByInsuranceCompany",
      "outputs": [
        {
          "internalType": "uint256[]",
          "name": "patientIDsList",
          "type": "uint256[]"
        },
        {
          "components": [
            {
              "internalType": "uint256",
              "name": "patientID",
              "type": "uint256"
            },
            {
              "internalType": "address",
              "name": "patientAddress",
              "type": "address"
            },
            {
              "internalType": "string",
              "name": "name",
              "type": "string"
            },
            {
              "internalType": "uint256",
              "name": "age",
              "type": "uint256"
            },
            {
              "internalType": "string",
              "name": "gender",
              "type": "string"
            },
            {
              "internalType": "string",
              "name": "insuranceCompany",
              "type": "string"
            },
            {
              "internalType": "address",
              "name": "insuranceCompanyAddress",
              "type": "address"
            },
            {
              "internalType": "address[]",
              "name": "accessProvided",
              "type": "address[]"
            }
          ],
          "internalType": "struct PatientRecords.Patient[]",
          "name": "patientList",
          "type": "tuple[]"
        }
      ],
      "stateMutability": "view",
      "type": "function",
      "constant": true
    },
    {
      "inputs": [
        {
          "internalType": "uint256",
          "name": "_patientID",
          "type": "uint256"
        },
        {
          "internalType": "uint256",
          "name": "_addressPatientID",
          "type": "uint256"
        }
      ],
      "name": "grantAccess",
      "outputs": [],
      "stateMutability": "nonpayable",
      "type": "function"
    },
    {
      "inputs": [
        {
          "internalType": "uint256",
          "name": "_patientID",
          "type": "uint256"
        },
        {
          "internalType": "uint256",
          "name": "_addressPatientID",
          "type": "uint256"
        }
      ],
      "name": "revokeAccess",
      "outputs": [],
      "stateMutability": "nonpayable",
      "type": "function"
    }
  ],
  "bytecode": "0x608060405234801561001057600080fd5b5061458e806100206000396000f3fe608060405234801561001057600080fd5b506004361061009e5760003560e01c80637fb8998f116100665780637fb8998f1461013b57806393119a831461016b578063a1f59ff8146101a1578063f1f761a9146101bd578063f9dc134d146101f45761009e565b806318a231a9146100a357806328bda524146100c8578063345f33cd146100e45780633e4d8780146101035780634f5d13771461011f575b600080fd5b6100ab610210565b6040516100bf989796959493929190613d0f565b60405180910390f35b6100e260048036038101906100dd91906133bc565b610b16565b005b6100ec610e19565b6040516100fa929190613dc5565b60405180910390f35b61011d6004803603810190610118919061347b565b61186f565b005b6101396004803603810190610134919061350b565b611cde565b005b6101556004803603810190610150919061347b565b612057565b6040516101629190613f1c565b60405180910390f35b6101856004803603810190610180919061347b565b61207b565b6040516101989796959493929190613f60565b60405180910390f35b6101bb60048036038101906101b691906134a4565b612295565b005b6101d760048036038101906101d2919061347b565b612655565b6040516101eb989796959493929190613fe4565b60405180910390f35b61020e6004803603810190610209919061350b565b612d31565b005b6060806060806060806060806000600180549050905060008167ffffffffffffffff811115610268577f4e487b7100000000000000000000000000000000000000000000000000000000600052604160045260246000fd5b6040519080825280602002602001820160405280156102965781602001602082028036833780820191505090505b50905060008267ffffffffffffffff8111156102db577f4e487b7100000000000000000000000000000000000000000000000000000000600052604160045260246000fd5b60405190808252806020026020018201604052801561030e57816020015b60608152602001906001900390816102f95790505b50905060008367ffffffffffffffff811115610353577f4e487b7100000000000000000000000000000000000000000000000000000000600052604160045260246000fd5b6040519080825280602002602001820160405280156103815781602001602082028036833780820191505090505b50905060008467ffffffffffffffff8111156103c6577f4e487b7100000000000000000000000000000000000000000000000000000000600052604160045260246000fd5b6040519080825280602002602001820160405280156103f957816020015b60608152602001906001900390816103e45790505b50905060008567ffffffffffffffff81111561043e577f4e487b7100000000000000000000000000000000000000000000000000000000600052604160045260246000fd5b60405190808252806020026020018201604052801561047157816020015b606081526020019060019003908161045c5790505b50905060008667ffffffffffffffff8111156104b6577f4e487b7100000000000000000000000000000000000000000000000000000000600052604160045260246000fd5b6040519080825280602002602001820160405280156104e45781602001602082028036833780820191505090505b50905060008767ffffffffffffffff811115610529577f4e487b7100000000000000000000000000000000000000000000000000000000600052604160045260246000fd5b60405190808252806020026020018201604052801561055c57816020015b60608152602001906001900390816105475790505b50905060005b88811015610a98576000600182815481106105a6577f4e487b7100000000000000000000000000000000000000000000000000000000600052603260045260246000fd5b90600052602060002001549050600080600083815260200190815260200160002090508060010160009054906101000a900473ffffffffffffffffffffffffffffffffffffffff168a8481518110610627577f4e487b7100000000000000000000000000000000000000000000000000000000600052603260045260246000fd5b602002602001019073ffffffffffffffffffffffffffffffffffffffff16908173ffffffffffffffffffffffffffffffffffffffff168152505080600201805461067090614411565b80601f016020809104026020016040519081016040528092919081815260200182805461069c90614411565b80156106e95780601f106106be576101008083540402835291602001916106e9565b820191906000526020600020905b8154815290600101906020018083116106cc57829003601f168201915b5050505050898481518110610727577f4e487b7100000000000000000000000000000000000000000000000000000000600052603260045260246000fd5b60200260200101819052508060030154888481518110610770577f4e487b7100000000000000000000000000000000000000000000000000000000600052603260045260246000fd5b60200260200101818152505080600401805461078b90614411565b80601f01602080910402602001604051908101604052809291908181526020018280546107b790614411565b80156108045780601f106107d957610100808354040283529160200191610804565b820191906000526020600020905b8154815290600101906020018083116107e757829003601f168201915b5050505050878481518110610842577f4e487b7100000000000000000000000000000000000000000000000000000000600052603260045260246000fd5b602002602001018190525080600501805461085c90614411565b80601f016020809104026020016040519081016040528092919081815260200182805461088890614411565b80156108d55780601f106108aa576101008083540402835291602001916108d5565b820191906000526020600020905b8154815290600101906020018083116108b857829003601f168201915b5050505050868481518110610913577f4e487b7100000000000000000000000000000000000000000000000000000000600052603260045260246000fd5b60200260200101819052508060060160009054906101000a900473ffffffffffffffffffffffffffffffffffffffff1685848151811061097c577f4e487b7100000000000000000000000000000000000000000000000000000000600052603260045260246000fd5b602002602001019073ffffffffffffffffffffffffffffffffffffffff16908173ffffffffffffffffffffffffffffffffffffffff168152505080600701805480602002602001604051908101604052809291908181526020018280548015610a3a57602002820191906000526020600020905b8160009054906101000a900473ffffffffffffffffffffffffffffffffffffffff1673ffffffffffffffffffffffffffffffffffffffff16815260200190600101908083116109f0575b5050505050848481518110610a78577f4e487b7100000000000000000000000000000000000000000000000000000000600052603260045260246000fd5b602002602001018190525050508080610a9090614443565b915050610562565b5060018787878787878787805480602002602001604051908101604052809291908181526020018280548015610aed57602002820191906000526020600020905b815481526020019060010190808311610ad9575b505050505097509f509f509f509f509f509f509f509f5050505050505050509091929394959697565b60008060018054905011610b2b576001610b8c565b60018060018080549050610b3f919061435f565b81548110610b76577f4e487b7100000000000000000000000000000000000000000000000000000000600052603260045260246000fd5b9060005260206000200154610b8b9190614309565b5b905060008060008381526020019081526020016000209050818160000181905550338160010160006101000a81548173ffffffffffffffffffffffffffffffffffffffff021916908373ffffffffffffffffffffffffffffffffffffffff1602179055506000875111610c0e5760405180602001604052806000815250610c10565b865b816002019080519060200190610c27929190613216565b508581600301819055506000855111610c4f5760405180602001604052806000815250610c51565b845b816004019080519060200190610c68929190613216565b506000845111610c875760405180602001604052806000815250610c89565b835b816005019080519060200190610ca0929190613216565b50828160060160006101000a81548173ffffffffffffffffffffffffffffffffffffffff021916908373ffffffffffffffffffffffffffffffffffffffff16021790555080600701339080600181540180825580915050600190039060005260206000200160009091909190916101000a81548173ffffffffffffffffffffffffffffffffffffffff021916908373ffffffffffffffffffffffffffffffffffffffff16021790555080600701839080600181540180825580915050600190039060005260206000200160009091909190916101000a81548173ffffffffffffffffffffffffffffffffffffffff021916908373ffffffffffffffffffffffffffffffffffffffff16021790555060018290806001815401808255809150506001900390600052602060002001600090919091909150557f6b905965000bb5754f6810e4d8a383a339c59b8ffe0680d4e1af63aca2da21558288604051610e0892919061407e565b60405180910390a150505050505050565b6060806000339050600060018054905090506000805b8281101561126457600080600060018481548110610e76577f4e487b7100000000000000000000000000000000000000000000000000000000600052603260045260246000fd5b9060005260206000200154815260200190815260200160002060405180610100016040529081600082015481526020016001820160009054906101000a900473ffffffffffffffffffffffffffffffffffffffff1673ffffffffffffffffffffffffffffffffffffffff1673ffffffffffffffffffffffffffffffffffffffff168152602001600282018054610f0b90614411565b80601f0160208091040260200160405190810160405280929190818152602001828054610f3790614411565b8015610f845780601f10610f5957610100808354040283529160200191610f84565b820191906000526020600020905b815481529060010190602001808311610f6757829003601f168201915b5050505050815260200160038201548152602001600482018054610fa790614411565b80601f0160208091040260200160405190810160405280929190818152602001828054610fd390614411565b80156110205780601f10610ff557610100808354040283529160200191611020565b820191906000526020600020905b81548152906001019060200180831161100357829003601f168201915b5050505050815260200160058201805461103990614411565b80601f016020809104026020016040519081016040528092919081815260200182805461106590614411565b80156110b25780601f10611087576101008083540402835291602001916110b2565b820191906000526020600020905b81548152906001019060200180831161109557829003601f168201915b505050505081526020016006820160009054906101000a900473ffffffffffffffffffffffffffffffffffffffff1673ffffffffffffffffffffffffffffffffffffffff1673ffffffffffffffffffffffffffffffffffffffff1681526020016007820180548060200260200160405190810160405280929190818152602001828054801561119657602002820191906000526020600020905b8160009054906101000a900473ffffffffffffffffffffffffffffffffffffffff1673ffffffffffffffffffffffffffffffffffffffff168152602001906001019080831161114c575b505050505081525050905060005b8160e001515181101561124f578573ffffffffffffffffffffffffffffffffffffffff168260e001518281518110611205577f4e487b7100000000000000000000000000000000000000000000000000000000600052603260045260246000fd5b602002602001015173ffffffffffffffffffffffffffffffffffffffff16141561123c57838061123490614443565b94505061124f565b808061124790614443565b9150506111a4565b5050808061125c90614443565b915050610e2f565b5060008167ffffffffffffffff8111156112a7577f4e487b7100000000000000000000000000000000000000000000000000000000600052604160045260246000fd5b6040519080825280602002602001820160405280156112d55781602001602082028036833780820191505090505b50905060008267ffffffffffffffff81111561131a577f4e487b7100000000000000000000000000000000000000000000000000000000600052604160045260246000fd5b60405190808252806020026020018201604052801561135357816020015b61134061329c565b8152602001906001900390816113385790505b5090506000805b8581101561185e576000806000600184815481106113a1577f4e487b7100000000000000000000000000000000000000000000000000000000600052603260045260246000fd5b9060005260206000200154815260200190815260200160002060405180610100016040529081600082015481526020016001820160009054906101000a900473ffffffffffffffffffffffffffffffffffffffff1673ffffffffffffffffffffffffffffffffffffffff1673ffffffffffffffffffffffffffffffffffffffff16815260200160028201805461143690614411565b80601f016020809104026020016040519081016040528092919081815260200182805461146290614411565b80156114af5780601f10611484576101008083540402835291602001916114af565b820191906000526020600020905b81548152906001019060200180831161149257829003601f168201915b50505050508152602001600382015481526020016004820180546114d290614411565b80601f01602080910402602001604051908101604052809291908181526020018280546114fe90614411565b801561154b5780601f106115205761010080835404028352916020019161154b565b820191906000526020600020905b81548152906001019060200180831161152e57829003601f168201915b5050505050815260200160058201805461156490614411565b80601f016020809104026020016040519081016040528092919081815260200182805461159090614411565b80156115dd5780601f106115b2576101008083540402835291602001916115dd565b820191906000526020600020905b8154815290600101906020018083116115c057829003601f168201915b505050505081526020016006820160009054906101000a900473ffffffffffffffffffffffffffffffffffffffff1673ffffffffffffffffffffffffffffffffffffffff1673ffffffffffffffffffffffffffffffffffffffff168152602001600782018054806020026020016040519081016040528092919081815260200182805480156116c157602002820191906000526020600020905b8160009054906101000a900473ffffffffffffffffffffffffffffffffffffffff1673ffffffffffffffffffffffffffffffffffffffff1681526020019060010190808311611677575b505050505081525050905060005b8160e0015151811015611849578873ffffffffffffffffffffffffffffffffffffffff168260e001518281518110611730577f4e487b7100000000000000000000000000000000000000000000000000000000600052603260045260246000fd5b602002602001015173ffffffffffffffffffffffffffffffffffffffff161415611836576001838154811061178e577f4e487b7100000000000000000000000000000000000000000000000000000000600052603260045260246000fd5b90600052602060002001548685815181106117d2577f4e487b7100000000000000000000000000000000000000000000000000000000600052603260045260246000fd5b60200260200101818152505081858581518110611818577f4e487b7100000000000000000000000000000000000000000000000000000000600052603260045260246000fd5b6020026020010181905250838061182e90614443565b945050611849565b808061184190614443565b9150506116cf565b5050808061185690614443565b91505061135a565b508282975097505050505050509091565b600080600083815260200190815260200160002090508060010160009054906101000a900473ffffffffffffffffffffffffffffffffffffffff1673ffffffffffffffffffffffffffffffffffffffff163373ffffffffffffffffffffffffffffffffffffffff1614611917576040517f08c379a000000000000000000000000000000000000000000000000000000000815260040161190e90613e1c565b60405180910390fd5b600081600501805461192890614411565b80601f016020809104026020016040519081016040528092919081815260200182805461195490614411565b80156119a15780601f10611976576101008083540402835291602001916119a1565b820191906000526020600020905b81548152906001019060200180831161198457829003601f168201915b5050505050905060008260060160009054906101000a900473ffffffffffffffffffffffffffffffffffffffff169050604051806020016040528060008152508360050190805190602001906119f8929190613216565b5060008360060160006101000a81548173ffffffffffffffffffffffffffffffffffffffff021916908373ffffffffffffffffffffffffffffffffffffffff16021790555060005b8360070180549050811015611c9c578173ffffffffffffffffffffffffffffffffffffffff16846007018281548110611aa2577f4e487b7100000000000000000000000000000000000000000000000000000000600052603260045260246000fd5b9060005260206000200160009054906101000a900473ffffffffffffffffffffffffffffffffffffffff1673ffffffffffffffffffffffffffffffffffffffff161415611c895760008190505b60018560070180549050611b03919061435f565b811015611c145784600701600182611b1b9190614309565b81548110611b52577f4e487b7100000000000000000000000000000000000000000000000000000000600052603260045260246000fd5b9060005260206000200160009054906101000a900473ffffffffffffffffffffffffffffffffffffffff16856007018281548110611bb9577f4e487b7100000000000000000000000000000000000000000000000000000000600052603260045260246000fd5b9060005260206000200160006101000a81548173ffffffffffffffffffffffffffffffffffffffff021916908373ffffffffffffffffffffffffffffffffffffffff1602179055508080611c0c90614443565b915050611aef565b5083600701805480611c4f577f4e487b7100000000000000000000000000000000000000000000000000000000600052603160045260246000fd5b6001900381819060005260206000200160006101000a81549073ffffffffffffffffffffffffffffffffffffffff02191690559055611c9c565b8080611c9490614443565b915050611a40565b507f3a6fed798606dae69ddd393ae34c111111dd2738a7c69e241dba16a4858e0e10848383604051611cd0939291906140ae565b60405180910390a150505050565b60008060008481526020019081526020016000209050600080600084815260200190815260200160002090508160010160009054906101000a900473ffffffffffffffffffffffffffffffffffffffff1673ffffffffffffffffffffffffffffffffffffffff163373ffffffffffffffffffffffffffffffffffffffff1614611d9c576040517f08c379a0000000000000000000000000000000000000000000000000000000008152600401611d9390613edc565b60405180910390fd5b600073ffffffffffffffffffffffffffffffffffffffff168160010160009054906101000a900473ffffffffffffffffffffffffffffffffffffffff1673ffffffffffffffffffffffffffffffffffffffff161415611e30576040517f08c379a0000000000000000000000000000000000000000000000000000000008152600401611e2790613e3c565b60405180910390fd5b6000805b8360070180549050811015611f1d578260010160009054906101000a900473ffffffffffffffffffffffffffffffffffffffff1673ffffffffffffffffffffffffffffffffffffffff16846007018281548110611eba577f4e487b7100000000000000000000000000000000000000000000000000000000600052603260045260246000fd5b9060005260206000200160009054906101000a900473ffffffffffffffffffffffffffffffffffffffff1673ffffffffffffffffffffffffffffffffffffffff161415611f0a5760019150611f1d565b8080611f1590614443565b915050611e34565b508015611f5f576040517f08c379a0000000000000000000000000000000000000000000000000000000008152600401611f5690613ebc565b60405180910390fd5b826007018260010160009054906101000a900473ffffffffffffffffffffffffffffffffffffffff169080600181540180825580915050600190039060005260206000200160009091909190916101000a81548173ffffffffffffffffffffffffffffffffffffffff021916908373ffffffffffffffffffffffffffffffffffffffff1602179055508160010160009054906101000a900473ffffffffffffffffffffffffffffffffffffffff1673ffffffffffffffffffffffffffffffffffffffff16857f3c3a9147a1fc73dd51a32f4d10c43d457e8cb826eb6f35cac6349eb965ba82b460405160405180910390a35050505050565b6001818154811061206757600080fd5b906000526020600020016000915090505481565b60006020528060005260406000206000915090508060000154908060010160009054906101000a900473ffffffffffffffffffffffffffffffffffffffff16908060020180546120ca90614411565b80601f01602080910402602001604051908101604052809291908181526020018280546120f690614411565b80156121435780601f1061211857610100808354040283529160200191612143565b820191906000526020600020905b81548152906001019060200180831161212657829003601f168201915b50505050509080600301549080600401805461215e90614411565b80601f016020809104026020016040519081016040528092919081815260200182805461218a90614411565b80156121d75780601f106121ac576101008083540402835291602001916121d7565b820191906000526020600020905b8154815290600101906020018083116121ba57829003601f168201915b5050505050908060050180546121ec90614411565b80601f016020809104026020016040519081016040528092919081815260200182805461221890614411565b80156122655780601f1061223a57610100808354040283529160200191612265565b820191906000526020600020905b81548152906001019060200180831161224857829003601f168201915b5050505050908060060160009054906101000a900473ffffffffffffffffffffffffffffffffffffffff16905087565b600080600085815260200190815260200160002090508060010160009054906101000a900473ffffffffffffffffffffffffffffffffffffffff1673ffffffffffffffffffffffffffffffffffffffff163373ffffffffffffffffffffffffffffffffffffffff161461233d576040517f08c379a000000000000000000000000000000000000000000000000000000000815260040161233490613efc565b60405180910390fd5b600081600501805461234e90614411565b80601f016020809104026020016040519081016040528092919081815260200182805461237a90614411565b80156123c75780601f1061239c576101008083540402835291602001916123c7565b820191906000526020600020905b8154815290600101906020018083116123aa57829003601f168201915b5050505050905060008260060160009054906101000a900473ffffffffffffffffffffffffffffffffffffffff1690508483600501908051906020019061240f929190613216565b50838360060160006101000a81548173ffffffffffffffffffffffffffffffffffffffff021916908373ffffffffffffffffffffffffffffffffffffffff1602179055506000805b84600701805490508110156125a1578273ffffffffffffffffffffffffffffffffffffffff168560070182815481106124b9577f4e487b7100000000000000000000000000000000000000000000000000000000600052603260045260246000fd5b9060005260206000200160009054906101000a900473ffffffffffffffffffffffffffffffffffffffff1673ffffffffffffffffffffffffffffffffffffffff16141561258e578585600701828154811061253d577f4e487b7100000000000000000000000000000000000000000000000000000000600052603260045260246000fd5b9060005260206000200160006101000a81548173ffffffffffffffffffffffffffffffffffffffff021916908373ffffffffffffffffffffffffffffffffffffffff160217905550600191506125a1565b808061259990614443565b915050612457565b508061260d5783600701859080600181540180825580915050600190039060005260206000200160009091909190916101000a81548173ffffffffffffffffffffffffffffffffffffffff021916908373ffffffffffffffffffffffffffffffffffffffff1602179055505b7fff9d8f76558ce6b05db593351a8dc296c1340c8fe972d4bd4e014477c5e7f5fa87848489896040516126449594939291906140ec565b60405180910390a150505050505050565b60008060606000606080600060606000600180549050905060008114156126fc57600080600080604051806020016040528060008152509190604051806020016040528060008152509060405180602001604052806000815250906040518060400160405280601081526020017f4e6f207265636f72647320666f756e64000000000000000000000000000000008152509850985098509850985098509850985050612d26565b61270461329c565b6000805b83811015612af5578c6000806001848154811061274e577f4e487b7100000000000000000000000000000000000000000000000000000000600052603260045260246000fd5b90600052602060002001548152602001908152602001600020600001541415612ae257600080600183815481106127ae577f4e487b7100000000000000000000000000000000000000000000000000000000600052603260045260246000fd5b9060005260206000200154815260200190815260200160002060405180610100016040529081600082015481526020016001820160009054906101000a900473ffffffffffffffffffffffffffffffffffffffff1673ffffffffffffffffffffffffffffffffffffffff1673ffffffffffffffffffffffffffffffffffffffff16815260200160028201805461284390614411565b80601f016020809104026020016040519081016040528092919081815260200182805461286f90614411565b80156128bc5780601f10612891576101008083540402835291602001916128bc565b820191906000526020600020905b81548152906001019060200180831161289f57829003601f168201915b50505050508152602001600382015481526020016004820180546128df90614411565b80601f016020809104026020016040519081016040528092919081815260200182805461290b90614411565b80156129585780601f1061292d57610100808354040283529160200191612958565b820191906000526020600020905b81548152906001019060200180831161293b57829003601f168201915b5050505050815260200160058201805461297190614411565b80601f016020809104026020016040519081016040528092919081815260200182805461299d90614411565b80156129ea5780601f106129bf576101008083540402835291602001916129ea565b820191906000526020600020905b8154815290600101906020018083116129cd57829003601f168201915b505050505081526020016006820160009054906101000a900473ffffffffffffffffffffffffffffffffffffffff1673ffffffffffffffffffffffffffffffffffffffff1673ffffffffffffffffffffffffffffffffffffffff16815260200160078201805480602002602001604051908101604052809291908181526020018280548015612ace57602002820191906000526020600020905b8160009054906101000a900473ffffffffffffffffffffffffffffffffffffffff1673ffffffffffffffffffffffffffffffffffffffff1681526020019060010190808311612a84575b505050505081525050925060019150612af5565b8080612aed90614443565b915050612708565b5080612b8357600080600080604051806020016040528060008152509190604051806020016040528060008152509060405180602001604052806000815250906040518060400160405280601181526020017f50617469656e74206e6f7420666f756e640000000000000000000000000000008152509a509a509a509a509a509a509a509a50505050612d26565b6000805b8360e0015151811015612c28573373ffffffffffffffffffffffffffffffffffffffff168460e001518281518110612be8577f4e487b7100000000000000000000000000000000000000000000000000000000600052603260045260246000fd5b602002602001015173ffffffffffffffffffffffffffffffffffffffff161415612c155760019150612c28565b8080612c2090614443565b915050612b87565b508015612ca157826000015183602001518460400151856060015186608001518760a001518860c001516040518060400160405280600e81526020017f416363657373206772616e7465640000000000000000000000000000000000008152509b509b509b509b509b509b509b509b5050505050612d26565b600080600080604051806020016040528060008152509190604051806020016040528060008152509060405180602001604052806000815250906040518060400160405280601381526020017f556e617574686f72697a656420616363657373000000000000000000000000008152509b509b509b509b509b509b509b509b50505050505b919395975091939597565b60008060008481526020019081526020016000209050600073ffffffffffffffffffffffffffffffffffffffff168160010160009054906101000a900473ffffffffffffffffffffffffffffffffffffffff1673ffffffffffffffffffffffffffffffffffffffff161415612ddb576040517f08c379a0000000000000000000000000000000000000000000000000000000008152600401612dd290613dfc565b60405180910390fd5b60008060008481526020019081526020016000209050600073ffffffffffffffffffffffffffffffffffffffff168160010160009054906101000a900473ffffffffffffffffffffffffffffffffffffffff1673ffffffffffffffffffffffffffffffffffffffff161415612e85576040517f08c379a0000000000000000000000000000000000000000000000000000000008152600401612e7c90613e5c565b60405180910390fd5b8160010160009054906101000a900473ffffffffffffffffffffffffffffffffffffffff1673ffffffffffffffffffffffffffffffffffffffff163373ffffffffffffffffffffffffffffffffffffffff1614612f17576040517f08c379a0000000000000000000000000000000000000000000000000000000008152600401612f0e90613e7c565b60405180910390fd5b6000805b8360070180549050811015613171578260010160009054906101000a900473ffffffffffffffffffffffffffffffffffffffff1673ffffffffffffffffffffffffffffffffffffffff16846007018281548110612fa1577f4e487b7100000000000000000000000000000000000000000000000000000000600052603260045260246000fd5b9060005260206000200160009054906101000a900473ffffffffffffffffffffffffffffffffffffffff1673ffffffffffffffffffffffffffffffffffffffff16141561315e578360070160018560070180549050613000919061435f565b81548110613037577f4e487b7100000000000000000000000000000000000000000000000000000000600052603260045260246000fd5b9060005260206000200160009054906101000a900473ffffffffffffffffffffffffffffffffffffffff1684600701828154811061309e577f4e487b7100000000000000000000000000000000000000000000000000000000600052603260045260246000fd5b9060005260206000200160006101000a81548173ffffffffffffffffffffffffffffffffffffffff021916908373ffffffffffffffffffffffffffffffffffffffff16021790555083600701805480613120577f4e487b7100000000000000000000000000000000000000000000000000000000600052603160045260246000fd5b6001900381819060005260206000200160006101000a81549073ffffffffffffffffffffffffffffffffffffffff0219169055905560019150613171565b808061316990614443565b915050612f1b565b50806131b2576040517f08c379a00000000000000000000000000000000000000000000000000000000081526004016131a990613e9c565b60405180910390fd5b7f125883b94692baebecad9f111ed97ffa626523bbbadc6b0ef85ee1b56b9e52d5858360010160009054906101000a900473ffffffffffffffffffffffffffffffffffffffff16604051613207929190613f37565b60405180910390a15050505050565b82805461322290614411565b90600052602060002090601f016020900481019282613244576000855561328b565b82601f1061325d57805160ff191683800117855561328b565b8280016001018555821561328b579182015b8281111561328a57825182559160200191906001019061326f565b5b509050613298919061330d565b5090565b60405180610100016040528060008152602001600073ffffffffffffffffffffffffffffffffffffffff16815260200160608152602001600081526020016060815260200160608152602001600073ffffffffffffffffffffffffffffffffffffffff168152602001606081525090565b5b8082111561332657600081600090555060010161330e565b5090565b600061333d6133388461417e565b61414d565b90508281526020810184848401111561335557600080fd5b6133608482856143cf565b509392505050565b6000813590506133778161452a565b92915050565b600082601f83011261338e57600080fd5b813561339e84826020860161332a565b91505092915050565b6000813590506133b681614541565b92915050565b600080600080600060a086880312156133d457600080fd5b600086013567ffffffffffffffff8111156133ee57600080fd5b6133fa8882890161337d565b955050602061340b888289016133a7565b945050604086013567ffffffffffffffff81111561342857600080fd5b6134348882890161337d565b935050606086013567ffffffffffffffff81111561345157600080fd5b61345d8882890161337d565b925050608061346e88828901613368565b9150509295509295909350565b60006020828403121561348d57600080fd5b600061349b848285016133a7565b91505092915050565b6000806000606084860312156134b957600080fd5b60006134c7868287016133a7565b935050602084013567ffffffffffffffff8111156134e457600080fd5b6134f08682870161337d565b925050604061350186828701613368565b9150509250925092565b6000806040838503121561351e57600080fd5b600061352c858286016133a7565b925050602061353d858286016133a7565b9150509250929050565b600061355383836135b3565b60208301905092915050565b600061356b83836135d1565b905092915050565b600061357f838361384a565b905092915050565b60006135938383613c2c565b905092915050565b60006135a78383613cf1565b60208301905092915050565b6135bc81614393565b82525050565b6135cb81614393565b82525050565b60006135dc826141fe565b6135e68185614281565b93506135f1836141ae565b8060005b838110156136225781516136098882613547565b975061361483614240565b9250506001810190506135f5565b5085935050505092915050565b600061363a826141fe565b6136448185614292565b935061364f836141ae565b8060005b838110156136805781516136678882613547565b975061367283614240565b925050600181019050613653565b5085935050505092915050565b600061369882614209565b6136a281856142a3565b9350836020820285016136b4856141be565b8060005b858110156136f057848403895281516136d1858261355f565b94506136dc8361424d565b925060208a019950506001810190506136b8565b50829750879550505050505092915050565b600061370d82614214565b61371781856142b4565b935083602082028501613729856141ce565b8060005b8581101561376557848403895281516137468582613573565b94506137518361425a565b925060208a0199505060018101905061372d565b50829750879550505050505092915050565b60006137828261421f565b61378c81856142c5565b93508360208202850161379e856141de565b8060005b858110156137da57848403895281516137bb8582613587565b94506137c683614267565b925060208a019950506001810190506137a2565b50829750879550505050505092915050565b60006137f78261422a565b61380181856142d6565b935061380c836141ee565b8060005b8381101561383d578151613824888261359b565b975061382f83614274565b925050600181019050613810565b5085935050505092915050565b600061385582614235565b61385f81856142e7565b935061386f8185602086016143de565b61387881614519565b840191505092915050565b600061388e82614235565b61389881856142f8565b93506138a88185602086016143de565b6138b181614519565b840191505092915050565b60006138c9602b836142f8565b91507f496e76616c69642070617469656e742049443a2050617469656e7420646f657360008301527f206e6f742065786973742e0000000000000000000000000000000000000000006020830152604082019050919050565b600061392f6040836142f8565b91507f556e617574686f72697a65643a204f6e6c79207468652070617469656e74206360008301527f616e2064656c6574652074686520696e737572616e636520636f6d70616e792e6020830152604082019050919050565b6000613995603c836142f8565b91507f496e76616c69642070617469656e742049443a2050617469656e7420746f206760008301527f72616e74206163636573732c20646f6573206e6f742065786973742e000000006020830152604082019050919050565b60006139fb603c836142f8565b91507f496e76616c69642070617469656e742049443a2050617469656e7420746f207260008301527f65766f6b652061636365737320646f6573206e6f742065786973742e000000006020830152604082019050919050565b6000613a616031836142f8565b91507f556e617574686f72697a65643a204f6e6c79207468652070617469656e74206360008301527f616e207265766f6b65206163636573732e0000000000000000000000000000006020830152604082019050919050565b6000613ac76025836142f8565b91507f41646472657373206e6f7420666f756e6420696e20746865206163636573732060008301527f6c6973742e0000000000000000000000000000000000000000000000000000006020830152604082019050919050565b6000613b2d6020836142f8565b91507f54686973206164647265737320616c726561647920686173206163636573732e6000830152602082019050919050565b6000613b6d6030836142f8565b91507f556e617574686f72697a65643a204f6e6c79207468652070617469656e74206360008301527f616e206772616e74206163636573732e000000000000000000000000000000006020830152604082019050919050565b6000613bd36036836142f8565b91507f556e617574686f72697a65643a204f6e6c79207468652070617469656e74206360008301527f616e207570646174652074686973207265636f72642e000000000000000000006020830152604082019050919050565b600061010083016000830151613c456000860182613cf1565b506020830151613c5860208601826135b3565b5060408301518482036040860152613c70828261384a565b9150506060830151613c856060860182613cf1565b5060808301518482036080860152613c9d828261384a565b91505060a083015184820360a0860152613cb7828261384a565b91505060c0830151613ccc60c08601826135b3565b5060e083015184820360e0860152613ce482826135d1565b9150508091505092915050565b613cfa816143c5565b82525050565b613d09816143c5565b82525050565b6000610100820190508181036000830152613d2a818b6137ec565b90508181036020830152613d3e818a61362f565b90508181036040830152613d528189613702565b90508181036060830152613d6681886137ec565b90508181036080830152613d7a8187613702565b905081810360a0830152613d8e8186613702565b905081810360c0830152613da2818561362f565b905081810360e0830152613db6818461368d565b90509998505050505050505050565b60006040820190508181036000830152613ddf81856137ec565b90508181036020830152613df38184613777565b90509392505050565b60006020820190508181036000830152613e15816138bc565b9050919050565b60006020820190508181036000830152613e3581613922565b9050919050565b60006020820190508181036000830152613e5581613988565b9050919050565b60006020820190508181036000830152613e75816139ee565b9050919050565b60006020820190508181036000830152613e9581613a54565b9050919050565b60006020820190508181036000830152613eb581613aba565b9050919050565b60006020820190508181036000830152613ed581613b20565b9050919050565b60006020820190508181036000830152613ef581613b60565b9050919050565b60006020820190508181036000830152613f1581613bc6565b9050919050565b6000602082019050613f316000830184613d00565b92915050565b6000604082019050613f4c6000830185613d00565b613f5960208301846135c2565b9392505050565b600060e082019050613f75600083018a613d00565b613f8260208301896135c2565b8181036040830152613f948188613883565b9050613fa36060830187613d00565b8181036080830152613fb58186613883565b905081810360a0830152613fc98185613883565b9050613fd860c08301846135c2565b98975050505050505050565b600061010082019050613ffa600083018b613d00565b614007602083018a6135c2565b81810360408301526140198189613883565b90506140286060830188613d00565b818103608083015261403a8187613883565b905081810360a083015261404e8186613883565b905061405d60c08301856135c2565b81810360e083015261406f8184613883565b90509998505050505050505050565b60006040820190506140936000830185613d00565b81810360208301526140a58184613883565b90509392505050565b60006060820190506140c36000830186613d00565b81810360208301526140d58185613883565b90506140e460408301846135c2565b949350505050565b600060a0820190506141016000830188613d00565b81810360208301526141138187613883565b905061412260408301866135c2565b81810360608301526141348185613883565b905061414360808301846135c2565b9695505050505050565b6000604051905081810181811067ffffffffffffffff82111715614174576141736144ea565b5b8060405250919050565b600067ffffffffffffffff821115614199576141986144ea565b5b601f19601f8301169050602081019050919050565b6000819050602082019050919050565b6000819050602082019050919050565b6000819050602082019050919050565b6000819050602082019050919050565b6000819050602082019050919050565b600081519050919050565b600081519050919050565b600081519050919050565b600081519050919050565b600081519050919050565b600081519050919050565b6000602082019050919050565b6000602082019050919050565b6000602082019050919050565b6000602082019050919050565b6000602082019050919050565b600082825260208201905092915050565b600082825260208201905092915050565b600082825260208201905092915050565b600082825260208201905092915050565b600082825260208201905092915050565b600082825260208201905092915050565b600082825260208201905092915050565b600082825260208201905092915050565b6000614314826143c5565b915061431f836143c5565b9250827fffffffffffffffffffffffffffffffffffffffffffffffffffffffffffffffff038211156143545761435361448c565b5b828201905092915050565b600061436a826143c5565b9150614375836143c5565b9250828210156143885761438761448c565b5b828203905092915050565b600061439e826143a5565b9050919050565b600073ffffffffffffffffffffffffffffffffffffffff82169050919050565b6000819050919050565b82818337600083830152505050565b60005b838110156143fc5780820151818401526020810190506143e1565b8381111561440b576000848401525b50505050565b6000600282049050600182168061442957607f821691505b6020821081141561443d5761443c6144bb565b5b50919050565b600061444e826143c5565b91507fffffffffffffffffffffffffffffffffffffffffffffffffffffffffffffffff8214156144815761448061448c565b5b600182019050919050565b7f4e487b7100000000000000000000000000000000000000000000000000000000600052601160045260246000fd5b7f4e487b7100000000000000000000000000000000000000000000000000000000600052602260045260246000fd5b7f4e487b7100000000000000000000000000000000000000000000000000000000600052604160045260246000fd5b6000601f19601f8301169050919050565b61453381614393565b811461453e57600080fd5b50565b61454a816143c5565b811461455557600080fd5b5056fea2646970667358221220d7f2594c6e3a52b48b9e2a6385223b73a703b9858fd43d7dc45f320ca97cbeab64736f6c63430008000033",
  "immutableReferences": {},
  "source": "// SPDX-License-Identifier: MIT\npragma solidity ^0.8.0;\n\ncontract PatientRecords {\n    struct Patient {\n        uint patientID;\n        address patientAddress;\n        string name;\n        uint age;\n        string gender;\n        string insuranceCompany;\n        address insuranceCompanyAddress;\n        address[] accessProvided;\n    }\n\n    mapping(uint => Patient) public patients;\n    uint[] public patientIDs;\n\n    event PatientAdded(uint patientID, string name);\n    event InsuranceCompanyUpdated(uint patientID, string oldInsuranceCompany, address oldInsuranceCompanyAddress, string newInsuranceCompany, address newInsuranceCompanyAddress);\n    event InsuranceCompanyDeleted(uint patientID, string oldInsuranceCompany, address oldInsuranceCompanyAddress);\n    event AccessGranted(uint indexed patientID, address indexed newAddress);\n    event AccessRevoked(uint patientID, address revokedAddress);\n\n\n    function addPatient(\n        string memory _name,\n        uint _age,\n        string memory _gender,\n        string memory _insuranceCompany,\n        address _insuranceCompanyAddress\n    ) public {\n\n        uint newPatientID = patientIDs.length > 0 ? patientIDs[patientIDs.length - 1] + 1 : 1;\n        \n        Patient storage newPatient = patients[newPatientID];\n        // Initialize the Patient fields\n        newPatient.patientID = newPatientID;\n        newPatient.patientAddress = msg.sender;\n        newPatient.name = bytes(_name).length > 0 ? _name : \"\";\n        newPatient.age = _age;\n        newPatient.gender = bytes(_gender).length > 0 ? _gender : \"\";\n        newPatient.insuranceCompany = bytes(_insuranceCompany).length > 0 ? _insuranceCompany : \"\";\n        newPatient.insuranceCompanyAddress = _insuranceCompanyAddress;\n       \n        // Add addresses to the access_provided array in storage\n        newPatient.accessProvided.push(msg.sender);\n        newPatient.accessProvided.push(_insuranceCompanyAddress);\n\n        // Add patientID to the list of IDs\n        patientIDs.push(newPatientID);\n\n        emit PatientAdded(newPatientID, _name);\n    }\n\n    function getPatientByID(uint _patientID)\n        public\n        view\n        returns (\n            uint patientID,\n            address patientAddress,\n            string memory name,\n            uint age,\n            string memory gender,\n            string memory insuranceCompany,\n            address insuranceCompanyAddress,\n            string memory status\n        )\n    {\n        uint length = patientIDs.length;\n\n        // Check if there are no patient records\n        if (length == 0) {\n            return (0, address(0), \"\", 0, \"\", \"\", address(0), \"No records found\");\n        }\n\n        Patient memory patient;\n        bool found = false;\n\n        // Find the patient by the provided patientID\n        for (uint i = 0; i < length; i++) {\n            if (patients[patientIDs[i]].patientID == _patientID) {\n                patient = patients[patientIDs[i]];\n                found = true;\n                break;\n            }\n        }\n\n        // Check if the patient was found\n        if (!found) {\n            return (0, address(0), \"\", 0, \"\", \"\", address(0), \"Patient not found\");\n        }\n\n        // Check if msg.sender is in the accessProvided array\n        bool accessGranted = false;\n        for (uint j = 0; j < patient.accessProvided.length; j++) {\n            if (patient.accessProvided[j] == msg.sender) {\n                accessGranted = true;\n                break;\n            }\n        }\n\n        // If access is granted, return the patient data\n        if (accessGranted) {\n            return (\n                patient.patientID,\n                patient.patientAddress,\n                patient.name,\n                patient.age,\n                patient.gender,\n                patient.insuranceCompany,\n                patient.insuranceCompanyAddress,\n                \"Access granted\"\n            );\n        } else {\n            return (0, address(0), \"\", 0, \"\", \"\", address(0), \"Unauthorized access\");\n        }\n    }\n\n\n    function getAllPatients()\n        public\n        view\n        returns (\n            uint[] memory patientIDsList,\n            address[] memory patientAddresses,\n            string[] memory names,\n            uint[] memory ages,\n            string[] memory genders,\n            string[] memory insuranceCompanies,\n            address[] memory insuranceCompanyAddresses,\n            address[][] memory accessProvidedLists\n        )\n    {   \n        uint length = patientIDs.length;\n\n        // Create memory arrays for each patient property\n        address[] memory _patientAddresses = new address[](length);\n        string[] memory _names = new string[](length);\n        uint[] memory _ages = new uint[](length);\n        string[] memory _genders = new string[](length);\n        string[] memory _insuranceCompanies = new string[](length);\n        address[] memory _insuranceCompanyAddresses = new address[](length);\n        address[][] memory _accessProvidedLists = new address[][](length);  // Array of arrays\n\n        for (uint i = 0; i < length; i++) {\n            uint patientID = patientIDs[i];\n            Patient storage patient = patients[patientID];\n\n            // Populate memory arrays with patient data\n            _patientAddresses[i] = patient.patientAddress;\n            _names[i] = patient.name;\n            _ages[i] = patient.age;\n            _genders[i] = patient.gender;\n            _insuranceCompanies[i] = patient.insuranceCompany;\n            _insuranceCompanyAddresses[i] = patient.insuranceCompanyAddress;\n            _accessProvidedLists[i] = patient.accessProvided;  // Store dynamic access list\n        }\n        \n        // Return all patient data including accessProvided array\n        return (\n            patientIDs,\n            _patientAddresses,\n            _names,\n            _ages,\n            _genders,\n            _insuranceCompanies,\n            _insuranceCompanyAddresses,\n            _accessProvidedLists\n        );\n    }\n\n    function updateInsuranceCompany(\n        uint _patientID,\n        string memory _newInsuranceCompany,\n        address _newInsuranceCompanyAddress\n    ) public {\n        Patient storage patient = patients[_patientID];\n\n        // Allow update only if the caller is the patient\n        require(\n            msg.sender == patient.patientAddress,\n            \"Unauthorized: Only the patient can update this record.\"\n        );\n\n        string memory oldInsuranceCompany = patient.insuranceCompany;\n        address oldInsuranceCompanyAddress = patient.insuranceCompanyAddress;\n\n        // Update the insurance company details\n        patient.insuranceCompany = _newInsuranceCompany;\n        patient.insuranceCompanyAddress = _newInsuranceCompanyAddress;\n\n        // Replace old insurance company address in the accessProvided array with the new address\n        bool replaced = false;\n        for (uint i = 0; i < patient.accessProvided.length; i++) {\n            if (patient.accessProvided[i] == oldInsuranceCompanyAddress) {\n                patient.accessProvided[i] = _newInsuranceCompanyAddress;\n                replaced = true;\n                break;\n            }\n        }\n\n        // If the old insurance company address was not found in the array, add the new address\n        if (!replaced) {\n            patient.accessProvided.push(_newInsuranceCompanyAddress);\n        }\n\n        emit InsuranceCompanyUpdated(\n            _patientID,\n            oldInsuranceCompany,\n            oldInsuranceCompanyAddress,\n            _newInsuranceCompany,\n            _newInsuranceCompanyAddress\n        );\n    }\n\n    function deleteInsuranceCompany(uint _patientID) public {\n        Patient storage patient = patients[_patientID];\n\n        // Allow deletion only if the caller is the patient\n        require(\n            msg.sender == patient.patientAddress,\n            \"Unauthorized: Only the patient can delete the insurance company.\"\n        );\n\n        string memory oldInsuranceCompany = patient.insuranceCompany;\n        address oldInsuranceCompanyAddress = patient.insuranceCompanyAddress;\n\n        // Reset the insurance company details\n        patient.insuranceCompany = \"\";\n        patient.insuranceCompanyAddress = address(0);\n\n        // Revoke access by removing the old insurance company address from the accessProvided array\n        for (uint i = 0; i < patient.accessProvided.length; i++) {\n            if (patient.accessProvided[i] == oldInsuranceCompanyAddress) {\n                // Remove the address by shifting the elements in the array\n                for (uint j = i; j < patient.accessProvided.length - 1; j++) {\n                    patient.accessProvided[j] = patient.accessProvided[j + 1];\n                }\n                patient.accessProvided.pop(); // Reduce the array length\n                break; // Exit the loop once the insurance company address is found and removed\n            }\n        }\n\n        emit InsuranceCompanyDeleted(_patientID, oldInsuranceCompany, oldInsuranceCompanyAddress);\n    }\n\n    function getPatientsByInsuranceCompany()\n        public\n        view\n        returns (\n            uint[] memory patientIDsList,\n            Patient[] memory patientList\n        )\n    {\n        address insuranceCompanyAddress = msg.sender;\n        uint length = patientIDs.length;\n        uint count = 0;\n\n        // First, count how many patients have granted access to the caller (insurance company)\n        for (uint i = 0; i < length; i++) {\n            Patient memory patient = patients[patientIDs[i]];\n            for (uint j = 0; j < patient.accessProvided.length; j++) {\n                if (patient.accessProvided[j] == insuranceCompanyAddress) {\n                    count++;\n                    break; // Break once the address is found\n                }\n            }\n        }\n\n        // Create arrays to hold the results\n        uint[] memory ids = new uint[](count);\n        Patient[] memory patientsList = new Patient[](count);\n\n        uint index = 0;\n        for (uint i = 0; i < length; i++) {\n            Patient memory patient = patients[patientIDs[i]];\n            for (uint j = 0; j < patient.accessProvided.length; j++) {\n                if (patient.accessProvided[j] == insuranceCompanyAddress) {\n                    ids[index] = patientIDs[i];\n                    patientsList[index] = patient;\n                    index++;\n                    break; // Break once the address is found\n                }\n            }\n        }\n\n        return (ids, patientsList);\n    }\n\n    function grantAccess(uint _patientID, uint _addressPatientID) public {\n        // Get the patient record for the patient granting access\n        Patient storage patient = patients[_patientID];\n        \n        // Get the patient record for the patient receiving access\n        Patient storage addressPatient = patients[_addressPatientID];\n\n        // Only the patient can grant access\n        require(\n            msg.sender == patient.patientAddress,\n            \"Unauthorized: Only the patient can grant access.\"\n        );\n        \n        // Check if the addressPatientID exists\n        require(\n            addressPatient.patientAddress != address(0),\n            \"Invalid patient ID: Patient to grant access, does not exist.\"\n        );\n\n        // Check if the address is already in the accessProvided list\n        bool alreadyHasAccess = false;\n        for (uint i = 0; i < patient.accessProvided.length; i++) {\n            if (patient.accessProvided[i] == addressPatient.patientAddress) {\n                alreadyHasAccess = true;\n                break;\n            }\n        }\n\n        require(\n            !alreadyHasAccess,\n            \"This address already has access.\"\n        );\n\n        // Add the new address to the accessProvided list\n        patient.accessProvided.push(addressPatient.patientAddress);\n\n        emit AccessGranted(_patientID, addressPatient.patientAddress);\n    }\n\n\n    function revokeAccess(uint _patientID, uint _addressPatientID) public {\n        // Get the patient record for the patient revoking access\n        Patient storage patient = patients[_patientID];\n\n        // Ensure that the patient exists\n        require(patient.patientAddress != address(0), \"Invalid patient ID: Patient does not exist.\");\n\n        // Get the patient record for the patient whose access is being revoked\n        Patient storage addressPatient = patients[_addressPatientID];\n\n        // Ensure that the patient being revoked exists\n        require(addressPatient.patientAddress != address(0), \"Invalid patient ID: Patient to revoke access does not exist.\");\n\n        // Only the patient can revoke access\n        require(\n            msg.sender == patient.patientAddress,\n            \"Unauthorized: Only the patient can revoke access.\"\n        );\n\n        // Find the address in the accessProvided list and remove it\n        bool addressFound = false;\n        for (uint i = 0; i < patient.accessProvided.length; i++) {\n            if (patient.accessProvided[i] == addressPatient.patientAddress) {\n                // Remove the address by shifting the last element to the current position and reducing the array size\n                patient.accessProvided[i] = patient.accessProvided[patient.accessProvided.length - 1];\n                patient.accessProvided.pop();\n                addressFound = true;\n                break;\n            }\n        }\n\n        // If the address was not found in the list, revert the transaction\n        require(addressFound, \"Address not found in the access list.\");\n\n        // Emit the event after successful revocation\n        emit AccessRevoked(_patientID, addressPatient.patientAddress);\n    }\n\n}\n",
  "sourcePath": "C:\\Users\\Sarthak\\Desktop\\BlockchainProjects\\EHR_Management\\v.0.1_PatientRecords\\contracts\\PatientRecords.sol",
  "compiler": {
    "name": "solc",
    "version": "0.8.0+commit.c7dfd78e.Emscripten.clang"
  },
  "schemaVersion": "3.4.16",
  "updatedAt": "2024-09-06T07:22:38.809Z",
  "networkType": "ethereum",
  "devdoc": {
    "kind": "dev",
    "methods": {},
    "version": 1
  },
  "userdoc": {
    "kind": "user",
    "methods": {},
    "version": 1
  }
}