{
  "contractName": "PatientRecords",
  "abi": [
    {
      "anonymous": false,
      "inputs": [
        {
          "indexed": false,
          "internalType": "uint256",
          "name": "patientID",
          "type": "uint256"
        },
        {
          "indexed": false,
          "internalType": "string",
          "name": "oldInsuranceCompany",
          "type": "string"
        },
        {
          "indexed": false,
          "internalType": "address",
          "name": "oldInsuranceCompanyAddress",
          "type": "address"
        }
      ],
      "name": "InsuranceCompanyDeleted",
      "type": "event"
    },
    {
      "anonymous": false,
      "inputs": [
        {
          "indexed": false,
          "internalType": "uint256",
          "name": "patientID",
          "type": "uint256"
        },
        {
          "indexed": false,
          "internalType": "string",
          "name": "oldInsuranceCompany",
          "type": "string"
        },
        {
          "indexed": false,
          "internalType": "address",
          "name": "oldInsuranceCompanyAddress",
          "type": "address"
        },
        {
          "indexed": false,
          "internalType": "string",
          "name": "newInsuranceCompany",
          "type": "string"
        },
        {
          "indexed": false,
          "internalType": "address",
          "name": "newInsuranceCompanyAddress",
          "type": "address"
        }
      ],
      "name": "InsuranceCompanyUpdated",
      "type": "event"
    },
    {
      "anonymous": false,
      "inputs": [
        {
          "indexed": false,
          "internalType": "uint256",
          "name": "patientID",
          "type": "uint256"
        },
        {
          "indexed": false,
          "internalType": "string",
          "name": "name",
          "type": "string"
        }
      ],
      "name": "PatientAdded",
      "type": "event"
    },
    {
      "inputs": [
        {
          "internalType": "uint256",
          "name": "",
          "type": "uint256"
        }
      ],
      "name": "patientIDs",
      "outputs": [
        {
          "internalType": "uint256",
          "name": "",
          "type": "uint256"
        }
      ],
      "stateMutability": "view",
      "type": "function",
      "constant": true
    },
    {
      "inputs": [
        {
          "internalType": "uint256",
          "name": "",
          "type": "uint256"
        }
      ],
      "name": "patients",
      "outputs": [
        {
          "internalType": "uint256",
          "name": "patientID",
          "type": "uint256"
        },
        {
          "internalType": "address",
          "name": "patientAddress",
          "type": "address"
        },
        {
          "internalType": "string",
          "name": "name",
          "type": "string"
        },
        {
          "internalType": "uint256",
          "name": "age",
          "type": "uint256"
        },
        {
          "internalType": "string",
          "name": "gender",
          "type": "string"
        },
        {
          "internalType": "string",
          "name": "insuranceCompany",
          "type": "string"
        },
        {
          "internalType": "address",
          "name": "insuranceCompanyAddress",
          "type": "address"
        }
      ],
      "stateMutability": "view",
      "type": "function",
      "constant": true
    },
    {
      "inputs": [
        {
          "internalType": "string",
          "name": "_name",
          "type": "string"
        },
        {
          "internalType": "uint256",
          "name": "_age",
          "type": "uint256"
        },
        {
          "internalType": "string",
          "name": "_gender",
          "type": "string"
        },
        {
          "internalType": "string",
          "name": "_insuranceCompany",
          "type": "string"
        },
        {
          "internalType": "address",
          "name": "_insuranceCompanyAddress",
          "type": "address"
        }
      ],
      "name": "addPatient",
      "outputs": [],
      "stateMutability": "nonpayable",
      "type": "function"
    },
    {
      "inputs": [
        {
          "internalType": "address",
          "name": "_patientAddress",
          "type": "address"
        }
      ],
      "name": "getPatientByAddress",
      "outputs": [
        {
          "internalType": "uint256",
          "name": "patientID",
          "type": "uint256"
        },
        {
          "internalType": "address",
          "name": "patientAddress",
          "type": "address"
        },
        {
          "internalType": "string",
          "name": "name",
          "type": "string"
        },
        {
          "internalType": "uint256",
          "name": "age",
          "type": "uint256"
        },
        {
          "internalType": "string",
          "name": "gender",
          "type": "string"
        },
        {
          "internalType": "string",
          "name": "insuranceCompany",
          "type": "string"
        },
        {
          "internalType": "address",
          "name": "insuranceCompanyAddress",
          "type": "address"
        },
        {
          "internalType": "string",
          "name": "status",
          "type": "string"
        }
      ],
      "stateMutability": "view",
      "type": "function",
      "constant": true
    },
    {
      "inputs": [],
      "name": "getAllPatients",
      "outputs": [
        {
          "internalType": "uint256[]",
          "name": "patientIDsList",
          "type": "uint256[]"
        },
        {
          "components": [
            {
              "internalType": "uint256",
              "name": "patientID",
              "type": "uint256"
            },
            {
              "internalType": "address",
              "name": "patientAddress",
              "type": "address"
            },
            {
              "internalType": "string",
              "name": "name",
              "type": "string"
            },
            {
              "internalType": "uint256",
              "name": "age",
              "type": "uint256"
            },
            {
              "internalType": "string",
              "name": "gender",
              "type": "string"
            },
            {
              "internalType": "string",
              "name": "insuranceCompany",
              "type": "string"
            },
            {
              "internalType": "address",
              "name": "insuranceCompanyAddress",
              "type": "address"
            }
          ],
          "internalType": "struct PatientRecords.Patient[]",
          "name": "patientList",
          "type": "tuple[]"
        }
      ],
      "stateMutability": "view",
      "type": "function",
      "constant": true
    },
    {
      "inputs": [
        {
          "internalType": "uint256",
          "name": "_patientID",
          "type": "uint256"
        },
        {
          "internalType": "string",
          "name": "_newInsuranceCompany",
          "type": "string"
        },
        {
          "internalType": "address",
          "name": "_newInsuranceCompanyAddress",
          "type": "address"
        }
      ],
      "name": "updateInsuranceCompany",
      "outputs": [],
      "stateMutability": "nonpayable",
      "type": "function"
    },
    {
      "inputs": [
        {
          "internalType": "uint256",
          "name": "_patientID",
          "type": "uint256"
        }
      ],
      "name": "deleteInsuranceCompany",
      "outputs": [],
      "stateMutability": "nonpayable",
      "type": "function"
    },
    {
      "inputs": [],
      "name": "getPatientsByInsuranceCompany",
      "outputs": [
        {
          "internalType": "uint256[]",
          "name": "patientIDsList",
          "type": "uint256[]"
        },
        {
          "components": [
            {
              "internalType": "uint256",
              "name": "patientID",
              "type": "uint256"
            },
            {
              "internalType": "address",
              "name": "patientAddress",
              "type": "address"
            },
            {
              "internalType": "string",
              "name": "name",
              "type": "string"
            },
            {
              "internalType": "uint256",
              "name": "age",
              "type": "uint256"
            },
            {
              "internalType": "string",
              "name": "gender",
              "type": "string"
            },
            {
              "internalType": "string",
              "name": "insuranceCompany",
              "type": "string"
            },
            {
              "internalType": "address",
              "name": "insuranceCompanyAddress",
              "type": "address"
            }
          ],
          "internalType": "struct PatientRecords.Patient[]",
          "name": "patientList",
          "type": "tuple[]"
        }
      ],
      "stateMutability": "view",
      "type": "function",
      "constant": true
    }
  ],
  "bytecode": "0x608060405234801561001057600080fd5b506128f3806100206000396000f3fe608060405234801561001057600080fd5b50600436106100885760003560e01c80637fb8998f1161005b5780637fb8998f1461010357806393119a8314610133578063a1f59ff814610169578063ba5c03351461018557610088565b806318a231a91461008d57806328bda524146100ac578063345f33cd146100c85780633e4d8780146100e7575b600080fd5b6100956101bc565b6040516100a39291906122ef565b60405180910390f35b6100c660048036038101906100c19190611e31565b6105e6565b005b6100d0610895565b6040516100de9291906122ef565b60405180910390f35b61010160048036038101906100fc9190611ef0565b610f05565b005b61011d60048036038101906101189190611ef0565b61116f565b60405161012a9190612366565b60405180910390f35b61014d60048036038101906101489190611ef0565b611193565b6040516101609796959493929190612381565b60405180910390f35b610183600480360381019061017e9190611f19565b6113ad565b005b61019f600480360381019061019a9190611e08565b61160d565b6040516101b3989796959493929190612405565b60405180910390f35b6060806000600180549050905060008167ffffffffffffffff81111561020b577f4e487b7100000000000000000000000000000000000000000000000000000000600052604160045260246000fd5b60405190808252806020026020018201604052801561024457816020015b610231611c6a565b8152602001906001900390816102295790505b50905060005b828110156105865760006001828154811061028e577f4e487b7100000000000000000000000000000000000000000000000000000000600052603260045260246000fd5b906000526020600020015490506000808281526020019081526020016000206040518060e0016040529081600082015481526020016001820160009054906101000a900473ffffffffffffffffffffffffffffffffffffffff1673ffffffffffffffffffffffffffffffffffffffff1673ffffffffffffffffffffffffffffffffffffffff16815260200160028201805461032890612776565b80601f016020809104026020016040519081016040528092919081815260200182805461035490612776565b80156103a15780601f10610376576101008083540402835291602001916103a1565b820191906000526020600020905b81548152906001019060200180831161038457829003601f168201915b50505050508152602001600382015481526020016004820180546103c490612776565b80601f01602080910402602001604051908101604052809291908181526020018280546103f090612776565b801561043d5780601f106104125761010080835404028352916020019161043d565b820191906000526020600020905b81548152906001019060200180831161042057829003601f168201915b5050505050815260200160058201805461045690612776565b80601f016020809104026020016040519081016040528092919081815260200182805461048290612776565b80156104cf5780601f106104a4576101008083540402835291602001916104cf565b820191906000526020600020905b8154815290600101906020018083116104b257829003601f168201915b505050505081526020016006820160009054906101000a900473ffffffffffffffffffffffffffffffffffffffff1673ffffffffffffffffffffffffffffffffffffffff1673ffffffffffffffffffffffffffffffffffffffff1681525050838381518110610567577f4e487b7100000000000000000000000000000000000000000000000000000000600052603260045260246000fd5b602002602001018190525050808061057e906127a8565b91505061024a565b50600181818054806020026020016040519081016040528092919081815260200182805480156105d557602002820191906000526020600020905b8154815260200190600101908083116105c1575b505050505091509350935050509091565b600080600180549050111561065c576001806001808054905061060991906126c4565b81548110610640577f4e487b7100000000000000000000000000000000000000000000000000000000600052603260045260246000fd5b9060005260206000200154610655919061266e565b9050610661565b600190505b6040518060e001604052808281526020013373ffffffffffffffffffffffffffffffffffffffff16815260200160008851116106ac57604051806020016040528060008152506106ae565b875b815260200186815260200160008651116106d757604051806020016040528060008152506106d9565b855b815260200160008551116106fc57604051806020016040528060008152506106fe565b845b81526020018373ffffffffffffffffffffffffffffffffffffffff168152506000808381526020019081526020016000206000820151816000015560208201518160010160006101000a81548173ffffffffffffffffffffffffffffffffffffffff021916908373ffffffffffffffffffffffffffffffffffffffff160217905550604082015181600201908051906020019061079c929190611cd3565b506060820151816003015560808201518160040190805190602001906107c3929190611cd3565b5060a08201518160050190805190602001906107e0929190611cd3565b5060c08201518160060160006101000a81548173ffffffffffffffffffffffffffffffffffffffff021916908373ffffffffffffffffffffffffffffffffffffffff16021790555090505060018190806001815401808255809150506001900390600052602060002001600090919091909150557f6b905965000bb5754f6810e4d8a383a339c59b8ffe0680d4e1af63aca2da2155818760405161088592919061249f565b60405180910390a1505050505050565b6060806000339050600060018054905090506000805b82811015610982578373ffffffffffffffffffffffffffffffffffffffff1660008060018481548110610907577f4e487b7100000000000000000000000000000000000000000000000000000000600052603260045260246000fd5b9060005260206000200154815260200190815260200160002060060160009054906101000a900473ffffffffffffffffffffffffffffffffffffffff1673ffffffffffffffffffffffffffffffffffffffff16141561096f57818061096b906127a8565b9250505b808061097a906127a8565b9150506108ab565b5060008167ffffffffffffffff8111156109c5577f4e487b7100000000000000000000000000000000000000000000000000000000600052604160045260246000fd5b6040519080825280602002602001820160405280156109f35781602001602082028036833780820191505090505b50905060008267ffffffffffffffff811115610a38577f4e487b7100000000000000000000000000000000000000000000000000000000600052604160045260246000fd5b604051908082528060200260200182016040528015610a7157816020015b610a5e611c6a565b815260200190600190039081610a565790505b5090506000805b85811015610ef4578673ffffffffffffffffffffffffffffffffffffffff1660008060018481548110610ad4577f4e487b7100000000000000000000000000000000000000000000000000000000600052603260045260246000fd5b9060005260206000200154815260200190815260200160002060060160009054906101000a900473ffffffffffffffffffffffffffffffffffffffff1673ffffffffffffffffffffffffffffffffffffffff161415610ee15760018181548110610b67577f4e487b7100000000000000000000000000000000000000000000000000000000600052603260045260246000fd5b9060005260206000200154848381518110610bab577f4e487b7100000000000000000000000000000000000000000000000000000000600052603260045260246000fd5b60200260200101818152505060008060018381548110610bf4577f4e487b7100000000000000000000000000000000000000000000000000000000600052603260045260246000fd5b906000526020600020015481526020019081526020016000206040518060e0016040529081600082015481526020016001820160009054906101000a900473ffffffffffffffffffffffffffffffffffffffff1673ffffffffffffffffffffffffffffffffffffffff1673ffffffffffffffffffffffffffffffffffffffff168152602001600282018054610c8890612776565b80601f0160208091040260200160405190810160405280929190818152602001828054610cb490612776565b8015610d015780601f10610cd657610100808354040283529160200191610d01565b820191906000526020600020905b815481529060010190602001808311610ce457829003601f168201915b5050505050815260200160038201548152602001600482018054610d2490612776565b80601f0160208091040260200160405190810160405280929190818152602001828054610d5090612776565b8015610d9d5780601f10610d7257610100808354040283529160200191610d9d565b820191906000526020600020905b815481529060010190602001808311610d8057829003601f168201915b50505050508152602001600582018054610db690612776565b80601f0160208091040260200160405190810160405280929190818152602001828054610de290612776565b8015610e2f5780601f10610e0457610100808354040283529160200191610e2f565b820191906000526020600020905b815481529060010190602001808311610e1257829003601f168201915b505050505081526020016006820160009054906101000a900473ffffffffffffffffffffffffffffffffffffffff1673ffffffffffffffffffffffffffffffffffffffff1673ffffffffffffffffffffffffffffffffffffffff1681525050838381518110610ec7577f4e487b7100000000000000000000000000000000000000000000000000000000600052603260045260246000fd5b60200260200101819052508180610edd906127a8565b9250505b8080610eec906127a8565b915050610a78565b508282975097505050505050509091565b600080600083815260200190815260200160002090508060060160009054906101000a900473ffffffffffffffffffffffffffffffffffffffff1673ffffffffffffffffffffffffffffffffffffffff163373ffffffffffffffffffffffffffffffffffffffff161480610fc95750600073ffffffffffffffffffffffffffffffffffffffff168160060160009054906101000a900473ffffffffffffffffffffffffffffffffffffffff1673ffffffffffffffffffffffffffffffffffffffff16145b611008576040517f08c379a0000000000000000000000000000000000000000000000000000000008152600401610fff90612326565b60405180910390fd5b600081600501805461101990612776565b80601f016020809104026020016040519081016040528092919081815260200182805461104590612776565b80156110925780601f1061106757610100808354040283529160200191611092565b820191906000526020600020905b81548152906001019060200180831161107557829003601f168201915b5050505050905060008260060160009054906101000a900473ffffffffffffffffffffffffffffffffffffffff169050604051806020016040528060008152508360050190805190602001906110e9929190611cd3565b5060008360060160006101000a81548173ffffffffffffffffffffffffffffffffffffffff021916908373ffffffffffffffffffffffffffffffffffffffff1602179055507f3a6fed798606dae69ddd393ae34c111111dd2738a7c69e241dba16a4858e0e10848383604051611161939291906124cf565b60405180910390a150505050565b6001818154811061117f57600080fd5b906000526020600020016000915090505481565b60006020528060005260406000206000915090508060000154908060010160009054906101000a900473ffffffffffffffffffffffffffffffffffffffff16908060020180546111e290612776565b80601f016020809104026020016040519081016040528092919081815260200182805461120e90612776565b801561125b5780601f106112305761010080835404028352916020019161125b565b820191906000526020600020905b81548152906001019060200180831161123e57829003601f168201915b50505050509080600301549080600401805461127690612776565b80601f01602080910402602001604051908101604052809291908181526020018280546112a290612776565b80156112ef5780601f106112c4576101008083540402835291602001916112ef565b820191906000526020600020905b8154815290600101906020018083116112d257829003601f168201915b50505050509080600501805461130490612776565b80601f016020809104026020016040519081016040528092919081815260200182805461133090612776565b801561137d5780601f106113525761010080835404028352916020019161137d565b820191906000526020600020905b81548152906001019060200180831161136057829003601f168201915b5050505050908060060160009054906101000a900473ffffffffffffffffffffffffffffffffffffffff16905087565b600080600085815260200190815260200160002090508060060160009054906101000a900473ffffffffffffffffffffffffffffffffffffffff1673ffffffffffffffffffffffffffffffffffffffff163373ffffffffffffffffffffffffffffffffffffffff1614806114715750600073ffffffffffffffffffffffffffffffffffffffff168160060160009054906101000a900473ffffffffffffffffffffffffffffffffffffffff1673ffffffffffffffffffffffffffffffffffffffff16145b6114b0576040517f08c379a00000000000000000000000000000000000000000000000000000000081526004016114a790612346565b60405180910390fd5b60008160050180546114c190612776565b80601f01602080910402602001604051908101604052809291908181526020018280546114ed90612776565b801561153a5780601f1061150f5761010080835404028352916020019161153a565b820191906000526020600020905b81548152906001019060200180831161151d57829003601f168201915b5050505050905060008260060160009054906101000a900473ffffffffffffffffffffffffffffffffffffffff16905084836005019080519060200190611582929190611cd3565b50838360060160006101000a81548173ffffffffffffffffffffffffffffffffffffffff021916908373ffffffffffffffffffffffffffffffffffffffff1602179055507fff9d8f76558ce6b05db593351a8dc296c1340c8fe972d4bd4e014477c5e7f5fa86838388886040516115fd95949392919061250d565b60405180910390a1505050505050565b60008060606000606080600060606000600180549050905060008114156116b457600080600080604051806020016040528060008152509190604051806020016040528060008152509060405180602001604052806000815250906040518060400160405280601081526020017f4e6f207265636f72647320666f756e64000000000000000000000000000000008152509850985098509850985098509850985050611c5f565b6116bc611c6a565b6000805b83811015611a6a578c73ffffffffffffffffffffffffffffffffffffffff166000806001848154811061171c577f4e487b7100000000000000000000000000000000000000000000000000000000600052603260045260246000fd5b9060005260206000200154815260200190815260200160002060010160009054906101000a900473ffffffffffffffffffffffffffffffffffffffff1673ffffffffffffffffffffffffffffffffffffffff161415611a5757600080600183815481106117b2577f4e487b7100000000000000000000000000000000000000000000000000000000600052603260045260246000fd5b906000526020600020015481526020019081526020016000206040518060e0016040529081600082015481526020016001820160009054906101000a900473ffffffffffffffffffffffffffffffffffffffff1673ffffffffffffffffffffffffffffffffffffffff1673ffffffffffffffffffffffffffffffffffffffff16815260200160028201805461184690612776565b80601f016020809104026020016040519081016040528092919081815260200182805461187290612776565b80156118bf5780601f10611894576101008083540402835291602001916118bf565b820191906000526020600020905b8154815290600101906020018083116118a257829003601f168201915b50505050508152602001600382015481526020016004820180546118e290612776565b80601f016020809104026020016040519081016040528092919081815260200182805461190e90612776565b801561195b5780601f106119305761010080835404028352916020019161195b565b820191906000526020600020905b81548152906001019060200180831161193e57829003601f168201915b5050505050815260200160058201805461197490612776565b80601f01602080910402602001604051908101604052809291908181526020018280546119a090612776565b80156119ed5780601f106119c2576101008083540402835291602001916119ed565b820191906000526020600020905b8154815290600101906020018083116119d057829003601f168201915b505050505081526020016006820160009054906101000a900473ffffffffffffffffffffffffffffffffffffffff1673ffffffffffffffffffffffffffffffffffffffff1673ffffffffffffffffffffffffffffffffffffffff1681525050925060019150611a6a565b8080611a62906127a8565b9150506116c0565b5080611af857600080600080604051806020016040528060008152509190604051806020016040528060008152509060405180602001604052806000815250906040518060400160405280601181526020017f50617469656e74206e6f7420666f756e640000000000000000000000000000008152509a509a509a509a509a509a509a509a50505050611c5f565b816020015173ffffffffffffffffffffffffffffffffffffffff163373ffffffffffffffffffffffffffffffffffffffff161480611b6557508160c0015173ffffffffffffffffffffffffffffffffffffffff163373ffffffffffffffffffffffffffffffffffffffff16145b15611bdb57816000015182602001518360400151846060015185608001518660a001518760c001516040518060400160405280600e81526020017f416363657373206772616e7465640000000000000000000000000000000000008152509a509a509a509a509a509a509a509a50505050611c5f565b600080600080604051806020016040528060008152509190604051806020016040528060008152509060405180602001604052806000815250906040518060400160405280601381526020017f556e617574686f72697a656420616363657373000000000000000000000000008152509a509a509a509a509a509a509a509a505050505b919395975091939597565b6040518060e0016040528060008152602001600073ffffffffffffffffffffffffffffffffffffffff16815260200160608152602001600081526020016060815260200160608152602001600073ffffffffffffffffffffffffffffffffffffffff1681525090565b828054611cdf90612776565b90600052602060002090601f016020900481019282611d015760008555611d48565b82601f10611d1a57805160ff1916838001178555611d48565b82800160010185558215611d48579182015b82811115611d47578251825591602001919060010190611d2c565b5b509050611d559190611d59565b5090565b5b80821115611d72576000816000905550600101611d5a565b5090565b6000611d89611d848461259f565b61256e565b905082815260208101848484011115611da157600080fd5b611dac848285612734565b509392505050565b600081359050611dc38161288f565b92915050565b600082601f830112611dda57600080fd5b8135611dea848260208601611d76565b91505092915050565b600081359050611e02816128a6565b92915050565b600060208284031215611e1a57600080fd5b6000611e2884828501611db4565b91505092915050565b600080600080600060a08688031215611e4957600080fd5b600086013567ffffffffffffffff811115611e6357600080fd5b611e6f88828901611dc9565b9550506020611e8088828901611df3565b945050604086013567ffffffffffffffff811115611e9d57600080fd5b611ea988828901611dc9565b935050606086013567ffffffffffffffff811115611ec657600080fd5b611ed288828901611dc9565b9250506080611ee388828901611db4565b9150509295509295909350565b600060208284031215611f0257600080fd5b6000611f1084828501611df3565b91505092915050565b600080600060608486031215611f2e57600080fd5b6000611f3c86828701611df3565b935050602084013567ffffffffffffffff811115611f5957600080fd5b611f6586828701611dc9565b9250506040611f7686828701611db4565b9150509250925092565b6000611f8c8383612227565b905092915050565b6000611fa083836122d1565b60208301905092915050565b611fb5816126f8565b82525050565b611fc4816126f8565b82525050565b6000611fd5826125ef565b611fdf818561262a565b935083602082028501611ff1856125cf565b8060005b8581101561202d578484038952815161200e8582611f80565b945061201983612610565b925060208a01995050600181019050611ff5565b50829750879550505050505092915050565b600061204a826125fa565b612054818561263b565b935061205f836125df565b8060005b838110156120905781516120778882611f94565b97506120828361261d565b925050600181019050612063565b5085935050505092915050565b60006120a882612605565b6120b2818561264c565b93506120c2818560208601612743565b6120cb8161287e565b840191505092915050565b60006120e182612605565b6120eb818561265d565b93506120fb818560208601612743565b6121048161287e565b840191505092915050565b600061211c605c8361265d565b91507f556e617574686f72697a65643a204f6e6c79207468652063757272656e74206960008301527f6e737572616e636520636f6d70616e79206f7220616e20656d70747920636f6d60208301527f70616e792063616e2064656c6574652074686973207265636f72642e000000006040830152606082019050919050565b60006121a8605c8361265d565b91507f556e617574686f72697a65643a204f6e6c79207468652063757272656e74206960008301527f6e737572616e636520636f6d70616e79206f7220616e20656d70747920636f6d60208301527f70616e792063616e207570646174652074686973207265636f72642e000000006040830152606082019050919050565b600060e08301600083015161223f60008601826122d1565b5060208301516122526020860182611fac565b506040830151848203604086015261226a828261209d565b915050606083015161227f60608601826122d1565b5060808301518482036080860152612297828261209d565b91505060a083015184820360a08601526122b1828261209d565b91505060c08301516122c660c0860182611fac565b508091505092915050565b6122da8161272a565b82525050565b6122e98161272a565b82525050565b60006040820190508181036000830152612309818561203f565b9050818103602083015261231d8184611fca565b90509392505050565b6000602082019050818103600083015261233f8161210f565b9050919050565b6000602082019050818103600083015261235f8161219b565b9050919050565b600060208201905061237b60008301846122e0565b92915050565b600060e082019050612396600083018a6122e0565b6123a36020830189611fbb565b81810360408301526123b581886120d6565b90506123c460608301876122e0565b81810360808301526123d681866120d6565b905081810360a08301526123ea81856120d6565b90506123f960c0830184611fbb565b98975050505050505050565b60006101008201905061241b600083018b6122e0565b612428602083018a611fbb565b818103604083015261243a81896120d6565b905061244960608301886122e0565b818103608083015261245b81876120d6565b905081810360a083015261246f81866120d6565b905061247e60c0830185611fbb565b81810360e083015261249081846120d6565b90509998505050505050505050565b60006040820190506124b460008301856122e0565b81810360208301526124c681846120d6565b90509392505050565b60006060820190506124e460008301866122e0565b81810360208301526124f681856120d6565b90506125056040830184611fbb565b949350505050565b600060a08201905061252260008301886122e0565b818103602083015261253481876120d6565b90506125436040830186611fbb565b818103606083015261255581856120d6565b90506125646080830184611fbb565b9695505050505050565b6000604051905081810181811067ffffffffffffffff821117156125955761259461284f565b5b8060405250919050565b600067ffffffffffffffff8211156125ba576125b961284f565b5b601f19601f8301169050602081019050919050565b6000819050602082019050919050565b6000819050602082019050919050565b600081519050919050565b600081519050919050565b600081519050919050565b6000602082019050919050565b6000602082019050919050565b600082825260208201905092915050565b600082825260208201905092915050565b600082825260208201905092915050565b600082825260208201905092915050565b60006126798261272a565b91506126848361272a565b9250827fffffffffffffffffffffffffffffffffffffffffffffffffffffffffffffffff038211156126b9576126b86127f1565b5b828201905092915050565b60006126cf8261272a565b91506126da8361272a565b9250828210156126ed576126ec6127f1565b5b828203905092915050565b60006127038261270a565b9050919050565b600073ffffffffffffffffffffffffffffffffffffffff82169050919050565b6000819050919050565b82818337600083830152505050565b60005b83811015612761578082015181840152602081019050612746565b83811115612770576000848401525b50505050565b6000600282049050600182168061278e57607f821691505b602082108114156127a2576127a1612820565b5b50919050565b60006127b38261272a565b91507fffffffffffffffffffffffffffffffffffffffffffffffffffffffffffffffff8214156127e6576127e56127f1565b5b600182019050919050565b7f4e487b7100000000000000000000000000000000000000000000000000000000600052601160045260246000fd5b7f4e487b7100000000000000000000000000000000000000000000000000000000600052602260045260246000fd5b7f4e487b7100000000000000000000000000000000000000000000000000000000600052604160045260246000fd5b6000601f19601f8301169050919050565b612898816126f8565b81146128a357600080fd5b50565b6128af8161272a565b81146128ba57600080fd5b5056fea2646970667358221220a8eff1dd2335d157c6746186a391e9d1268d66efde7c1ff2fb2e88cbacf49a5564736f6c63430008000033",
  "immutableReferences": {},
  "source": "// SPDX-License-Identifier: MIT\npragma solidity ^0.8.0;\n\ncontract PatientRecords {\n    struct Patient {\n        uint patientID;\n        address patientAddress;\n        string name;\n        uint age;\n        string gender;\n        string insuranceCompany;\n        address insuranceCompanyAddress;\n    }\n\n    mapping(uint => Patient) public patients;\n    uint[] public patientIDs;\n\n    event PatientAdded(uint patientID, string name);\n    event InsuranceCompanyUpdated(uint patientID, string oldInsuranceCompany, address oldInsuranceCompanyAddress, string newInsuranceCompany, address newInsuranceCompanyAddress);\n    event InsuranceCompanyDeleted(uint patientID, string oldInsuranceCompany, address oldInsuranceCompanyAddress);\n\n    function addPatient(\n        string memory _name,\n        uint _age,\n        string memory _gender,\n        string memory _insuranceCompany,\n        address _insuranceCompanyAddress\n    ) public {\n        uint newPatientID;\n\n        // Determine the new patientID\n        if (patientIDs.length > 0) {\n            newPatientID = patientIDs[patientIDs.length - 1] + 1;\n        } else {\n            newPatientID = 1;\n        }\n\n        // Add new patient record\n        patients[newPatientID] = Patient(\n            newPatientID,\n            msg.sender, // Automatically store the sender's address as the patient's address\n            bytes(_name).length > 0 ? _name : \"\",\n            _age,\n            bytes(_gender).length > 0 ? _gender : \"\",\n            bytes(_insuranceCompany).length > 0 ? _insuranceCompany : \"\",\n            _insuranceCompanyAddress\n        );\n\n        // Add patientID to the list of IDs\n        patientIDs.push(newPatientID);\n\n        emit PatientAdded(newPatientID, _name);\n    }\n\n    function getPatientByAddress(address _patientAddress)\n        public\n        view\n        returns (\n            uint patientID,\n            address patientAddress,\n            string memory name,\n            uint age,\n            string memory gender,\n            string memory insuranceCompany,\n            address insuranceCompanyAddress,\n            string memory status\n        )\n    {\n        uint length = patientIDs.length;\n\n        // Check if there are no patient records\n        if (length == 0) {\n            return (0, address(0), \"\", 0, \"\", \"\", address(0), \"No records found\");\n        }\n\n        Patient memory patient;\n        bool found = false;\n\n        // Find the patient by the provided address\n        for (uint i = 0; i < length; i++) {\n            if (patients[patientIDs[i]].patientAddress == _patientAddress) {\n                patient = patients[patientIDs[i]];\n                found = true;\n                break;\n            }\n        }\n\n        // Check if the patient was found\n        if (!found) {\n            return (0, address(0), \"\", 0, \"\", \"\", address(0), \"Patient not found\");\n        }\n\n        // Grant access if the caller is the patient or the insurance company\n        if (msg.sender == patient.patientAddress || msg.sender == patient.insuranceCompanyAddress) {\n            return (\n                patient.patientID,\n                patient.patientAddress,\n                patient.name,\n                patient.age,\n                patient.gender,\n                patient.insuranceCompany,\n                patient.insuranceCompanyAddress,\n                \"Access granted\"\n            );\n        } else {\n            return (0, address(0), \"\", 0, \"\", \"\", address(0), \"Unauthorized access\");\n        }\n    }\n\n    function getAllPatients()\n        public\n        view\n        returns (\n            uint[] memory patientIDsList,\n            Patient[] memory patientList\n        )\n    {\n        uint length = patientIDs.length;\n        Patient[] memory allPatients = new Patient[](length);\n\n        for (uint i = 0; i < length; i++) {\n            uint patientID = patientIDs[i];\n            allPatients[i] = patients[patientID];\n        }\n\n        return (patientIDs, allPatients);\n    }\n\n    function updateInsuranceCompany(\n        uint _patientID,\n        string memory _newInsuranceCompany,\n        address _newInsuranceCompanyAddress\n    ) public {\n        Patient storage patient = patients[_patientID];\n\n        // Allow update if the current insuranceCompanyAddress is either the caller or if it is the zero address (no insurance company)\n        require(\n            msg.sender == patient.insuranceCompanyAddress || patient.insuranceCompanyAddress == address(0),\n            \"Unauthorized: Only the current insurance company or an empty company can update this record.\"\n        );\n\n        string memory oldInsuranceCompany = patient.insuranceCompany;\n        address oldInsuranceCompanyAddress = patient.insuranceCompanyAddress;\n\n        patient.insuranceCompany = _newInsuranceCompany;\n        patient.insuranceCompanyAddress = _newInsuranceCompanyAddress;\n\n        emit InsuranceCompanyUpdated(_patientID, oldInsuranceCompany, oldInsuranceCompanyAddress, _newInsuranceCompany, _newInsuranceCompanyAddress);\n    }\n\n    function deleteInsuranceCompany(uint _patientID) public {\n        Patient storage patient = patients[_patientID];\n\n        // Allow deletion if the current insuranceCompanyAddress is either the caller or if it is the zero address (no insurance company)\n        require(\n            msg.sender == patient.insuranceCompanyAddress || patient.insuranceCompanyAddress == address(0),\n            \"Unauthorized: Only the current insurance company or an empty company can delete this record.\"\n        );\n\n        string memory oldInsuranceCompany = patient.insuranceCompany;\n        address oldInsuranceCompanyAddress = patient.insuranceCompanyAddress;\n\n        patient.insuranceCompany = \"\";\n        patient.insuranceCompanyAddress = address(0);\n\n        emit InsuranceCompanyDeleted(_patientID, oldInsuranceCompany, oldInsuranceCompanyAddress);\n    }\n\n    function getPatientsByInsuranceCompany()\n        public\n        view\n        returns (\n            uint[] memory patientIDsList,\n            Patient[] memory patientList\n        )\n    {\n        address insuranceCompanyAddress = msg.sender;\n        uint length = patientIDs.length;\n        uint count = 0;\n\n        // First, count how many patients have the given insurance company address\n        for (uint i = 0; i < length; i++) {\n            if (patients[patientIDs[i]].insuranceCompanyAddress == insuranceCompanyAddress) {\n                count++;\n            }\n        }\n\n        // Create arrays to hold the results\n        uint[] memory ids = new uint[](count);\n        Patient[] memory patientsList = new Patient[](count);\n\n        uint index = 0;\n        for (uint i = 0; i < length; i++) {\n            if (patients[patientIDs[i]].insuranceCompanyAddress == insuranceCompanyAddress) {\n                ids[index] = patientIDs[i];\n                patientsList[index] = patients[patientIDs[i]];\n                index++;\n            }\n        }\n\n        return (ids, patientsList);\n    }\n}\n",
  "sourcePath": "C:\\Users\\Sarthak\\Desktop\\BlockchainProjects\\EHR_Management\\v.0.1_PatientRecords\\contracts\\PatientRecords.sol",
  "compiler": {
    "name": "solc",
    "version": "0.8.0+commit.c7dfd78e.Emscripten.clang"
  },
  "schemaVersion": "3.4.16",
  "updatedAt": "2024-09-04T07:01:14.603Z",
  "networkType": "ethereum",
  "devdoc": {
    "kind": "dev",
    "methods": {},
    "version": 1
  },
  "userdoc": {
    "kind": "user",
    "methods": {},
    "version": 1
  }
}