{
  "contractName": "PatientRecords",
  "abi": [
    {
      "anonymous": false,
      "inputs": [
        {
          "indexed": true,
          "internalType": "uint256",
          "name": "patientID",
          "type": "uint256"
        },
        {
          "indexed": true,
          "internalType": "address",
          "name": "newAddress",
          "type": "address"
        }
      ],
      "name": "AccessGranted",
      "type": "event"
    },
    {
      "anonymous": false,
      "inputs": [
        {
          "indexed": false,
          "internalType": "uint256",
          "name": "patientID",
          "type": "uint256"
        },
        {
          "indexed": false,
          "internalType": "address",
          "name": "revokedAddress",
          "type": "address"
        }
      ],
      "name": "AccessRevoked",
      "type": "event"
    },
    {
      "anonymous": false,
      "inputs": [
        {
          "indexed": false,
          "internalType": "uint256",
          "name": "patientID",
          "type": "uint256"
        },
        {
          "indexed": false,
          "internalType": "string",
          "name": "cid",
          "type": "string"
        }
      ],
      "name": "PatientAdded",
      "type": "event"
    },
    {
      "inputs": [
        {
          "internalType": "uint256",
          "name": "",
          "type": "uint256"
        }
      ],
      "name": "patientIDs",
      "outputs": [
        {
          "internalType": "uint256",
          "name": "",
          "type": "uint256"
        }
      ],
      "stateMutability": "view",
      "type": "function",
      "constant": true
    },
    {
      "inputs": [
        {
          "internalType": "uint256",
          "name": "",
          "type": "uint256"
        }
      ],
      "name": "patients",
      "outputs": [
        {
          "internalType": "uint256",
          "name": "patientID",
          "type": "uint256"
        },
        {
          "internalType": "string",
          "name": "cid",
          "type": "string"
        }
      ],
      "stateMutability": "view",
      "type": "function",
      "constant": true
    },
    {
      "inputs": [
        {
          "internalType": "string",
          "name": "_cid",
          "type": "string"
        },
        {
          "internalType": "address",
          "name": "_insuranceCompanyAddress",
          "type": "address"
        }
      ],
      "name": "addPatient",
      "outputs": [],
      "stateMutability": "nonpayable",
      "type": "function"
    },
    {
      "inputs": [],
      "name": "getAllPatients",
      "outputs": [
        {
          "internalType": "uint256[]",
          "name": "patientIDsList",
          "type": "uint256[]"
        },
        {
          "internalType": "string[]",
          "name": "cids",
          "type": "string[]"
        },
        {
          "internalType": "address[][]",
          "name": "accessProvidedLists",
          "type": "address[][]"
        }
      ],
      "stateMutability": "view",
      "type": "function",
      "constant": true
    },
    {
      "inputs": [
        {
          "internalType": "uint256",
          "name": "_patientID",
          "type": "uint256"
        }
      ],
      "name": "getPatientByID",
      "outputs": [
        {
          "internalType": "uint256",
          "name": "patientID",
          "type": "uint256"
        },
        {
          "internalType": "string",
          "name": "cid",
          "type": "string"
        },
        {
          "internalType": "string",
          "name": "status",
          "type": "string"
        }
      ],
      "stateMutability": "view",
      "type": "function",
      "constant": true
    }
  ],
  "bytecode": "0x608060405234801561001057600080fd5b506114dc806100206000396000f3fe608060405234801561001057600080fd5b50600436106100575760003560e01c806318a231a91461005c5780637fb8998f1461007c5780638bd87475146100ac57806393119a83146100c8578063f1f761a9146100f9575b600080fd5b61006461012b565b60405161007393929190611009565b60405180910390f35b61009660048036038101906100919190610d43565b6104ac565b6040516100a39190611055565b60405180910390f35b6100c660048036038101906100c19190610cef565b6104d0565b005b6100e260048036038101906100dd9190610d43565b6106b2565b6040516100f0929190611070565b60405180910390f35b610113600480360381019061010e9190610d43565b61075e565b604051610122939291906110a0565b60405180910390f35b60608060606000600180549050905060008167ffffffffffffffff81111561017c577f4e487b7100000000000000000000000000000000000000000000000000000000600052604160045260246000fd5b6040519080825280602002602001820160405280156101af57816020015b606081526020019060019003908161019a5790505b50905060008267ffffffffffffffff8111156101f4577f4e487b7100000000000000000000000000000000000000000000000000000000600052604160045260246000fd5b60405190808252806020026020018201604052801561022757816020015b60608152602001906001900390816102125790505b50905060005b8381101561044757600060018281548110610271577f4e487b7100000000000000000000000000000000000000000000000000000000600052603260045260246000fd5b90600052602060002001549050600080600083815260200190815260200160002090508060010180546102a39061135f565b80601f01602080910402602001604051908101604052809291908181526020018280546102cf9061135f565b801561031c5780601f106102f15761010080835404028352916020019161031c565b820191906000526020600020905b8154815290600101906020018083116102ff57829003601f168201915b505050505085848151811061035a577f4e487b7100000000000000000000000000000000000000000000000000000000600052603260045260246000fd5b6020026020010181905250806002018054806020026020016040519081016040528092919081815260200182805480156103e957602002820191906000526020600020905b8160009054906101000a900473ffffffffffffffffffffffffffffffffffffffff1673ffffffffffffffffffffffffffffffffffffffff168152602001906001019080831161039f575b5050505050848481518110610427577f4e487b7100000000000000000000000000000000000000000000000000000000600052603260045260246000fd5b60200260200101819052505050808061043f90611391565b91505061022d565b50600182828280548060200260200160405190810160405280929190818152602001828054801561049757602002820191906000526020600020905b815481526020019060010190808311610483575b50505050509250955095509550505050909192565b600181815481106104bc57600080fd5b906000526020600020016000915090505481565b600080600180549050116104e5576001610546565b600180600180805490506104f991906112ad565b81548110610530577f4e487b7100000000000000000000000000000000000000000000000000000000600052603260045260246000fd5b90600052602060002001546105459190611257565b5b9050600080600083815260200190815260200160002090508181600001819055508381600101908051906020019061057f929190610b99565b5080600201339080600181540180825580915050600190039060005260206000200160009091909190916101000a81548173ffffffffffffffffffffffffffffffffffffffff021916908373ffffffffffffffffffffffffffffffffffffffff16021790555080600201839080600181540180825580915050600190039060005260206000200160009091909190916101000a81548173ffffffffffffffffffffffffffffffffffffffff021916908373ffffffffffffffffffffffffffffffffffffffff16021790555060018290806001815401808255809150506001900390600052602060002001600090919091909150557f6b905965000bb5754f6810e4d8a383a339c59b8ffe0680d4e1af63aca2da215582856040516106a4929190611070565b60405180910390a150505050565b60006020528060005260406000206000915090508060000154908060010180546106db9061135f565b80601f01602080910402602001604051908101604052809291908181526020018280546107079061135f565b80156107545780601f1061072957610100808354040283529160200191610754565b820191906000526020600020905b81548152906001019060200180831161073757829003601f168201915b5050505050905082565b60006060806000600180549050905060008114156107ca576000604051806020016040528060008152506040518060400160405280601081526020017f4e6f207265636f72647320666f756e640000000000000000000000000000000081525093509350935050610b92565b6107d2610c1f565b6000805b838110156109e857876000806001848154811061081c577f4e487b7100000000000000000000000000000000000000000000000000000000600052603260045260246000fd5b906000526020600020015481526020019081526020016000206000015414156109d5576000806001838154811061087c577f4e487b7100000000000000000000000000000000000000000000000000000000600052603260045260246000fd5b90600052602060002001548152602001908152602001600020604051806060016040529081600082015481526020016001820180546108ba9061135f565b80601f01602080910402602001604051908101604052809291908181526020018280546108e69061135f565b80156109335780601f1061090857610100808354040283529160200191610933565b820191906000526020600020905b81548152906001019060200180831161091657829003601f168201915b50505050508152602001600282018054806020026020016040519081016040528092919081815260200182805480156109c157602002820191906000526020600020905b8160009054906101000a900473ffffffffffffffffffffffffffffffffffffffff1673ffffffffffffffffffffffffffffffffffffffff1681526020019060010190808311610977575b5050505050815250509250600191506109e8565b80806109e090611391565b9150506107d6565b5080610a44576000604051806020016040528060008152506040518060400160405280601181526020017f50617469656e74206e6f7420666f756e64000000000000000000000000000000815250955095509550505050610b92565b6000805b836040015151811015610ae9573373ffffffffffffffffffffffffffffffffffffffff1684604001518281518110610aa9577f4e487b7100000000000000000000000000000000000000000000000000000000600052603260045260246000fd5b602002602001015173ffffffffffffffffffffffffffffffffffffffff161415610ad65760019150610ae9565b8080610ae190611391565b915050610a48565b508015610b3f57826000015183602001516040518060400160405280600e81526020017f416363657373206772616e74656400000000000000000000000000000000000081525096509650965050505050610b92565b6000604051806020016040528060008152506040518060400160405280601381526020017f556e617574686f72697a65642061636365737300000000000000000000000000815250965096509650505050505b9193909250565b828054610ba59061135f565b90600052602060002090601f016020900481019282610bc75760008555610c0e565b82601f10610be057805160ff1916838001178555610c0e565b82800160010185558215610c0e579182015b82811115610c0d578251825591602001919060010190610bf2565b5b509050610c1b9190610c40565b5090565b60405180606001604052806000815260200160608152602001606081525090565b5b80821115610c59576000816000905550600101610c41565b5090565b6000610c70610c6b84611116565b6110e5565b905082815260208101848484011115610c8857600080fd5b610c9384828561131d565b509392505050565b600081359050610caa81611478565b92915050565b600082601f830112610cc157600080fd5b8135610cd1848260208601610c5d565b91505092915050565b600081359050610ce98161148f565b92915050565b60008060408385031215610d0257600080fd5b600083013567ffffffffffffffff811115610d1c57600080fd5b610d2885828601610cb0565b9250506020610d3985828601610c9b565b9150509250929050565b600060208284031215610d5557600080fd5b6000610d6384828501610cda565b91505092915050565b6000610d788383610dc4565b60208301905092915050565b6000610d908383610dd3565b905092915050565b6000610da48383610f79565b905092915050565b6000610db88383610feb565b60208301905092915050565b610dcd816112e1565b82525050565b6000610dde82611186565b610de881856111f1565b9350610df383611146565b8060005b83811015610e24578151610e0b8882610d6c565b9750610e16836111bd565b925050600181019050610df7565b5085935050505092915050565b6000610e3c82611191565b610e468185611202565b935083602082028501610e5885611156565b8060005b85811015610e945784840389528151610e758582610d84565b9450610e80836111ca565b925060208a01995050600181019050610e5c565b50829750879550505050505092915050565b6000610eb18261119c565b610ebb8185611213565b935083602082028501610ecd85611166565b8060005b85811015610f095784840389528151610eea8582610d98565b9450610ef5836111d7565b925060208a01995050600181019050610ed1565b50829750879550505050505092915050565b6000610f26826111a7565b610f308185611224565b9350610f3b83611176565b8060005b83811015610f6c578151610f538882610dac565b9750610f5e836111e4565b925050600181019050610f3f565b5085935050505092915050565b6000610f84826111b2565b610f8e8185611235565b9350610f9e81856020860161132c565b610fa781611467565b840191505092915050565b6000610fbd826111b2565b610fc78185611246565b9350610fd781856020860161132c565b610fe081611467565b840191505092915050565b610ff481611313565b82525050565b61100381611313565b82525050565b600060608201905081810360008301526110238186610f1b565b905081810360208301526110378185610ea6565b9050818103604083015261104b8184610e31565b9050949350505050565b600060208201905061106a6000830184610ffa565b92915050565b60006040820190506110856000830185610ffa565b81810360208301526110978184610fb2565b90509392505050565b60006060820190506110b56000830186610ffa565b81810360208301526110c78185610fb2565b905081810360408301526110db8184610fb2565b9050949350505050565b6000604051905081810181811067ffffffffffffffff8211171561110c5761110b611438565b5b8060405250919050565b600067ffffffffffffffff82111561113157611130611438565b5b601f19601f8301169050602081019050919050565b6000819050602082019050919050565b6000819050602082019050919050565b6000819050602082019050919050565b6000819050602082019050919050565b600081519050919050565b600081519050919050565b600081519050919050565b600081519050919050565b600081519050919050565b6000602082019050919050565b6000602082019050919050565b6000602082019050919050565b6000602082019050919050565b600082825260208201905092915050565b600082825260208201905092915050565b600082825260208201905092915050565b600082825260208201905092915050565b600082825260208201905092915050565b600082825260208201905092915050565b600061126282611313565b915061126d83611313565b9250827fffffffffffffffffffffffffffffffffffffffffffffffffffffffffffffffff038211156112a2576112a16113da565b5b828201905092915050565b60006112b882611313565b91506112c383611313565b9250828210156112d6576112d56113da565b5b828203905092915050565b60006112ec826112f3565b9050919050565b600073ffffffffffffffffffffffffffffffffffffffff82169050919050565b6000819050919050565b82818337600083830152505050565b60005b8381101561134a57808201518184015260208101905061132f565b83811115611359576000848401525b50505050565b6000600282049050600182168061137757607f821691505b6020821081141561138b5761138a611409565b5b50919050565b600061139c82611313565b91507fffffffffffffffffffffffffffffffffffffffffffffffffffffffffffffffff8214156113cf576113ce6113da565b5b600182019050919050565b7f4e487b7100000000000000000000000000000000000000000000000000000000600052601160045260246000fd5b7f4e487b7100000000000000000000000000000000000000000000000000000000600052602260045260246000fd5b7f4e487b7100000000000000000000000000000000000000000000000000000000600052604160045260246000fd5b6000601f19601f8301169050919050565b611481816112e1565b811461148c57600080fd5b50565b61149881611313565b81146114a357600080fd5b5056fea264697066735822122008c84a5f3906f1cf9fc89af2da8e123685c025f2a616bcc9019ea3069943200c64736f6c63430008000033",
  "immutableReferences": {},
  "source": "// SPDX-License-Identifier: MIT\npragma solidity ^0.8.0;\n\ncontract PatientRecords {\n    struct Patient {\n        uint patientID;\n        string cid; // Store CID instead of detailed patient data\n        address[] accessGranted; // List of addresses that have access\n    }\n\n    mapping(uint => Patient) public patients;\n    uint[] public patientIDs;\n\n    event PatientAdded(uint patientID, string cid);\n    event AccessGranted(uint indexed patientID, address indexed newAddress);\n    event AccessRevoked(uint patientID, address revokedAddress);\n\n\n    // Add patient data with CID and manage access rights\n    function addPatient(\n        string memory _cid,\n        address _insuranceCompanyAddress\n    ) public {\n\n        uint newPatientID = patientIDs.length > 0 ? patientIDs[patientIDs.length - 1] + 1 : 1;\n        \n        Patient storage newPatient = patients[newPatientID];\n\n        // Initialize the Patient fields\n        newPatient.patientID = newPatientID;\n        newPatient.cid = _cid;\n        \n        // Create and populate the accessGranted array in storage\n        newPatient.accessGranted.push(msg.sender);               // Add the sender's address\n        newPatient.accessGranted.push(_insuranceCompanyAddress); // Add the insurance company's address\n\n        // Add patientID to the list of IDs\n        patientIDs.push(newPatientID);\n\n        emit PatientAdded(newPatientID, _cid);\n\n        \n    }\n\n    function getAllPatients()\n        public\n        view\n        returns (\n            uint[] memory patientIDsList,\n            string[] memory cids,\n            address[][] memory accessProvidedLists\n        )\n    {   \n        uint length = patientIDs.length;\n\n        // Create memory arrays for each patient property\n        string[] memory _cids = new string[](length);\n        address[][] memory _accessProvidedLists = new address[][](length);  // Array of arrays\n\n        for (uint i = 0; i < length; i++) {\n            uint patientID = patientIDs[i];\n            Patient storage patient = patients[patientID];\n\n            // Populate memory arrays with patient data\n            _cids[i] = patient.cid;\n            _accessProvidedLists[i] = patient.accessGranted;  // Store dynamic access list\n        }\n        \n        // Return patient IDs, CIDs, and accessGranted lists\n        return (\n            patientIDs,\n            _cids,\n            _accessProvidedLists\n        );\n    }\n\n\n    function getPatientByID(uint _patientID)\n        public\n        view\n        returns (\n            uint patientID,\n            string memory cid,\n            string memory status\n        )\n    {\n        uint length = patientIDs.length;\n\n        // Check if there are no patient records\n        if (length == 0) {\n            return (0, \"\", \"No records found\");\n        }\n\n        Patient memory patient;\n        bool found = false;\n\n        // Find the patient by the provided patientID\n        for (uint i = 0; i < length; i++) {\n            if (patients[patientIDs[i]].patientID == _patientID) {\n                patient = patients[patientIDs[i]];\n                found = true;\n                break;\n            }\n        }\n\n        // Check if the patient was found\n        if (!found) {\n            return (0, \"\", \"Patient not found\");\n        }\n\n        // Check if msg.sender is in the accessGranted array\n        bool accessGranted = false;\n        for (uint j = 0; j < patient.accessGranted.length; j++) {\n            if (patient.accessGranted[j] == msg.sender) {\n                accessGranted = true;\n                break;\n            }\n        }\n\n        // If access is granted, return the patientID and CID\n        if (accessGranted) {\n            return (\n                patient.patientID,\n                patient.cid,\n                \"Access granted\"\n            );\n        } else {\n            return (0, \"\", \"Unauthorized access\");\n        }\n    }\n}\n\n//     function updateInsuranceCompany(\n//         uint _patientID,\n//         string memory _newInsuranceCompany,\n//         address _newInsuranceCompanyAddress\n//     ) public {\n//         Patient storage patient = patients[_patientID];\n\n//         // Allow update only if the caller is the patient\n//         require(\n//             msg.sender == patient.patientAddress,\n//             \"Unauthorized: Only the patient can update this record.\"\n//         );\n\n//         string memory oldInsuranceCompany = patient.insuranceCompany;\n//         address oldInsuranceCompanyAddress = patient.insuranceCompanyAddress;\n\n//         // Update the insurance company details\n//         patient.insuranceCompany = _newInsuranceCompany;\n//         patient.insuranceCompanyAddress = _newInsuranceCompanyAddress;\n\n//         // Replace old insurance company address in the accessProvided array with the new address\n//         bool replaced = false;\n//         for (uint i = 0; i < patient.accessProvided.length; i++) {\n//             if (patient.accessProvided[i] == oldInsuranceCompanyAddress) {\n//                 patient.accessProvided[i] = _newInsuranceCompanyAddress;\n//                 replaced = true;\n//                 break;\n//             }\n//         }\n\n//         // If the old insurance company address was not found in the array, add the new address\n//         if (!replaced) {\n//             patient.accessProvided.push(_newInsuranceCompanyAddress);\n//         }\n\n//         emit InsuranceCompanyUpdated(\n//             _patientID,\n//             oldInsuranceCompany,\n//             oldInsuranceCompanyAddress,\n//             _newInsuranceCompany,\n//             _newInsuranceCompanyAddress\n//         );\n//     }\n\n//     function deleteInsuranceCompany(uint _patientID) public {\n//         Patient storage patient = patients[_patientID];\n\n//         // Allow deletion only if the caller is the patient\n//         require(\n//             msg.sender == patient.patientAddress,\n//             \"Unauthorized: Only the patient can delete the insurance company.\"\n//         );\n\n//         string memory oldInsuranceCompany = patient.insuranceCompany;\n//         address oldInsuranceCompanyAddress = patient.insuranceCompanyAddress;\n\n//         // Reset the insurance company details\n//         patient.insuranceCompany = \"\";\n//         patient.insuranceCompanyAddress = address(0);\n\n//         // Revoke access by removing the old insurance company address from the accessProvided array\n//         for (uint i = 0; i < patient.accessProvided.length; i++) {\n//             if (patient.accessProvided[i] == oldInsuranceCompanyAddress) {\n//                 // Remove the address by shifting the elements in the array\n//                 for (uint j = i; j < patient.accessProvided.length - 1; j++) {\n//                     patient.accessProvided[j] = patient.accessProvided[j + 1];\n//                 }\n//                 patient.accessProvided.pop(); // Reduce the array length\n//                 break; // Exit the loop once the insurance company address is found and removed\n//             }\n//         }\n\n//         emit InsuranceCompanyDeleted(_patientID, oldInsuranceCompany, oldInsuranceCompanyAddress);\n//     }\n\n//     function getPatientsByInsuranceCompany()\n//         public\n//         view\n//         returns (\n//             uint[] memory patientIDsList,\n//             Patient[] memory patientList\n//         )\n//     {\n//         address insuranceCompanyAddress = msg.sender;\n//         uint length = patientIDs.length;\n//         uint count = 0;\n\n//         // First, count how many patients have granted access to the caller (insurance company)\n//         for (uint i = 0; i < length; i++) {\n//             Patient memory patient = patients[patientIDs[i]];\n//             for (uint j = 0; j < patient.accessProvided.length; j++) {\n//                 if (patient.accessProvided[j] == insuranceCompanyAddress) {\n//                     count++;\n//                     break; // Break once the address is found\n//                 }\n//             }\n//         }\n\n//         // Create arrays to hold the results\n//         uint[] memory ids = new uint[](count);\n//         Patient[] memory patientsList = new Patient[](count);\n\n//         uint index = 0;\n//         for (uint i = 0; i < length; i++) {\n//             Patient memory patient = patients[patientIDs[i]];\n//             for (uint j = 0; j < patient.accessProvided.length; j++) {\n//                 if (patient.accessProvided[j] == insuranceCompanyAddress) {\n//                     ids[index] = patientIDs[i];\n//                     patientsList[index] = patient;\n//                     index++;\n//                     break; // Break once the address is found\n//                 }\n//             }\n//         }\n\n//         return (ids, patientsList);\n//     }\n\n//     function grantAccess(uint _patientID, uint _addressPatientID) public {\n//         // Get the patient record for the patient granting access\n//         Patient storage patient = patients[_patientID];\n        \n//         // Get the patient record for the patient receiving access\n//         Patient storage addressPatient = patients[_addressPatientID];\n\n//         // Only the patient can grant access\n//         require(\n//             msg.sender == patient.patientAddress,\n//             \"Unauthorized: Only the patient can grant access.\"\n//         );\n        \n//         // Check if the addressPatientID exists\n//         require(\n//             addressPatient.patientAddress != address(0),\n//             \"Invalid patient ID: Patient to grant access, does not exist.\"\n//         );\n\n//         // Check if the address is already in the accessProvided list\n//         bool alreadyHasAccess = false;\n//         for (uint i = 0; i < patient.accessProvided.length; i++) {\n//             if (patient.accessProvided[i] == addressPatient.patientAddress) {\n//                 alreadyHasAccess = true;\n//                 break;\n//             }\n//         }\n\n//         require(\n//             !alreadyHasAccess,\n//             \"This address already has access.\"\n//         );\n\n//         // Add the new address to the accessProvided list\n//         patient.accessProvided.push(addressPatient.patientAddress);\n\n//         emit AccessGranted(_patientID, addressPatient.patientAddress);\n//     }\n\n\n//     function revokeAccess(uint _patientID, uint _addressPatientID) public {\n//         // Get the patient record for the patient revoking access\n//         Patient storage patient = patients[_patientID];\n\n//         // Get the patient record for the patient whose access is being revoked\n//         Patient storage addressPatient = patients[_addressPatientID];\n\n//         // Only the patient can revoke access\n//         require(\n//             msg.sender == patient.patientAddress,\n//             \"Unauthorized: Only the patient can revoke access.\"\n//         );\n\n//         // Check if the addressPatientID exists\n//         require(\n//             addressPatient.patientAddress != address(0),\n//             \"Invalid patient ID: Patient to revoke access, does not exist.\"\n//         );\n\n//         // Find the address in the accessProvided list and remove it\n//         bool addressFound = false;\n//         for (uint i = 0; i < patient.accessProvided.length; i++) {\n//             if (patient.accessProvided[i] == addressPatient.patientAddress) {\n//                 // Remove the address by shifting the last element to the current position and reducing the array size\n//                 patient.accessProvided[i] = patient.accessProvided[patient.accessProvided.length - 1];\n//                 patient.accessProvided.pop();\n//                 addressFound = true;\n//                 break;\n//             }\n//         }\n\n//         // If the address was not found in the list\n//         require(addressFound, \"Address not found in the access list.\");\n\n//         emit AccessRevoked(_patientID, addressPatient.patientAddress);\n//     }\n\n\n// }\n",
  "sourcePath": "C:\\Users\\Sarthak\\Desktop\\BlockchainProjects\\EHR_Management\\v.0.1_PatientRecords\\contracts\\PatientRecords.sol",
  "compiler": {
    "name": "solc",
    "version": "0.8.0+commit.c7dfd78e.Emscripten.clang"
  },
  "schemaVersion": "3.4.16",
  "updatedAt": "2024-09-13T10:14:36.829Z",
  "networkType": "ethereum",
  "devdoc": {
    "kind": "dev",
    "methods": {},
    "version": 1
  },
  "userdoc": {
    "kind": "user",
    "methods": {},
    "version": 1
  }
}