{
  "contractName": "PatientRecords",
  "abi": [
    {
      "anonymous": false,
      "inputs": [
        {
          "indexed": true,
          "internalType": "uint256",
          "name": "patientID",
          "type": "uint256"
        },
        {
          "indexed": true,
          "internalType": "address",
          "name": "newAddress",
          "type": "address"
        }
      ],
      "name": "AccessGranted",
      "type": "event"
    },
    {
      "anonymous": false,
      "inputs": [
        {
          "indexed": false,
          "internalType": "uint256",
          "name": "patientID",
          "type": "uint256"
        },
        {
          "indexed": false,
          "internalType": "address",
          "name": "revokedAddress",
          "type": "address"
        }
      ],
      "name": "AccessRevoked",
      "type": "event"
    },
    {
      "anonymous": false,
      "inputs": [
        {
          "indexed": false,
          "internalType": "uint256",
          "name": "patientID",
          "type": "uint256"
        },
        {
          "indexed": false,
          "internalType": "string",
          "name": "cid",
          "type": "string"
        }
      ],
      "name": "PatientAdded",
      "type": "event"
    },
    {
      "inputs": [
        {
          "internalType": "uint256",
          "name": "",
          "type": "uint256"
        }
      ],
      "name": "patientIDs",
      "outputs": [
        {
          "internalType": "uint256",
          "name": "",
          "type": "uint256"
        }
      ],
      "stateMutability": "view",
      "type": "function",
      "constant": true
    },
    {
      "inputs": [
        {
          "internalType": "uint256",
          "name": "",
          "type": "uint256"
        }
      ],
      "name": "patients",
      "outputs": [
        {
          "internalType": "uint256",
          "name": "patientID",
          "type": "uint256"
        },
        {
          "internalType": "string",
          "name": "cid",
          "type": "string"
        }
      ],
      "stateMutability": "view",
      "type": "function",
      "constant": true
    },
    {
      "inputs": [
        {
          "internalType": "string",
          "name": "_cid",
          "type": "string"
        },
        {
          "internalType": "address",
          "name": "_insuranceCompanyAddress",
          "type": "address"
        }
      ],
      "name": "addPatient",
      "outputs": [],
      "stateMutability": "nonpayable",
      "type": "function"
    },
    {
      "inputs": [],
      "name": "getAllPatients",
      "outputs": [
        {
          "internalType": "uint256[]",
          "name": "patientIDsList",
          "type": "uint256[]"
        },
        {
          "internalType": "string[]",
          "name": "cids",
          "type": "string[]"
        },
        {
          "internalType": "address[][]",
          "name": "accessProvidedLists",
          "type": "address[][]"
        }
      ],
      "stateMutability": "view",
      "type": "function",
      "constant": true
    },
    {
      "inputs": [
        {
          "internalType": "uint256",
          "name": "_patientID",
          "type": "uint256"
        }
      ],
      "name": "getPatientByID",
      "outputs": [
        {
          "internalType": "uint256",
          "name": "patientID",
          "type": "uint256"
        },
        {
          "internalType": "string",
          "name": "cid",
          "type": "string"
        },
        {
          "internalType": "string",
          "name": "status",
          "type": "string"
        }
      ],
      "stateMutability": "view",
      "type": "function",
      "constant": true
    },
    {
      "inputs": [
        {
          "internalType": "uint256",
          "name": "_patientID",
          "type": "uint256"
        },
        {
          "internalType": "address",
          "name": "_addressToGrant",
          "type": "address"
        }
      ],
      "name": "grantAccess",
      "outputs": [],
      "stateMutability": "nonpayable",
      "type": "function"
    }
  ],
  "bytecode": "0x608060405234801561001057600080fd5b50611865806100206000396000f3fe608060405234801561001057600080fd5b50600436106100625760003560e01c806318a231a91461006757806365dd152c146100875780637fb8998f146100a35780638bd87475146100d357806393119a83146100ef578063f1f761a914610120575b600080fd5b61006f610152565b60405161007e93929190611352565b60405180910390f35b6100a1600480360381019061009c9190610fd3565b6104d3565b005b6100bd60048036038101906100b89190610faa565b610713565b6040516100ca91906113de565b60405180910390f35b6100ed60048036038101906100e89190610f56565b610737565b005b61010960048036038101906101049190610faa565b610919565b6040516101179291906113f9565b60405180910390f35b61013a60048036038101906101359190610faa565b6109c5565b60405161014993929190611429565b60405180910390f35b60608060606000600180549050905060008167ffffffffffffffff8111156101a3577f4e487b7100000000000000000000000000000000000000000000000000000000600052604160045260246000fd5b6040519080825280602002602001820160405280156101d657816020015b60608152602001906001900390816101c15790505b50905060008267ffffffffffffffff81111561021b577f4e487b7100000000000000000000000000000000000000000000000000000000600052604160045260246000fd5b60405190808252806020026020018201604052801561024e57816020015b60608152602001906001900390816102395790505b50905060005b8381101561046e57600060018281548110610298577f4e487b7100000000000000000000000000000000000000000000000000000000600052603260045260246000fd5b90600052602060002001549050600080600083815260200190815260200160002090508060010180546102ca906116e8565b80601f01602080910402602001604051908101604052809291908181526020018280546102f6906116e8565b80156103435780601f1061031857610100808354040283529160200191610343565b820191906000526020600020905b81548152906001019060200180831161032657829003601f168201915b5050505050858481518110610381577f4e487b7100000000000000000000000000000000000000000000000000000000600052603260045260246000fd5b60200260200101819052508060020180548060200260200160405190810160405280929190818152602001828054801561041057602002820191906000526020600020905b8160009054906101000a900473ffffffffffffffffffffffffffffffffffffffff1673ffffffffffffffffffffffffffffffffffffffff16815260200190600101908083116103c6575b505050505084848151811061044e577f4e487b7100000000000000000000000000000000000000000000000000000000600052603260045260246000fd5b6020026020010181905250505080806104669061171a565b915050610254565b5060018282828054806020026020016040519081016040528092919081815260200182805480156104be57602002820191906000526020600020905b8154815260200190600101908083116104aa575b50505050509250955095509550505050909192565b60008060008481526020019081526020016000209050600073ffffffffffffffffffffffffffffffffffffffff168273ffffffffffffffffffffffffffffffffffffffff161415610559576040517f08c379a0000000000000000000000000000000000000000000000000000000008152600401610550906113be565b60405180910390fd5b6000805b8260020180549050811015610622578373ffffffffffffffffffffffffffffffffffffffff168360020182815481106105bf577f4e487b7100000000000000000000000000000000000000000000000000000000600052603260045260246000fd5b9060005260206000200160009054906101000a900473ffffffffffffffffffffffffffffffffffffffff1673ffffffffffffffffffffffffffffffffffffffff16141561060f5760019150610622565b808061061a9061171a565b91505061055d565b508015610664576040517f08c379a000000000000000000000000000000000000000000000000000000000815260040161065b9061139e565b60405180910390fd5b81600201839080600181540180825580915050600190039060005260206000200160009091909190916101000a81548173ffffffffffffffffffffffffffffffffffffffff021916908373ffffffffffffffffffffffffffffffffffffffff1602179055508273ffffffffffffffffffffffffffffffffffffffff16847f3c3a9147a1fc73dd51a32f4d10c43d457e8cb826eb6f35cac6349eb965ba82b460405160405180910390a350505050565b6001818154811061072357600080fd5b906000526020600020016000915090505481565b6000806001805490501161074c5760016107ad565b600180600180805490506107609190611636565b81548110610797577f4e487b7100000000000000000000000000000000000000000000000000000000600052603260045260246000fd5b90600052602060002001546107ac91906115e0565b5b905060008060008381526020019081526020016000209050818160000181905550838160010190805190602001906107e6929190610e00565b5080600201339080600181540180825580915050600190039060005260206000200160009091909190916101000a81548173ffffffffffffffffffffffffffffffffffffffff021916908373ffffffffffffffffffffffffffffffffffffffff16021790555080600201839080600181540180825580915050600190039060005260206000200160009091909190916101000a81548173ffffffffffffffffffffffffffffffffffffffff021916908373ffffffffffffffffffffffffffffffffffffffff16021790555060018290806001815401808255809150506001900390600052602060002001600090919091909150557f6b905965000bb5754f6810e4d8a383a339c59b8ffe0680d4e1af63aca2da2155828560405161090b9291906113f9565b60405180910390a150505050565b6000602052806000526040600020600091509050806000015490806001018054610942906116e8565b80601f016020809104026020016040519081016040528092919081815260200182805461096e906116e8565b80156109bb5780601f10610990576101008083540402835291602001916109bb565b820191906000526020600020905b81548152906001019060200180831161099e57829003601f168201915b5050505050905082565b6000606080600060018054905090506000811415610a31576000604051806020016040528060008152506040518060400160405280601081526020017f4e6f207265636f72647320666f756e640000000000000000000000000000000081525093509350935050610df9565b610a39610e86565b6000805b83811015610c4f578760008060018481548110610a83577f4e487b7100000000000000000000000000000000000000000000000000000000600052603260045260246000fd5b90600052602060002001548152602001908152602001600020600001541415610c3c5760008060018381548110610ae3577f4e487b7100000000000000000000000000000000000000000000000000000000600052603260045260246000fd5b9060005260206000200154815260200190815260200160002060405180606001604052908160008201548152602001600182018054610b21906116e8565b80601f0160208091040260200160405190810160405280929190818152602001828054610b4d906116e8565b8015610b9a5780601f10610b6f57610100808354040283529160200191610b9a565b820191906000526020600020905b815481529060010190602001808311610b7d57829003601f168201915b5050505050815260200160028201805480602002602001604051908101604052809291908181526020018280548015610c2857602002820191906000526020600020905b8160009054906101000a900473ffffffffffffffffffffffffffffffffffffffff1673ffffffffffffffffffffffffffffffffffffffff1681526020019060010190808311610bde575b505050505081525050925060019150610c4f565b8080610c479061171a565b915050610a3d565b5080610cab576000604051806020016040528060008152506040518060400160405280601181526020017f50617469656e74206e6f7420666f756e64000000000000000000000000000000815250955095509550505050610df9565b6000805b836040015151811015610d50573373ffffffffffffffffffffffffffffffffffffffff1684604001518281518110610d10577f4e487b7100000000000000000000000000000000000000000000000000000000600052603260045260246000fd5b602002602001015173ffffffffffffffffffffffffffffffffffffffff161415610d3d5760019150610d50565b8080610d489061171a565b915050610caf565b508015610da657826000015183602001516040518060400160405280600e81526020017f416363657373206772616e74656400000000000000000000000000000000000081525096509650965050505050610df9565b6000604051806020016040528060008152506040518060400160405280601381526020017f556e617574686f72697a65642061636365737300000000000000000000000000815250965096509650505050505b9193909250565b828054610e0c906116e8565b90600052602060002090601f016020900481019282610e2e5760008555610e75565b82601f10610e4757805160ff1916838001178555610e75565b82800160010185558215610e75579182015b82811115610e74578251825591602001919060010190610e59565b5b509050610e829190610ea7565b5090565b60405180606001604052806000815260200160608152602001606081525090565b5b80821115610ec0576000816000905550600101610ea8565b5090565b6000610ed7610ed28461149f565b61146e565b905082815260208101848484011115610eef57600080fd5b610efa8482856116a6565b509392505050565b600081359050610f1181611801565b92915050565b600082601f830112610f2857600080fd5b8135610f38848260208601610ec4565b91505092915050565b600081359050610f5081611818565b92915050565b60008060408385031215610f6957600080fd5b600083013567ffffffffffffffff811115610f8357600080fd5b610f8f85828601610f17565b9250506020610fa085828601610f02565b9150509250929050565b600060208284031215610fbc57600080fd5b6000610fca84828501610f41565b91505092915050565b60008060408385031215610fe657600080fd5b6000610ff485828601610f41565b925050602061100585828601610f02565b9150509250929050565b600061101b8383611067565b60208301905092915050565b60006110338383611076565b905092915050565b6000611047838361121c565b905092915050565b600061105b8383611334565b60208301905092915050565b6110708161166a565b82525050565b60006110818261150f565b61108b818561157a565b9350611096836114cf565b8060005b838110156110c75781516110ae888261100f565b97506110b983611546565b92505060018101905061109a565b5085935050505092915050565b60006110df8261151a565b6110e9818561158b565b9350836020820285016110fb856114df565b8060005b8581101561113757848403895281516111188582611027565b945061112383611553565b925060208a019950506001810190506110ff565b50829750879550505050505092915050565b600061115482611525565b61115e818561159c565b935083602082028501611170856114ef565b8060005b858110156111ac578484038952815161118d858261103b565b945061119883611560565b925060208a01995050600181019050611174565b50829750879550505050505092915050565b60006111c982611530565b6111d381856115ad565b93506111de836114ff565b8060005b8381101561120f5781516111f6888261104f565b97506112018361156d565b9250506001810190506111e2565b5085935050505092915050565b60006112278261153b565b61123181856115be565b93506112418185602086016116b5565b61124a816117f0565b840191505092915050565b60006112608261153b565b61126a81856115cf565b935061127a8185602086016116b5565b611283816117f0565b840191505092915050565b600061129b6020836115cf565b91507f54686973206164647265737320616c726561647920686173206163636573732e6000830152602082019050919050565b60006112db6037836115cf565b91507f496e76616c696420616464726573733a2043616e6e6f74206772616e7420616360008301527f6365737320746f2061207a65726f20616464726573732e0000000000000000006020830152604082019050919050565b61133d8161169c565b82525050565b61134c8161169c565b82525050565b6000606082019050818103600083015261136c81866111be565b905081810360208301526113808185611149565b9050818103604083015261139481846110d4565b9050949350505050565b600060208201905081810360008301526113b78161128e565b9050919050565b600060208201905081810360008301526113d7816112ce565b9050919050565b60006020820190506113f36000830184611343565b92915050565b600060408201905061140e6000830185611343565b81810360208301526114208184611255565b90509392505050565b600060608201905061143e6000830186611343565b81810360208301526114508185611255565b905081810360408301526114648184611255565b9050949350505050565b6000604051905081810181811067ffffffffffffffff82111715611495576114946117c1565b5b8060405250919050565b600067ffffffffffffffff8211156114ba576114b96117c1565b5b601f19601f8301169050602081019050919050565b6000819050602082019050919050565b6000819050602082019050919050565b6000819050602082019050919050565b6000819050602082019050919050565b600081519050919050565b600081519050919050565b600081519050919050565b600081519050919050565b600081519050919050565b6000602082019050919050565b6000602082019050919050565b6000602082019050919050565b6000602082019050919050565b600082825260208201905092915050565b600082825260208201905092915050565b600082825260208201905092915050565b600082825260208201905092915050565b600082825260208201905092915050565b600082825260208201905092915050565b60006115eb8261169c565b91506115f68361169c565b9250827fffffffffffffffffffffffffffffffffffffffffffffffffffffffffffffffff0382111561162b5761162a611763565b5b828201905092915050565b60006116418261169c565b915061164c8361169c565b92508282101561165f5761165e611763565b5b828203905092915050565b60006116758261167c565b9050919050565b600073ffffffffffffffffffffffffffffffffffffffff82169050919050565b6000819050919050565b82818337600083830152505050565b60005b838110156116d35780820151818401526020810190506116b8565b838111156116e2576000848401525b50505050565b6000600282049050600182168061170057607f821691505b6020821081141561171457611713611792565b5b50919050565b60006117258261169c565b91507fffffffffffffffffffffffffffffffffffffffffffffffffffffffffffffffff82141561175857611757611763565b5b600182019050919050565b7f4e487b7100000000000000000000000000000000000000000000000000000000600052601160045260246000fd5b7f4e487b7100000000000000000000000000000000000000000000000000000000600052602260045260246000fd5b7f4e487b7100000000000000000000000000000000000000000000000000000000600052604160045260246000fd5b6000601f19601f8301169050919050565b61180a8161166a565b811461181557600080fd5b50565b6118218161169c565b811461182c57600080fd5b5056fea26469706673582212209892d5968ff5b029088ce2d5a798f591eac1ae6e79da01803c3bd87b210785fe64736f6c63430008000033",
  "immutableReferences": {},
  "source": "// SPDX-License-Identifier: MIT\npragma solidity ^0.8.0;\n\ncontract PatientRecords {\n    struct Patient {\n        uint patientID;\n        string cid; // Store CID instead of detailed patient data\n        address[] accessGranted; // List of addresses that have access\n    }\n\n    mapping(uint => Patient) public patients;\n    uint[] public patientIDs;\n\n    event PatientAdded(uint patientID, string cid);\n    event AccessGranted(uint indexed patientID, address indexed newAddress);\n    event AccessRevoked(uint patientID, address revokedAddress);\n\n\n    // Add patient data with CID and manage access rights\n    function addPatient(\n        string memory _cid,\n        address _insuranceCompanyAddress\n    ) public {\n\n        uint newPatientID = patientIDs.length > 0 ? patientIDs[patientIDs.length - 1] + 1 : 1;\n        \n        Patient storage newPatient = patients[newPatientID];\n\n        // Initialize the Patient fields\n        newPatient.patientID = newPatientID;\n        newPatient.cid = _cid;\n        \n        // Create and populate the accessGranted array in storage\n        newPatient.accessGranted.push(msg.sender);               // Add the sender's address\n        newPatient.accessGranted.push(_insuranceCompanyAddress); // Add the insurance company's address\n\n        // Add patientID to the list of IDs\n        patientIDs.push(newPatientID);\n\n        emit PatientAdded(newPatientID, _cid);\n\n        \n    }\n\n    function getAllPatients()\n        public\n        view\n        returns (\n            uint[] memory patientIDsList,\n            string[] memory cids,\n            address[][] memory accessProvidedLists\n        )\n    {   \n        uint length = patientIDs.length;\n\n        // Create memory arrays for each patient property\n        string[] memory _cids = new string[](length);\n        address[][] memory _accessProvidedLists = new address[][](length);  // Array of arrays\n\n        for (uint i = 0; i < length; i++) {\n            uint patientID = patientIDs[i];\n            Patient storage patient = patients[patientID];\n\n            // Populate memory arrays with patient data\n            _cids[i] = patient.cid;\n            _accessProvidedLists[i] = patient.accessGranted;  // Store dynamic access list\n        }\n        \n        // Return patient IDs, CIDs, and accessGranted lists\n        return (\n            patientIDs,\n            _cids,\n            _accessProvidedLists\n        );\n    }\n\n\n    function getPatientByID(uint _patientID)\n        public\n        view\n        returns (\n            uint patientID,\n            string memory cid,\n            string memory status\n        )\n    {\n        uint length = patientIDs.length;\n\n        // Check if there are no patient records\n        if (length == 0) {\n            return (0, \"\", \"No records found\");\n        }\n\n        Patient memory patient;\n        bool found = false;\n\n        // Find the patient by the provided patientID\n        for (uint i = 0; i < length; i++) {\n            if (patients[patientIDs[i]].patientID == _patientID) {\n                patient = patients[patientIDs[i]];\n                found = true;\n                break;\n            }\n        }\n\n        // Check if the patient was found\n        if (!found) {\n            return (0, \"\", \"Patient not found\");\n        }\n\n        // Check if msg.sender is in the accessGranted array\n        bool accessGranted = false;\n        for (uint j = 0; j < patient.accessGranted.length; j++) {\n            if (patient.accessGranted[j] == msg.sender) {\n                accessGranted = true;\n                break;\n            }\n        }\n\n        // If access is granted, return the patientID and CID\n        if (accessGranted) {\n            return (\n                patient.patientID,\n                patient.cid,\n                \"Access granted\"\n            );\n        } else {\n            return (0, \"\", \"Unauthorized access\");\n        }\n    }\n\n    function grantAccess(uint _patientID, address _addressToGrant) public {\n        // Get the patient record for the patient granting access\n        Patient storage patient = patients[_patientID];\n\n        // Only the patient can grant access\n        // require(\n        //     msg.sender == patient.patientAddress,\n        //     \"Unauthorized: Only the patient can grant access.\"\n        // );\n        \n        // Check if the address to grant access is valid\n        require(\n            _addressToGrant != address(0),\n            \"Invalid address: Cannot grant access to a zero address.\"\n        );\n\n        // Check if the address is already in the accessProvided list\n        bool alreadyHasAccess = false;\n        for (uint i = 0; i < patient.accessGranted.length; i++){\n            if (patient.accessGranted[i] == _addressToGrant){\n                alreadyHasAccess = true;\n                break;\n            }\n        }\n\n        require(\n            !alreadyHasAccess,\n            \"This address already has access.\"\n        );\n\n        // Add the new address to the accessProvided list\n        patient.accessGranted.push(_addressToGrant);\n\n        // Emit event for granted access\n        emit AccessGranted(_patientID, _addressToGrant);\n    }\n}    \n\n\n//     function updateInsuranceCompany(\n//         uint _patientID,\n//         string memory _newInsuranceCompany,\n//         address _newInsuranceCompanyAddress\n//     ) public {\n//         Patient storage patient = patients[_patientID];\n\n//         // Allow update only if the caller is the patient\n//         require(\n//             msg.sender == patient.patientAddress,\n//             \"Unauthorized: Only the patient can update this record.\"\n//         );\n\n//         string memory oldInsuranceCompany = patient.insuranceCompany;\n//         address oldInsuranceCompanyAddress = patient.insuranceCompanyAddress;\n\n//         // Update the insurance company details\n//         patient.insuranceCompany = _newInsuranceCompany;\n//         patient.insuranceCompanyAddress = _newInsuranceCompanyAddress;\n\n//         // Replace old insurance company address in the accessProvided array with the new address\n//         bool replaced = false;\n//         for (uint i = 0; i < patient.accessProvided.length; i++) {\n//             if (patient.accessProvided[i] == oldInsuranceCompanyAddress) {\n//                 patient.accessProvided[i] = _newInsuranceCompanyAddress;\n//                 replaced = true;\n//                 break;\n//             }\n//         }\n\n//         // If the old insurance company address was not found in the array, add the new address\n//         if (!replaced) {\n//             patient.accessProvided.push(_newInsuranceCompanyAddress);\n//         }\n\n//         emit InsuranceCompanyUpdated(\n//             _patientID,\n//             oldInsuranceCompany,\n//             oldInsuranceCompanyAddress,\n//             _newInsuranceCompany,\n//             _newInsuranceCompanyAddress\n//         );\n//     }\n\n//     function deleteInsuranceCompany(uint _patientID) public {\n//         Patient storage patient = patients[_patientID];\n\n//         // Allow deletion only if the caller is the patient\n//         require(\n//             msg.sender == patient.patientAddress,\n//             \"Unauthorized: Only the patient can delete the insurance company.\"\n//         );\n\n//         string memory oldInsuranceCompany = patient.insuranceCompany;\n//         address oldInsuranceCompanyAddress = patient.insuranceCompanyAddress;\n\n//         // Reset the insurance company details\n//         patient.insuranceCompany = \"\";\n//         patient.insuranceCompanyAddress = address(0);\n\n//         // Revoke access by removing the old insurance company address from the accessProvided array\n//         for (uint i = 0; i < patient.accessProvided.length; i++) {\n//             if (patient.accessProvided[i] == oldInsuranceCompanyAddress) {\n//                 // Remove the address by shifting the elements in the array\n//                 for (uint j = i; j < patient.accessProvided.length - 1; j++) {\n//                     patient.accessProvided[j] = patient.accessProvided[j + 1];\n//                 }\n//                 patient.accessProvided.pop(); // Reduce the array length\n//                 break; // Exit the loop once the insurance company address is found and removed\n//             }\n//         }\n\n//         emit InsuranceCompanyDeleted(_patientID, oldInsuranceCompany, oldInsuranceCompanyAddress);\n//     }\n\n//     function getPatientsByInsuranceCompany()\n//         public\n//         view\n//         returns (\n//             uint[] memory patientIDsList,\n//             Patient[] memory patientList\n//         )\n//     {\n//         address insuranceCompanyAddress = msg.sender;\n//         uint length = patientIDs.length;\n//         uint count = 0;\n\n//         // First, count how many patients have granted access to the caller (insurance company)\n//         for (uint i = 0; i < length; i++) {\n//             Patient memory patient = patients[patientIDs[i]];\n//             for (uint j = 0; j < patient.accessProvided.length; j++) {\n//                 if (patient.accessProvided[j] == insuranceCompanyAddress) {\n//                     count++;\n//                     break; // Break once the address is found\n//                 }\n//             }\n//         }\n\n//         // Create arrays to hold the results\n//         uint[] memory ids = new uint[](count);\n//         Patient[] memory patientsList = new Patient[](count);\n\n//         uint index = 0;\n//         for (uint i = 0; i < length; i++) {\n//             Patient memory patient = patients[patientIDs[i]];\n//             for (uint j = 0; j < patient.accessProvided.length; j++) {\n//                 if (patient.accessProvided[j] == insuranceCompanyAddress) {\n//                     ids[index] = patientIDs[i];\n//                     patientsList[index] = patient;\n//                     index++;\n//                     break; // Break once the address is found\n//                 }\n//             }\n//         }\n\n//         return (ids, patientsList);\n//     }\n\n\n//     function revokeAccess(uint _patientID, uint _addressPatientID) public {\n//         // Get the patient record for the patient revoking access\n//         Patient storage patient = patients[_patientID];\n\n//         // Get the patient record for the patient whose access is being revoked\n//         Patient storage addressPatient = patients[_addressPatientID];\n\n//         // Only the patient can revoke access\n//         require(\n//             msg.sender == patient.patientAddress,\n//             \"Unauthorized: Only the patient can revoke access.\"\n//         );\n\n//         // Check if the addressPatientID exists\n//         require(\n//             addressPatient.patientAddress != address(0),\n//             \"Invalid patient ID: Patient to revoke access, does not exist.\"\n//         );\n\n//         // Find the address in the accessProvided list and remove it\n//         bool addressFound = false;\n//         for (uint i = 0; i < patient.accessProvided.length; i++) {\n//             if (patient.accessProvided[i] == addressPatient.patientAddress) {\n//                 // Remove the address by shifting the last element to the current position and reducing the array size\n//                 patient.accessProvided[i] = patient.accessProvided[patient.accessProvided.length - 1];\n//                 patient.accessProvided.pop();\n//                 addressFound = true;\n//                 break;\n//             }\n//         }\n\n//         // If the address was not found in the list\n//         require(addressFound, \"Address not found in the access list.\");\n\n//         emit AccessRevoked(_patientID, addressPatient.patientAddress);\n//     }\n\n\n// }\n",
  "sourcePath": "C:\\Users\\Sarthak\\Desktop\\BlockchainProjects\\EHR_Management\\v.0.1_PatientRecords\\contracts\\PatientRecords.sol",
  "compiler": {
    "name": "solc",
    "version": "0.8.0+commit.c7dfd78e.Emscripten.clang"
  },
  "schemaVersion": "3.4.16",
  "updatedAt": "2024-09-13T16:29:27.849Z",
  "networkType": "ethereum",
  "devdoc": {
    "kind": "dev",
    "methods": {},
    "version": 1
  },
  "userdoc": {
    "kind": "user",
    "methods": {},
    "version": 1
  }
}